{
  "contractName": "BrokenETHOptions",
  "abi": [
    {
      "inputs": [
        {
          "internalType": "contract AggregatorV3Interface",
          "name": "pp",
          "type": "address"
        },
        {
          "internalType": "contract IHegicStakingETH",
          "name": "staking",
          "type": "address"
        }
      ],
      "stateMutability": "nonpayable",
      "type": "constructor"
    },
    {
      "anonymous": false,
      "inputs": [
        {
          "indexed": true,
          "internalType": "uint256",
          "name": "id",
          "type": "uint256"
        },
        {
          "indexed": true,
          "internalType": "address",
          "name": "account",
          "type": "address"
        },
        {
          "indexed": false,
          "internalType": "uint256",
          "name": "settlementFee",
          "type": "uint256"
        },
        {
          "indexed": false,
          "internalType": "uint256",
          "name": "totalFee",
          "type": "uint256"
        }
      ],
      "name": "Create",
      "type": "event"
    },
    {
      "anonymous": false,
      "inputs": [
        {
          "indexed": true,
          "internalType": "uint256",
          "name": "id",
          "type": "uint256"
        },
        {
          "indexed": false,
          "internalType": "uint256",
          "name": "profit",
          "type": "uint256"
        }
      ],
      "name": "Exercise",
      "type": "event"
    },
    {
      "anonymous": false,
      "inputs": [
        {
          "indexed": true,
          "internalType": "uint256",
          "name": "id",
          "type": "uint256"
        },
        {
          "indexed": false,
          "internalType": "uint256",
          "name": "premium",
          "type": "uint256"
        }
      ],
      "name": "Expire",
      "type": "event"
    },
    {
      "anonymous": false,
      "inputs": [
        {
          "indexed": true,
          "internalType": "address",
          "name": "previousOwner",
          "type": "address"
        },
        {
          "indexed": true,
          "internalType": "address",
          "name": "newOwner",
          "type": "address"
        }
      ],
      "name": "OwnershipTransferred",
      "type": "event"
    },
    {
      "inputs": [
        {
          "internalType": "uint256",
          "name": "period",
          "type": "uint256"
        },
        {
          "internalType": "uint256",
          "name": "amount",
          "type": "uint256"
        },
        {
          "internalType": "uint256",
          "name": "strike",
          "type": "uint256"
        },
        {
          "internalType": "enum IHegicOptions.OptionType",
          "name": "optionType",
          "type": "uint8"
        }
      ],
      "name": "create",
      "outputs": [
        {
          "internalType": "uint256",
          "name": "optionID",
          "type": "uint256"
        }
      ],
      "stateMutability": "payable",
      "type": "function",
      "payable": true
    },
    {
      "inputs": [
        {
          "internalType": "uint256",
          "name": "optionID",
          "type": "uint256"
        }
      ],
      "name": "exercise",
      "outputs": [],
      "stateMutability": "nonpayable",
      "type": "function"
    },
    {
      "inputs": [
        {
          "internalType": "uint256",
          "name": "period",
          "type": "uint256"
        },
        {
          "internalType": "uint256",
          "name": "amount",
          "type": "uint256"
        },
        {
          "internalType": "uint256",
          "name": "strike",
          "type": "uint256"
        },
        {
          "internalType": "enum IHegicOptions.OptionType",
          "name": "optionType",
          "type": "uint8"
        }
      ],
      "name": "fees",
      "outputs": [
        {
          "internalType": "uint256",
          "name": "total",
          "type": "uint256"
        },
        {
          "internalType": "uint256",
          "name": "settlementFee",
          "type": "uint256"
        },
        {
          "internalType": "uint256",
          "name": "strikeFee",
          "type": "uint256"
        },
        {
          "internalType": "uint256",
          "name": "periodFee",
          "type": "uint256"
        }
      ],
      "stateMutability": "view",
      "type": "function",
      "constant": true
    },
    {
      "inputs": [],
      "name": "impliedVolRate",
      "outputs": [
        {
          "internalType": "uint256",
          "name": "",
          "type": "uint256"
        }
      ],
      "stateMutability": "view",
      "type": "function",
      "constant": true
    },
    {
      "inputs": [
        {
          "internalType": "uint256",
          "name": "count",
          "type": "uint256"
        }
      ],
      "name": "migrate",
      "outputs": [],
      "stateMutability": "nonpayable",
      "type": "function"
    },
    {
      "inputs": [],
      "name": "optionCollateralizationRatio",
      "outputs": [
        {
          "internalType": "uint256",
          "name": "",
          "type": "uint256"
        }
      ],
      "stateMutability": "view",
      "type": "function",
      "constant": true
    },
    {
      "inputs": [
        {
          "internalType": "uint256",
          "name": "",
          "type": "uint256"
        }
      ],
      "name": "options",
      "outputs": [
        {
          "internalType": "enum IHegicOptions.State",
          "name": "state",
          "type": "uint8"
        },
        {
          "internalType": "address payable",
          "name": "holder",
          "type": "address"
        },
        {
          "internalType": "uint256",
          "name": "strike",
          "type": "uint256"
        },
        {
          "internalType": "uint256",
          "name": "amount",
          "type": "uint256"
        },
        {
          "internalType": "uint256",
          "name": "lockedAmount",
          "type": "uint256"
        },
        {
          "internalType": "uint256",
          "name": "premium",
          "type": "uint256"
        },
        {
          "internalType": "uint256",
          "name": "expiration",
          "type": "uint256"
        },
        {
          "internalType": "enum IHegicOptions.OptionType",
          "name": "optionType",
          "type": "uint8"
        }
      ],
      "stateMutability": "view",
      "type": "function",
      "constant": true
    },
    {
      "inputs": [],
      "name": "owner",
      "outputs": [
        {
          "internalType": "address",
          "name": "",
          "type": "address"
        }
      ],
      "stateMutability": "view",
      "type": "function",
      "constant": true
    },
    {
      "inputs": [],
      "name": "pool",
      "outputs": [
        {
          "internalType": "contract HegicETHPool",
          "name": "",
          "type": "address"
        }
      ],
      "stateMutability": "view",
      "type": "function",
      "constant": true
    },
    {
      "inputs": [],
      "name": "priceProvider",
      "outputs": [
        {
          "internalType": "contract AggregatorV3Interface",
          "name": "",
          "type": "address"
        }
      ],
      "stateMutability": "view",
      "type": "function",
      "constant": true
    },
    {
      "inputs": [],
      "name": "renounceOwnership",
      "outputs": [],
      "stateMutability": "nonpayable",
      "type": "function"
    },
    {
      "inputs": [
        {
          "internalType": "uint256",
          "name": "value",
          "type": "uint256"
        }
      ],
      "name": "setImpliedVolRate",
      "outputs": [],
      "stateMutability": "nonpayable",
      "type": "function"
    },
    {
      "inputs": [
        {
          "internalType": "address",
          "name": "oldAddr",
          "type": "address"
        }
      ],
      "name": "setOldHegicETHOptions",
      "outputs": [],
      "stateMutability": "nonpayable",
      "type": "function"
    },
    {
      "inputs": [
        {
          "internalType": "uint256",
          "name": "value",
          "type": "uint256"
        }
      ],
      "name": "setOptionCollaterizationRatio",
      "outputs": [],
      "stateMutability": "nonpayable",
      "type": "function"
    },
    {
      "inputs": [
        {
          "internalType": "contract IHegicStakingETH",
          "name": "recipient",
          "type": "address"
        }
      ],
      "name": "setSettlementFeeRecipient",
      "outputs": [],
      "stateMutability": "nonpayable",
      "type": "function"
    },
    {
      "inputs": [],
      "name": "settlementFeeRecipient",
      "outputs": [
        {
          "internalType": "contract IHegicStakingETH",
          "name": "",
          "type": "address"
        }
      ],
      "stateMutability": "view",
      "type": "function",
      "constant": true
    },
    {
      "inputs": [],
      "name": "stopMigrationProcess",
      "outputs": [],
      "stateMutability": "nonpayable",
      "type": "function"
    },
    {
      "inputs": [
        {
          "internalType": "uint256",
          "name": "optionID",
          "type": "uint256"
        },
        {
          "internalType": "address payable",
          "name": "newHolder",
          "type": "address"
        }
      ],
      "name": "transfer",
      "outputs": [],
      "stateMutability": "nonpayable",
      "type": "function"
    },
    {
      "inputs": [
        {
          "internalType": "address",
          "name": "newOwner",
          "type": "address"
        }
      ],
      "name": "transferOwnership",
      "outputs": [],
      "stateMutability": "nonpayable",
      "type": "function"
    },
    {
      "inputs": [],
      "name": "transferPoolOwnership",
      "outputs": [],
      "stateMutability": "nonpayable",
      "type": "function"
    },
    {
      "inputs": [
        {
          "internalType": "uint256",
          "name": "optionID",
          "type": "uint256"
        }
      ],
      "name": "unlock",
      "outputs": [],
      "stateMutability": "nonpayable",
      "type": "function"
    },
    {
      "inputs": [
        {
          "internalType": "uint256[]",
          "name": "optionIDs",
          "type": "uint256[]"
        }
      ],
      "name": "unlockAll",
      "outputs": [],
      "stateMutability": "nonpayable",
      "type": "function"
    }
  ],
  "bytecode": "0x608060405260646004556006805460ff191660011790553480156200002357600080fd5b50604051620044d6380380620044d6833981810160405260408110156200004957600080fd5b50805160209091015160405182908290620000649062000129565b604051809103906000f08015801562000081573d6000803e3d6000fd5b5060006200008e62000125565b600080546001600160a01b0319166001600160a01b0383169081178255604051929350917f8be0079c531659141344cd1fd0a4f28419497f9722a3daafe3b4186f6b6457e0908290a350600880546001600160a01b03199081166001600160a01b03938416179091556007805482169483169490941790935560018054909316911617905550506111946003554260055562000137565b3390565b61221580620022c183390190565b61217a80620001476000396000f3fe6080604052600436106101355760003560e01c80638da5cb5b116100ab578063c7c3b53f1161006f578063c7c3b53f146103d3578063ceaeeba914610438578063e2bef75414610462578063e342b5981461048c578063f2fde38b14610509578063ff20f1db1461053c57610135565b80638da5cb5b1461031357806396350a8514610328578063b07f0a411461035b578063b7760c8f14610385578063b888879e146103be57610135565b8063410fa5d9116100fd578063410fa5d91461024c578063454b0608146102635780636198e3391461028d578063715018a6146102b757806380478ad1146102cc5780638cf4e8f4146102fe57610135565b806316f0115b1461013a578063181731dc1461016b57806318f88e5b14610180578063302ce651146101a7578063409e2205146101bc575b600080fd5b34801561014657600080fd5b5061014f61056f565b604080516001600160a01b039092168252519081900360200190f35b34801561017757600080fd5b5061014f61057e565b34801561018c57600080fd5b5061019561058d565b60408051918252519081900360200190f35b3480156101b357600080fd5b50610195610593565b3480156101c857600080fd5b506101e6600480360360208110156101df57600080fd5b5035610599565b604051808960038111156101f657fe5b8152602001886001600160a01b0316815260200187815260200186815260200185815260200184815260200183815260200182600281111561023457fe5b81526020019850505050505050505060405180910390f35b34801561025857600080fd5b506102616105fb565b005b34801561026f57600080fd5b506102616004803603602081101561028657600080fd5b50356106d8565b34801561029957600080fd5b50610261600480360360208110156102b057600080fd5b5035610b0b565b3480156102c357600080fd5b50610261610c8a565b610195600480360360808110156102e257600080fd5b508035906020810135906040810135906060013560ff16610d2c565b34801561030a57600080fd5b506102616111cc565b34801561031f57600080fd5b5061014f611230565b34801561033457600080fd5b506102616004803603602081101561034b57600080fd5b50356001600160a01b031661123f565b34801561036757600080fd5b506102616004803603602081101561037e57600080fd5b50356112df565b34801561039157600080fd5b50610261600480360360408110156103a857600080fd5b50803590602001356001600160a01b0316611446565b3480156103ca57600080fd5b5061014f6115e6565b3480156103df57600080fd5b50610412600480360360808110156103f657600080fd5b508035906020810135906040810135906060013560ff166115f5565b604080519485526020850193909352838301919091526060830152519081900360800190f35b34801561044457600080fd5b506102616004803603602081101561045b57600080fd5b50356116c2565b34801561046e57600080fd5b506102616004803603602081101561048557600080fd5b5035611760565b34801561049857600080fd5b50610261600480360360208110156104af57600080fd5b8101906020810181356401000000008111156104ca57600080fd5b8201836020820111156104dc57600080fd5b803590602001918460208302840111640100000000831117156104fe57600080fd5b50909250905061180e565b34801561051557600080fd5b506102616004803603602081101561052c57600080fd5b50356001600160a01b031661183d565b34801561054857600080fd5b506102616004803603602081101561055f57600080fd5b50356001600160a01b0316611935565b6008546001600160a01b031681565b6001546001600160a01b031681565b60035481565b60045481565b600281815481106105a657fe5b6000918252602090912060079091020180546001820154600283015460038401546004850154600586015460069096015460ff80871698506101009096046001600160a01b0316969495939492939192911688565b6106036119d0565b6000546001600160a01b03908116911614610653576040805162461bcd60e51b81526020600482018190526024820152600080516020612104833981519152604482015290519081900360640190fd5b6005546212750001421061066657600080fd5b6008546001600160a01b031663f2fde38b61067f611230565b6040518263ffffffff1660e01b815260040180826001600160a01b03168152602001915050600060405180830381600087803b1580156106be57600080fd5b505af11580156106d2573d6000803e3d6000fd5b50505050565b6106e06119d0565b6000546001600160a01b03908116911614610730576040805162461bcd60e51b81526020600482018190526024820152600080516020612104833981519152604482015290519081900360640190fd5b60065460ff16610787576040805162461bcd60e51b815260206004820152601b60248201527f4d6967726174696f6e2050726f636573732077617320656e6465640000000000604482015290519081900360640190fd5b60085460408051638da5cb5b60e01b8152905130926001600160a01b031691638da5cb5b916004808301926020929190829003018186803b1580156107cb57600080fd5b505afa1580156107df573d6000803e3d6000fd5b505050506040513d60208110156107f557600080fd5b50516001600160a01b03161415610853576040805162461bcd60e51b815260206004820152601f60248201527f4c697175696469747920506f6f6c20616c726561647920617474616368656400604482015290519081900360640190fd5b60065461010090046001600160a01b031661086d57600080fd5b60005b81811015610b075760025461088361203b565b6006546040805163409e220560e01b81526004810185905290516001600160a01b0361010093849004169263409e22059260248082019391829003018186803b1580156108cf57600080fd5b505afa1580156108e3573d6000803e3d6000fd5b505050506040513d6101008110156108fa57600080fd5b50805160208083015160408085015160608087015160808089015160a0808b015160c0808d015160e09d8e01519c9d9a9c989b969a94999298909790968f969087019593870194918701939087019291870191870190870188600281111561095e57fe5b600281111561096957fe5b90528890528890528890528890528890526001600160a01b038916905288600381111561099257fe5b600381111561099d57fe5b815250505050505050505060006109b782606001516119d4565b6002805460018181018355600092909252845160079091027f405787fa12a823e0f2b7631cc41b3ba8828b3321ca811111fa75cd3aa3bb5ace01805493945085939092839160ff191690836003811115610a0d57fe5b021790555060208201518160000160016101000a8154816001600160a01b0302191690836001600160a01b0316021790555060408201518160010155606082015181600201556080820151816003015560a0820151816004015560c0820151816005015560e08201518160060160006101000a81548160ff02191690836002811115610a9557fe5b0217905550505081602001516001600160a01b0316837f9acccf962da4ed9c3db3a1beedb70b0d4c3f6a69c170baca7198a74548b5ef4e83610ae4858760a001516119db90919063ffffffff16565b6040805192835260208301919091528051918290030190a3505050600101610870565b5050565b600060028281548110610b1a57fe5b9060005260206000209060070201905042816005015410610b82576040805162461bcd60e51b815260206004820152601a60248201527f4f7074696f6e20686173206e6f74206578706972656420796574000000000000604482015290519081900360640190fd5b6001815460ff166003811115610b9457fe5b14610bdd576040805162461bcd60e51b81526020600482015260146024820152734f7074696f6e206973206e6f742061637469766560601b604482015290519081900360640190fd5b805460ff1916600317815560085460408051636198e33960e01b81526004810185905290516001600160a01b0390921691636198e3399160248082019260009290919082900301818387803b158015610c3557600080fd5b505af1158015610c49573d6000803e3d6000fd5b505050600482015460408051918252518492507f5f36a4a575e512eb69d6d28c3b0ff98cca7ba50ad5bf04e14094ad1d425e0d319181900360200190a25050565b610c926119d0565b6000546001600160a01b03908116911614610ce2576040805162461bcd60e51b81526020600482018190526024820152600080516020612104833981519152604482015290519081900360640190fd5b600080546040516001600160a01b03909116907f8be0079c531659141344cd1fd0a4f28419497f9722a3daafe3b4186f6b6457e0908390a3600080546001600160a01b0319169055565b600080600080610d3e888888886115f5565b50919450925090506002856002811115610d5457fe5b1480610d6b57506001856002811115610d6957fe5b145b610db0576040805162461bcd60e51b815260206004820152601160248201527057726f6e67206f7074696f6e207479706560781b604482015290519081900360640190fd5b62015180881015610dfe576040805162461bcd60e51b815260206004820152601360248201527214195c9a5bd9081a5cc81d1bdbc81cda1bdc9d606a1b604482015290519081900360640190fd5b6224ea00881115610e4b576040805162461bcd60e51b8152602060048201526012602482015271506572696f6420697320746f6f206c6f6e6760701b604482015290519081900360640190fd5b808711610e9f576040805162461bcd60e51b815260206004820152601d60248201527f507269636520646966666572656e636520697320746f6f206c61726765000000604482015290519081900360640190fd5b82341015610ee2576040805162461bcd60e51b815260206004820152600b60248201526a57726f6e672076616c756560a81b604482015290519081900360640190fd5b82341115610f1b5760405133903485900380156108fc02916000818181858888f19350505050158015610f19573d6000803e3d6000fd5b505b6000610f278883611a3e565b60025495509050610f3661203b565b6040805161010081019091528060018152602001336001600160a01b031681526020018981526020018a8152602001610f8f85610f896064610f8360045489611a8090919063ffffffff16565b90611ad9565b906119db565b8152602001610f9e8787611a3e565b81526020018b42018152602001886002811115610fb757fe5b90526002805460018181018355600092909252825160079091027f405787fa12a823e0f2b7631cc41b3ba8828b3321ca811111fa75cd3aa3bb5ace01805493945084939092839160ff19169083600381111561100f57fe5b021790555060208201518160000160016101000a8154816001600160a01b0302191690836001600160a01b0316021790555060408201518160010155606082015181600201556080820151816003015560a0820151816004015560c0820151816005015560e08201518160060160006101000a81548160ff0219169083600281111561109757fe5b02179055505050600160009054906101000a90046001600160a01b03166001600160a01b0316634d8e9425856040518263ffffffff1660e01b81526004016000604051808303818588803b1580156110ee57600080fd5b505af1158015611102573d6000803e3d6000fd5b505060085460a0850151608086015160408051631338736f60e01b8152600481018e90526024810192909252516001600160a01b039093169550631338736f945090925060448082019260009290919082900301818588803b15801561116757600080fd5b505af115801561117b573d6000803e3d6000fd5b505060408051888152602081018a905281513395508b94507f9acccf962da4ed9c3db3a1beedb70b0d4c3f6a69c170baca7198a74548b5ef4e93509081900390910190a35050505050949350505050565b6111d46119d0565b6000546001600160a01b03908116911614611224576040805162461bcd60e51b81526020600482018190526024820152600080516020612104833981519152604482015290519081900360640190fd5b6006805460ff19169055565b6000546001600160a01b031690565b6112476119d0565b6000546001600160a01b03908116911614611297576040805162461bcd60e51b81526020600482018190526024820152600080516020612104833981519152604482015290519081900360640190fd5b600554621275000142106112aa57600080fd5b6001600160a01b0381166112bd57600080fd5b600180546001600160a01b0319166001600160a01b0392909216919091179055565b6000600282815481106112ee57fe5b90600052602060002090600702019050428160050154101561134c576040805162461bcd60e51b815260206004820152601260248201527113dc1d1a5bdb881a185cc8195e1c1a5c995960721b604482015290519081900360640190fd5b805461010090046001600160a01b031633146113a2576040805162461bcd60e51b815260206004820152601060248201526f2bb937b7339036b9b39739b2b73232b960811b604482015290519081900360640190fd5b6001815460ff1660038111156113b457fe5b146113f4576040805162461bcd60e51b815260206004820152600b60248201526a57726f6e6720737461746560a81b604482015290519081900360640190fd5b805460ff19166002178155600061140a83611b1b565b60408051828152905191925084917e84fe51c7cb34b132b7b6eb5d5a87a489f8d6d284758d00a0402c1bad9a0def9181900360200190a2505050565b60006002838154811061145557fe5b9060005260206000209060070201905060006001600160a01b0316826001600160a01b031614156114cd576040805162461bcd60e51b815260206004820152601a60248201527f6e657720686f6c6465722061646472657373206973207a65726f000000000000604482015290519081900360640190fd5b428160050154101561151b576040805162461bcd60e51b815260206004820152601260248201527113dc1d1a5bdb881a185cc8195e1c1a5c995960721b604482015290519081900360640190fd5b805461010090046001600160a01b03163314611571576040805162461bcd60e51b815260206004820152601060248201526f2bb937b7339036b9b39739b2b73232b960811b604482015290519081900360640190fd5b6001815460ff16600381111561158357fe5b146115bf5760405162461bcd60e51b81526004018080602001828103825260288152602001806120956028913960400191505060405180910390fd5b80546001600160a01b0390921661010002610100600160a81b031990921691909117905550565b6007546001600160a01b031681565b6000806000806000600760009054906101000a90046001600160a01b03166001600160a01b031663feaf968c6040518163ffffffff1660e01b815260040160a06040518083038186803b15801561164b57600080fd5b505afa15801561165f573d6000803e3d6000fd5b505050506040513d60a081101561167557600080fd5b5060200151905080611686896119d4565b9450611695898b8a848b611e15565b92506116a38989838a611e86565b93506116b385610f8985876119db565b95505050945094509450949050565b6116ca6119d0565b6000546001600160a01b0390811691161461171a576040805162461bcd60e51b81526020600482018190526024820152600080516020612104833981519152604482015290519081900360640190fd5b6103e881101561175b5760405162461bcd60e51b81526004018080602001828103825260218152602001806121246021913960400191505060405180910390fd5b600355565b6117686119d0565b6000546001600160a01b039081169116146117b8576040805162461bcd60e51b81526020600482018190526024820152600080516020612104833981519152604482015290519081900360640190fd5b806032111580156117ca575060648111155b611809576040805162461bcd60e51b815260206004820152600b60248201526a77726f6e672076616c756560a81b604482015290519081900360640190fd5b600455565b8060005b818110156106d25761183584848381811061182957fe5b90506020020135610b0b565b600101611812565b6118456119d0565b6000546001600160a01b03908116911614611895576040805162461bcd60e51b81526020600482018190526024820152600080516020612104833981519152604482015290519081900360640190fd5b6001600160a01b0381166118da5760405162461bcd60e51b81526004018080602001828103825260268152602001806120bd6026913960400191505060405180910390fd5b600080546040516001600160a01b03808516939216917f8be0079c531659141344cd1fd0a4f28419497f9722a3daafe3b4186f6b6457e091a3600080546001600160a01b0319166001600160a01b0392909216919091179055565b61193d6119d0565b6000546001600160a01b0390811691161461198d576040805162461bcd60e51b81526020600482018190526024820152600080516020612104833981519152604482015290519081900360640190fd5b60065461010090046001600160a01b0316156119a857600080fd5b600680546001600160a01b0390921661010002610100600160a81b0319909216919091179055565b3390565b6064900490565b600082820183811015611a35576040805162461bcd60e51b815260206004820152601b60248201527f536166654d6174683a206164646974696f6e206f766572666c6f770000000000604482015290519081900360640190fd5b90505b92915050565b6000611a3583836040518060400160405280601e81526020017f536166654d6174683a207375627472616374696f6e206f766572666c6f770000815250611efd565b600082611a8f57506000611a38565b82820282848281611a9c57fe5b0414611a355760405162461bcd60e51b81526004018080602001828103825260218152602001806120e36021913960400191505060405180910390fd5b6000611a3583836040518060400160405280601a81526020017f536166654d6174683a206469766973696f6e206279207a65726f000000000000815250611f94565b6000611b2561203b565b60028381548110611b3257fe5b600091825260209091206040805161010081019091526007909202018054829060ff166003811115611b6057fe5b6003811115611b6b57fe5b8152815461010090046001600160a01b0316602082015260018201546040820152600280830154606083015260038301546080830152600483015460a0830152600583015460c0830152600683015460e09092019160ff1690811115611bcd57fe5b6002811115611bd857fe5b8152505090506000600760009054906101000a90046001600160a01b03166001600160a01b031663feaf968c6040518163ffffffff1660e01b815260040160a06040518083038186803b158015611c2e57600080fd5b505afa158015611c42573d6000803e3d6000fd5b505050506040513d60a0811015611c5857600080fd5b506020015190508060028360e001516002811115611c7257fe5b1415611d01578083604001511115611cd1576040805162461bcd60e51b815260206004820152601860248201527f43757272656e7420707269636520697320746f6f206c6f770000000000000000604482015290519081900360640190fd5b611cfa81610f838560600151611cf4876040015186611a3e90919063ffffffff16565b90611a80565b9350611d80565b8083604001511015611d5a576040805162461bcd60e51b815260206004820152601960248201527f43757272656e7420707269636520697320746f6f206869676800000000000000604482015290519081900360640190fd5b611d7d81610f838560600151611cf4858860400151611a3e90919063ffffffff16565b93505b8260800151841115611d9457826080015193505b6008546020840151604080516381b34f1560e01b8152600481018990526001600160a01b03928316602482015260448101889052905191909216916381b34f1591606480830192600092919082900301818387803b158015611df557600080fd5b505af1158015611e09573d6000803e3d6000fd5b50505050505050919050565b60006001826002811115611e2557fe5b1415611e5b57611e546305f5e100610f8385610f8388611cf4600354611cf4611e4d8e611ff9565b8f90611a80565b9050611e7d565b611e546305f5e100610f8386610f8387611cf4600354611cf4611e4d8e611ff9565b95945050505050565b60008284118015611ea257506001826002811115611ea057fe5b145b15611ec057611eb983610f8387611cf48884611a3e565b9050611ef5565b8284108015611eda57506002826002811115611ed857fe5b145b15611ef157611eb983610f8387611cf48389611a3e565b5060005b949350505050565b60008184841115611f8c5760405162461bcd60e51b81526004018080602001828103825283818151815260200191508051906020019080838360005b83811015611f51578181015183820152602001611f39565b50505050905090810190601f168015611f7e5780820380516001836020036101000a031916815260200191505b509250505060405180910390fd5b505050900390565b60008183611fe35760405162461bcd60e51b8152602060048201818152835160248401528351909283926044909101919085019080838360008315611f51578181015183820152602001611f39565b506000838581611fef57fe5b0495945050505050565b80600061200c6001610f89846002611ad9565b90505b81811015612035578061202b6002610f8383610f898882611ad9565b909250905061200f565b50919050565b604080516101008101909152806000815260200160006001600160a01b0316815260200160008152602001600081526020016000815260200160008152602001600081526020016000600281111561208f57fe5b90529056fe4f6e6c7920616374697665206f7074696f6e7320636f756c64206265207472616e736665727265644f776e61626c653a206e6577206f776e657220697320746865207a65726f2061646472657373536166654d6174683a206d756c7469706c69636174696f6e206f766572666c6f774f776e61626c653a2063616c6c6572206973206e6f7420746865206f776e6572496d706c696564566f6c52617465206c696d697420697320746f6f20736d616c6ca264697066735822122016087735330e2ac6ab097be4de989adce49d05790a7154d1786092f1b339ee1164736f6c634300060c00336080604052621275006007553480156200001857600080fd5b50604051806040016040528060128152602001712432b3b4b19022aa24102628102a37b5b2b760711b815250604051806040016040528060088152602001670eee4d2e8ca8aa8960c31b8152506000620000776200010260201b60201c565b600080546001600160a01b0319166001600160a01b0383169081178255604051929350917f8be0079c531659141344cd1fd0a4f28419497f9722a3daafe3b4186f6b6457e0908290a3508151620000d690600490602085019062000106565b508051620000ec90600590602084019062000106565b50506006805460ff1916601217905550620001a2565b3390565b828054600181600116156101000203166002900490600052602060002090601f016020900481019282601f106200014957805160ff191683800117855562000179565b8280016001018555821562000179579182015b82811115620001795782518255916020019190600101906200015c565b50620001879291506200018b565b5090565b5b808211156200018757600081556001016200018c565b61206380620001b26000396000f3fe6080604052600436106101d85760003560e01c80636ab28bc811610102578063a457c2d711610095578063c771c39011610064578063c771c390146106d5578063dd62ed3e146106ff578063ee947a7c1461073a578063f2fde38b1461074f576101d8565b8063a457c2d714610639578063a9059cbb14610672578063ab2f0e51146106ab578063ad7a672f146106c0576101d8565b80637d4b1130116100d15780637d4b11301461058157806381b34f15146105b45780638da5cb5b146105f357806395d89b4114610624576101d8565b80636ab28bc81461050f57806370a0823114610524578063715018a614610557578063797be55e1461056c576101d8565b80632e2ebe061161017a5780633f40406c116101495780633f40406c1461046d578063441a3e70146104a05780634dbac733146104d05780636198e339146104e5576101d8565b80632e2ebe06146103a2578063313ce567146103bf5780633755269b146103ea5780633950935114610434576101d8565b806318160ddd116101b657806318160ddd146102d957806321e5e2c41461030057806323b872dd146103335780632ba5917514610376576101d8565b806306fdde03146101dd578063095ea7b3146102675780631338736f146102b4575b600080fd5b3480156101e957600080fd5b506101f2610782565b6040805160208082528351818301528351919283929083019185019080838360005b8381101561022c578181015183820152602001610214565b50505050905090810190601f1680156102595780820380516001836020036101000a031916815260200191505b509250505060405180910390f35b34801561027357600080fd5b506102a06004803603604081101561028a57600080fd5b506001600160a01b038135169060200135610818565b604080519115158252519081900360200190f35b6102d7600480360360408110156102ca57600080fd5b5080359060200135610836565b005b3480156102e557600080fd5b506102ee610a2c565b60408051918252519081900360200190f35b34801561030c57600080fd5b506102ee6004803603602081101561032357600080fd5b50356001600160a01b0316610a32565b34801561033f57600080fd5b506102a06004803603606081101561035657600080fd5b506001600160a01b03813581169160208101359091169060400135610a78565b34801561038257600080fd5b506102d76004803603602081101561039957600080fd5b50351515610aff565b6102ee600480360360208110156103b857600080fd5b5035610b1f565b3480156103cb57600080fd5b506103d4610c7b565b6040805160ff9092168252519081900360200190f35b3480156103f657600080fd5b506104146004803603602081101561040d57600080fd5b5035610c84565b604080519384526020840192909252151582820152519081900360600190f35b34801561044057600080fd5b506102a06004803603604081101561045757600080fd5b506001600160a01b038135169060200135610cb7565b34801561047957600080fd5b506102a06004803603602081101561049057600080fd5b50356001600160a01b0316610d05565b3480156104ac57600080fd5b506102ee600480360360408110156104c357600080fd5b5080359060200135610d1a565b3480156104dc57600080fd5b506102ee610f72565b3480156104f157600080fd5b506102d76004803603602081101561050857600080fd5b5035610f78565b34801561051b57600080fd5b506102ee6110a4565b34801561053057600080fd5b506102ee6004803603602081101561054757600080fd5b50356001600160a01b03166110aa565b34801561056357600080fd5b506102d76110c5565b34801561057857600080fd5b506102ee611167565b34801561058d57600080fd5b506102ee600480360360208110156105a457600080fd5b50356001600160a01b031661116d565b3480156105c057600080fd5b506102d7600480360360608110156105d757600080fd5b508035906001600160a01b03602082013516906040013561117f565b3480156105ff57600080fd5b50610608611360565b604080516001600160a01b039092168252519081900360200190f35b34801561063057600080fd5b506101f261136f565b34801561064557600080fd5b506102a06004803603604081101561065c57600080fd5b506001600160a01b0381351690602001356113d0565b34801561067e57600080fd5b506102a06004803603604081101561069557600080fd5b506001600160a01b038135169060200135611438565b3480156106b757600080fd5b506102ee61144c565b3480156106cc57600080fd5b506102ee611461565b3480156106e157600080fd5b506102d7600480360360208110156106f857600080fd5b5035611478565b34801561070b57600080fd5b506102ee6004803603604081101561072257600080fd5b506001600160a01b038135811691602001351661152d565b34801561074657600080fd5b506102ee611558565b34801561075b57600080fd5b506102d76004803603602081101561077257600080fd5b50356001600160a01b031661155e565b60048054604080516020601f600260001961010060018816150201909516949094049384018190048102820181019092528281526060939092909183018282801561080e5780601f106107e35761010080835404028352916020019161080e565b820191906000526020600020905b8154815290600101906020018083116107f157829003601f168201915b5050505050905090565b600061082c610825611656565b848461165a565b5060015b92915050565b61083e611656565b6000546001600160a01b0390811691161461088e576040805162461bcd60e51b81526020600482018190526024820152600080516020611f54833981519152604482015290519081900360640190fd5b600c5482146108cf576040805162461bcd60e51b815260206004820152600860248201526715dc9bdb99c81a5960c21b604482015290519081900360640190fd5b6108ec60086108e6346108e0611461565b90611746565b9061178f565b610906600a6108e6846008546117e890919063ffffffff16565b1115610959576040805162461bcd60e51b815260206004820181905260248201527f506f6f6c204572726f723a20416d6f756e7420697320746f6f206c617267652e604482015290519081900360640190fd5b6040805160608101825282815234602082018181526001938301848152600c8054958601815560005292517fdf6966c971051c3d54ec59162606531493a51404a002842f56009d7e5cf4a8c7600390950294850155517fdf6966c971051c3d54ec59162606531493a51404a002842f56009d7e5cf4a8c884015590517fdf6966c971051c3d54ec59162606531493a51404a002842f56009d7e5cf4a8c9909201805460ff191692151592909217909155600954610a15916117e8565b600955600854610a2590826117e8565b6008555050565b60035490565b600080610a3d610a2c565b1115610a6f57610a68610a4e610a2c565b610a62610a5a856110aa565b6108e6611461565b90611842565b9050610a73565b5060005b919050565b6000610a85848484611884565b610af584610a91611656565b610af085604051806060016040528060288152602001611f2c602891396001600160a01b038a16600090815260026020526040812090610acf611656565b6001600160a01b0316815260208101919091526040016000205491906119e1565b61165a565b5060019392505050565b336000908152600b60205260409020805460ff1916911515919091179055565b336000908152600a6020526040812042905580610b3a610a2c565b90506000610b46611461565b9050600082118015610b585750600081115b15610b7b57610b74610b6a8234611746565b610a62348561178f565b9250610b8a565b610b87346103e861178f565b92505b83831015610bdf576040805162461bcd60e51b815260206004820152601d60248201527f506f6f6c3a204d696e74206c696d697420697320746f6f206c61726765000000604482015290519081900360640190fd5b60008311610c30576040805162461bcd60e51b8152602060048201526019602482015278141bdbdb0e88105b5bdd5b9d081a5cc81d1bdbc81cdb585b1b603a1b604482015290519081900360640190fd5b610c3a3384611a78565b6040805134815260208101859052815133927f4089141ea5e4c16575f5ebf65f1786497ea07c175846fc7745ef8d8986a4ff65928290030190a25050919050565b60065460ff1690565b600c8181548110610c9157fe5b600091825260209091206003909102018054600182015460029092015490925060ff1683565b600061082c610cc4611656565b84610af08560026000610cd5611656565b6001600160a01b03908116825260208083019390935260409182016000908120918c1681529252902054906117e8565b600b6020526000908152604090205460ff1681565b600754336000908152600a602052604081205490914291610d3a916117e8565b1115610d8d576040805162461bcd60e51b815260206004820152601d60248201527f506f6f6c3a205769746864726177616c206973206c6f636b6564207570000000604482015290519081900360640190fd5b610d9561144c565b831115610dd35760405162461bcd60e51b815260040180806020018281038252604b815260200180611dff604b913960600191505060405180910390fd5b610df5610de8610de1610a2c565b859061178f565b610df0611461565b611b6a565b905081811115610e4c576040805162461bcd60e51b815260206004820152601d60248201527f506f6f6c3a204275726e206c696d697420697320746f6f20736d616c6c000000604482015290519081900360640190fd5b610e55336110aa565b811115610ea9576040805162461bcd60e51b815260206004820152601960248201527f506f6f6c3a20416d6f756e7420697320746f6f206c6172676500000000000000604482015290519081900360640190fd5b60008111610efa576040805162461bcd60e51b8152602060048201526019602482015278141bdbdb0e88105b5bdd5b9d081a5cc81d1bdbc81cdb585b1b603a1b604482015290519081900360640190fd5b610f043382611b9f565b6040805184815260208101839052815133927ff279e6a1f5e320cca91135676d9cb6e44ca8a08c0b88342bcdb1144f6511b568928290030190a2604051339084156108fc029085906000818181858888f19350505050158015610f6b573d6000803e3d6000fd5b5092915050565b6103e881565b610f80611656565b6000546001600160a01b03908116911614610fd0576040805162461bcd60e51b81526020600482018190526024820152600080516020611f54833981519152604482015290519081900360640190fd5b6000600c8281548110610fdf57fe5b60009182526020909120600390910201600281015490915060ff166110355760405162461bcd60e51b8152600401808060200182810382526031815260200180611e4a6031913960400191505060405180910390fd5b60028101805460ff19169055600181015460095461105291611746565b600955805460085461106391611746565b6008556001810154604080519182525183917f9f78baa7a8e3640efadcbedc2d00f5930ade7a7bb66038dbf88684d49972957a919081900360200190a25050565b60085481565b6001600160a01b031660009081526001602052604090205490565b6110cd611656565b6000546001600160a01b0390811691161461111d576040805162461bcd60e51b81526020600482018190526024820152600080516020611f54833981519152604482015290519081900360640190fd5b600080546040516001600160a01b03909116907f8be0079c531659141344cd1fd0a4f28419497f9722a3daafe3b4186f6b6457e0908390a3600080546001600160a01b0319169055565b60095481565b600a6020526000908152604090205481565b611187611656565b6000546001600160a01b039081169116146111d7576040805162461bcd60e51b81526020600482018190526024820152600080516020611f54833981519152604482015290519081900360640190fd5b6000600c84815481106111e657fe5b60009182526020909120600390910201600281015490915060ff1661123c5760405162461bcd60e51b8152600401808060200182810382526031815260200180611e4a6031913960400191505060405180910390fd5b6001600160a01b03831661124f57600080fd5b60028101805460ff19169055600181015460095461126c91611746565b600955805460085461127d91611746565b600855805460009083116112915782611294565b81545b6040519091506001600160a01b0385169082156108fc029083906000818181858888f193505050501580156112cd573d6000803e3d6000fd5b508160010154811161131c57847f9f78baa7a8e3640efadcbedc2d00f5930ade7a7bb66038dbf88684d49972957a828460010154036040518082815260200191505060405180910390a2611359565b60018201546040805191830382525186917f86f83f021a5ecb92d6dcaec11be9da0e65b5401ce748ac3c1f0ddbae029f55ce919081900360200190a25b5050505050565b6000546001600160a01b031690565b60058054604080516020601f600260001961010060018816150201909516949094049384018190048102820181019092528281526060939092909183018282801561080e5780601f106107e35761010080835404028352916020019161080e565b600061082c6113dd611656565b84610af0856040518060600160405280602581526020016120096025913960026000611407611656565b6001600160a01b03908116825260208083019390935260409182016000908120918d168152925290205491906119e1565b600061082c611445611656565b8484611884565b600061145c6008546108e0611461565b905090565b600061145c6009544761174690919063ffffffff16565b611480611656565b6000546001600160a01b039081169116146114d0576040805162461bcd60e51b81526020600482018190526024820152600080516020611f54833981519152604482015290519081900360640190fd5b624f1a00811115611528576040805162461bcd60e51b815260206004820152601a60248201527f4c6f636b757020706572696f6420697320746f6f206c61726765000000000000604482015290519081900360640190fd5b600755565b6001600160a01b03918216600090815260026020908152604080832093909416825291909152205490565b60075481565b611566611656565b6000546001600160a01b039081169116146115b6576040805162461bcd60e51b81526020600482018190526024820152600080516020611f54833981519152604482015290519081900360640190fd5b6001600160a01b0381166115fb5760405162461bcd60e51b8152600401808060200182810382526026815260200180611e9d6026913960400191505060405180910390fd5b600080546040516001600160a01b03808516939216917f8be0079c531659141344cd1fd0a4f28419497f9722a3daafe3b4186f6b6457e091a3600080546001600160a01b0319166001600160a01b0392909216919091179055565b3390565b6001600160a01b03831661169f5760405162461bcd60e51b8152600401808060200182810382526024815260200180611fe56024913960400191505060405180910390fd5b6001600160a01b0382166116e45760405162461bcd60e51b8152600401808060200182810382526022815260200180611ec36022913960400191505060405180910390fd5b6001600160a01b03808416600081815260026020908152604080832094871680845294825291829020859055815185815291517f8c5be1e5ebec7d5bd14f71427d1e84f3dd0314c0f7b2291e5b200ac8c7c3b9259281900390910190a3505050565b600061178883836040518060400160405280601e81526020017f536166654d6174683a207375627472616374696f6e206f766572666c6f7700008152506119e1565b9392505050565b60008261179e57506000610830565b828202828482816117ab57fe5b04146117885760405162461bcd60e51b8152600401808060200182810382526021815260200180611f0b6021913960400191505060405180910390fd5b600082820183811015611788576040805162461bcd60e51b815260206004820152601b60248201527f536166654d6174683a206164646974696f6e206f766572666c6f770000000000604482015290519081900360640190fd5b600061178883836040518060400160405280601a81526020017f536166654d6174683a206469766973696f6e206279207a65726f000000000000815250611c9b565b6001600160a01b0383166118c95760405162461bcd60e51b8152600401808060200182810382526025815260200180611fc06025913960400191505060405180910390fd5b6001600160a01b03821661190e5760405162461bcd60e51b8152600401808060200182810382526023815260200180611ddc6023913960400191505060405180910390fd5b611919838383611d00565b61195681604051806060016040528060268152602001611ee5602691396001600160a01b03861660009081526001602052604090205491906119e1565b6001600160a01b03808516600090815260016020526040808220939093559084168152205461198590826117e8565b6001600160a01b0380841660008181526001602090815260409182902094909455805185815290519193928716927fddf252ad1be2c89b69c2b068fc378daa952ba7f163c4a11628f55a4df523b3ef92918290030190a3505050565b60008184841115611a705760405162461bcd60e51b81526004018080602001828103825283818151815260200191508051906020019080838360005b83811015611a35578181015183820152602001611a1d565b50505050905090810190601f168015611a625780820380516001836020036101000a031916815260200191505b509250505060405180910390fd5b505050900390565b6001600160a01b038216611ad3576040805162461bcd60e51b815260206004820152601f60248201527f45524332303a206d696e7420746f20746865207a65726f206164647265737300604482015290519081900360640190fd5b611adf60008383611d00565b600354611aec90826117e8565b6003556001600160a01b038216600090815260016020526040902054611b1290826117e8565b6001600160a01b03831660008181526001602090815260408083209490945583518581529351929391927fddf252ad1be2c89b69c2b068fc378daa952ba7f163c4a11628f55a4df523b3ef9281900390910190a35050565b6000808211611b7857600080fd5b6000828481611b8357fe5b049050828481611b8f57fe5b0615611788576001019392505050565b6001600160a01b038216611be45760405162461bcd60e51b8152600401808060200182810382526021815260200180611f746021913960400191505060405180910390fd5b611bf082600083611d00565b611c2d81604051806060016040528060228152602001611e7b602291396001600160a01b03851660009081526001602052604090205491906119e1565b6001600160a01b038316600090815260016020526040902055600354611c539082611746565b6003556040805182815290516000916001600160a01b038516917fddf252ad1be2c89b69c2b068fc378daa952ba7f163c4a11628f55a4df523b3ef9181900360200190a35050565b60008183611cea5760405162461bcd60e51b8152602060048201818152835160248401528351909283926044909101919085019080838360008315611a35578181015183820152602001611a1d565b506000838581611cf657fe5b0495945050505050565b6007546001600160a01b0384166000908152600a60205260409020544291611d2891906117e8565b118015611d5557506001600160a01b038083166000908152600a6020526040808220549286168252902054115b15611dd6576001600160a01b0382166000908152600b602052604090205460ff1615611db25760405162461bcd60e51b815260040180806020018281038252602b815260200180611f95602b913960400191505060405180910390fd5b6001600160a01b038084166000908152600a60205260408082205492851682529020555b50505056fe45524332303a207472616e7366657220746f20746865207a65726f2061646472657373506f6f6c204572726f723a204e6f7420656e6f7567682066756e6473206f6e2074686520706f6f6c20636f6e74726163742e20506c65617365206c6f7765722074686520616d6f756e742e4c6f636b65644c6971756964697479207769746820737563682069642068617320616c726561647920756e6c6f636b656445524332303a206275726e20616d6f756e7420657863656564732062616c616e63654f776e61626c653a206e6577206f776e657220697320746865207a65726f206164647265737345524332303a20617070726f766520746f20746865207a65726f206164647265737345524332303a207472616e7366657220616d6f756e7420657863656564732062616c616e6365536166654d6174683a206d756c7469706c69636174696f6e206f766572666c6f7745524332303a207472616e7366657220616d6f756e74206578636565647320616c6c6f77616e63654f776e61626c653a2063616c6c6572206973206e6f7420746865206f776e657245524332303a206275726e2066726f6d20746865207a65726f206164647265737374686520726563697069656e7420646f6573206e6f742061636365707420626c6f636b65642066756e647345524332303a207472616e736665722066726f6d20746865207a65726f206164647265737345524332303a20617070726f76652066726f6d20746865207a65726f206164647265737345524332303a2064656372656173656420616c6c6f77616e63652062656c6f77207a65726fa2646970667358221220247eb81f294996a63730cc3f1e7e8bc7d557aa69e52263b70093d6e2557b710164736f6c634300060c0033",
  "immutableReferences": {},
  "source": "pragma solidity 0.6.12;\n\n/**\n * SPDX-License-Identifier: GPL-3.0-or-later\n * Hegic\n * Copyright (C) 2020 Hegic\n *\n * This program is free software: you can redistribute it and/or modify\n * it under the terms of the GNU General Public License as published by\n * the Free Software Foundation, either version 3 of the License, or\n * (at your option) any later version.\n *\n * This program is distributed in the hope that it will be useful,\n * but WITHOUT ANY WARRANTY; without even the implied warranty of\n * MERCHANTABILITY or FITNESS FOR A PARTICULAR PURPOSE.  See the\n * GNU General Public License for more details.\n *\n * You should have received a copy of the GNU General Public License\n * along with this program.  If not, see <http://www.gnu.org/licenses/>.\n */\nimport \"./Interfaces/Interfaces.sol\";\nimport \"./Rewards/Synthetix/StakingRewards.sol\";\nimport \"./Options/HegicETHOptions.sol\";\n\ncontract FakeExchange {\n    uint256 public exchangeRate;\n    FakeWBTC public token;\n    address public WETH = address(this);\n\n    constructor(FakeWBTC t, uint _exchangeRate) public {\n        token = t;\n        exchangeRate = _exchangeRate;\n    }\n\n    function swapETHForExactTokens(uint amountOut, address[] calldata path, address to, uint)\n        external\n        payable\n        returns (uint[] memory amounts)\n    {\n        uint amountIn = getAmountsIn(amountOut, path)[0];\n        require(msg.value >= amountIn, \"Fake Uniswap: value is too small\");\n        amounts = new uint[](1);\n        amounts[0] = msg.value;\n\n        token.mintTo(to, amountOut);\n    }\n\n    function getAmountsIn(uint amountOut, address[] memory)\n        public\n        view\n        returns (uint[] memory amounts)\n    {\n        amounts = new uint[](1);\n        amounts[0] = amountOut * exchangeRate / 1e18;\n    }\n}\n\n\ncontract FakePriceProvider is AggregatorV3Interface {\n    uint256 public price;\n    uint8 public override decimals = 8;\n    string public override description = \"Test implementatiln\";\n    uint256 public override version = 0;\n\n    constructor(uint256 _price) public {\n        price = _price;\n    }\n\n    function setPrice(uint256 _price) external {\n        price = _price;\n    }\n\n    function getRoundData(uint80) external override view returns (uint80, int256, uint256, uint256, uint80) {\n        revert(\"Test implementation\");\n    }\n\n    function latestAnswer() external view returns(int result) {\n        (, result, , , ) = latestRoundData();\n    }\n\n    function latestRoundData()\n        public\n        override\n        view\n        returns (\n            uint80,\n            int256 answer,\n            uint256,\n            uint256,\n            uint80\n        )\n    {\n        answer = int(price);\n    }\n}\n\n\ncontract FakeBTCPriceProvider is FakePriceProvider {\n    constructor(uint price) public FakePriceProvider(price) {}\n}\n\n\ncontract FakeWBTC is ERC20(\"FakeWBTC\", \"FAKE\") {\n    constructor() public {\n        _setupDecimals(8);\n    }\n\n    function mintTo(address account, uint256 amount) public {\n        _mint(account, amount);\n    }\n\n    function mint(uint256 amount) public {\n        _mint(msg.sender, amount);\n    }\n}\n\n\ncontract FakeHEGIC is ERC20(\"FakeHEGIC\", \"FAKEH\") {\n    function mintTo(address account, uint256 amount) public {\n        _mint(account, amount);\n    }\n\n    function mint(uint256 amount) public {\n        _mint(msg.sender, amount);\n    }\n}\n\n\ncontract ETHStakingRewards is StakingRewards {\n    constructor(\n        address _owner,\n        address _rewardsDistribution,\n        address _rewardsToken,\n        address _stakingToken\n    ) public StakingRewards(_owner, _rewardsDistribution, _rewardsToken, _stakingToken) {}\n}\n\n\ncontract WBTCStakingRewards is StakingRewards {\n    constructor(\n        address _owner,\n        address _rewardsDistribution,\n        address _rewardsToken,\n        address _stakingToken\n    ) public StakingRewards(_owner, _rewardsDistribution, _rewardsToken, _stakingToken) {}\n}\n\n\ncontract BrokenETHOptions is HegicETHOptions {\n    constructor(AggregatorV3Interface pp, IHegicStakingETH staking)\n        public HegicETHOptions(pp, staking, new HegicETHPool())\n    {\n\n    }\n}\n",
  "sourcePath": "/root/contracts-v888/contracts/TestImplementations.sol",
  "compiler": {
    "name": "solc",
    "version": "0.6.12+commit.27d51765.Emscripten.clang"
  },
  "schemaVersion": "3.3.2",
  "updatedAt": "2020-12-09T12:09:27.516Z",
  "networkType": "ethereum",
  "devdoc": {
    "kind": "dev",
    "methods": {
      "create(uint256,uint256,uint256,uint8)": {
        "params": {
          "amount": "Option amount",
          "optionType": "Call or Put option type",
          "period": "Option period in seconds (1 days <= period <= 4 weeks)",
          "strike": "Strike price of the option"
        },
        "returns": {
          "optionID": "Created option's ID"
        }
      },
      "exercise(uint256)": {
        "params": {
          "optionID": "ID of your option"
        }
      },
      "fees(uint256,uint256,uint256,uint8)": {
        "params": {
          "amount": "Option amount",
          "period": "Option period in seconds (1 days <= period <= 4 weeks)",
          "strike": "Strike price of the option"
        },
        "returns": {
          "periodFee": "Option period fee amount",
          "settlementFee": "Amount to be distributed to the HEGIC token holders",
          "strikeFee": "Amount that covers the price difference in the ITM options",
          "total": "Total price to be paid"
        }
      },
      "owner()": {
        "details": "Returns the address of the current owner."
      },
      "renounceOwnership()": {
        "details": "Leaves the contract without owner. It will not be possible to call `onlyOwner` functions anymore. Can only be called by the current owner. NOTE: Renouncing ownership will leave the contract without an owner, thereby removing any functionality that is only available to the owner."
      },
      "setImpliedVolRate(uint256)": {
        "params": {
          "value": "New IVRate value"
        }
      },
      "setOptionCollaterizationRatio(uint256)": {
        "params": {
          "value": "New optionCollateralizationRatio value"
        }
      },
      "setSettlementFeeRecipient(address)": {
        "params": {
          "recipient": "New settlementFee recipient address"
        }
      },
      "transfer(uint256,address)": {
        "params": {
          "newHolder": "Address of new option holder",
          "optionID": "ID of your option"
        }
      },
      "transferOwnership(address)": {
        "details": "Transfers ownership of the contract to a new account (`newOwner`). Can only be called by the current owner."
      },
      "unlock(uint256)": {
        "params": {
          "optionID": "ID of the option"
        }
      },
      "unlockAll(uint256[])": {
        "params": {
          "optionIDs": "array of options"
        }
      }
    },
    "version": 1
  },
  "userdoc": {
    "kind": "user",
    "methods": {
      "create(uint256,uint256,uint256,uint8)": {
        "notice": "Creates a new option"
      },
      "exercise(uint256)": {
        "notice": "Exercises an active option"
      },
      "fees(uint256,uint256,uint256,uint8)": {
        "notice": "Used for getting the actual options prices"
      },
      "setImpliedVolRate(uint256)": {
        "notice": "Used for adjusting the options prices while balancing asset's implied volatility rate"
      },
      "setOptionCollaterizationRatio(uint256)": {
        "notice": "Used for changing option collateralization ratio"
      },
      "setSettlementFeeRecipient(address)": {
        "notice": "Used for changing settlementFeeRecipient"
      },
      "transfer(uint256,address)": {
        "notice": "Transfers an active option"
      },
      "transferPoolOwnership()": {
        "notice": "Can be used to update the contract in critical situations         in the first 14 days after deployment"
      },
      "unlock(uint256)": {
        "notice": "Unlock funds locked in the expired options"
      },
      "unlockAll(uint256[])": {
        "notice": "Unlocks an array of options"
      }
    },
    "version": 1
  }
}