{
  "contractName": "FakeHEGIC",
  "abi": [
    {
      "anonymous": false,
      "inputs": [
        {
          "indexed": true,
          "internalType": "address",
          "name": "owner",
          "type": "address"
        },
        {
          "indexed": true,
          "internalType": "address",
          "name": "spender",
          "type": "address"
        },
        {
          "indexed": false,
          "internalType": "uint256",
          "name": "value",
          "type": "uint256"
        }
      ],
      "name": "Approval",
      "type": "event"
    },
    {
      "anonymous": false,
      "inputs": [
        {
          "indexed": true,
          "internalType": "address",
          "name": "from",
          "type": "address"
        },
        {
          "indexed": true,
          "internalType": "address",
          "name": "to",
          "type": "address"
        },
        {
          "indexed": false,
          "internalType": "uint256",
          "name": "value",
          "type": "uint256"
        }
      ],
      "name": "Transfer",
      "type": "event"
    },
    {
      "inputs": [
        {
          "internalType": "address",
          "name": "owner",
          "type": "address"
        },
        {
          "internalType": "address",
          "name": "spender",
          "type": "address"
        }
      ],
      "name": "allowance",
      "outputs": [
        {
          "internalType": "uint256",
          "name": "",
          "type": "uint256"
        }
      ],
      "stateMutability": "view",
      "type": "function",
      "constant": true
    },
    {
      "inputs": [
        {
          "internalType": "address",
          "name": "spender",
          "type": "address"
        },
        {
          "internalType": "uint256",
          "name": "amount",
          "type": "uint256"
        }
      ],
      "name": "approve",
      "outputs": [
        {
          "internalType": "bool",
          "name": "",
          "type": "bool"
        }
      ],
      "stateMutability": "nonpayable",
      "type": "function"
    },
    {
      "inputs": [
        {
          "internalType": "address",
          "name": "account",
          "type": "address"
        }
      ],
      "name": "balanceOf",
      "outputs": [
        {
          "internalType": "uint256",
          "name": "",
          "type": "uint256"
        }
      ],
      "stateMutability": "view",
      "type": "function",
      "constant": true
    },
    {
      "inputs": [],
      "name": "decimals",
      "outputs": [
        {
          "internalType": "uint8",
          "name": "",
          "type": "uint8"
        }
      ],
      "stateMutability": "view",
      "type": "function",
      "constant": true
    },
    {
      "inputs": [
        {
          "internalType": "address",
          "name": "spender",
          "type": "address"
        },
        {
          "internalType": "uint256",
          "name": "subtractedValue",
          "type": "uint256"
        }
      ],
      "name": "decreaseAllowance",
      "outputs": [
        {
          "internalType": "bool",
          "name": "",
          "type": "bool"
        }
      ],
      "stateMutability": "nonpayable",
      "type": "function"
    },
    {
      "inputs": [
        {
          "internalType": "address",
          "name": "spender",
          "type": "address"
        },
        {
          "internalType": "uint256",
          "name": "addedValue",
          "type": "uint256"
        }
      ],
      "name": "increaseAllowance",
      "outputs": [
        {
          "internalType": "bool",
          "name": "",
          "type": "bool"
        }
      ],
      "stateMutability": "nonpayable",
      "type": "function"
    },
    {
      "inputs": [],
      "name": "name",
      "outputs": [
        {
          "internalType": "string",
          "name": "",
          "type": "string"
        }
      ],
      "stateMutability": "view",
      "type": "function",
      "constant": true
    },
    {
      "inputs": [],
      "name": "symbol",
      "outputs": [
        {
          "internalType": "string",
          "name": "",
          "type": "string"
        }
      ],
      "stateMutability": "view",
      "type": "function",
      "constant": true
    },
    {
      "inputs": [],
      "name": "totalSupply",
      "outputs": [
        {
          "internalType": "uint256",
          "name": "",
          "type": "uint256"
        }
      ],
      "stateMutability": "view",
      "type": "function",
      "constant": true
    },
    {
      "inputs": [
        {
          "internalType": "address",
          "name": "recipient",
          "type": "address"
        },
        {
          "internalType": "uint256",
          "name": "amount",
          "type": "uint256"
        }
      ],
      "name": "transfer",
      "outputs": [
        {
          "internalType": "bool",
          "name": "",
          "type": "bool"
        }
      ],
      "stateMutability": "nonpayable",
      "type": "function"
    },
    {
      "inputs": [
        {
          "internalType": "address",
          "name": "sender",
          "type": "address"
        },
        {
          "internalType": "address",
          "name": "recipient",
          "type": "address"
        },
        {
          "internalType": "uint256",
          "name": "amount",
          "type": "uint256"
        }
      ],
      "name": "transferFrom",
      "outputs": [
        {
          "internalType": "bool",
          "name": "",
          "type": "bool"
        }
      ],
      "stateMutability": "nonpayable",
      "type": "function"
    },
    {
      "inputs": [
        {
          "internalType": "address",
          "name": "account",
          "type": "address"
        },
        {
          "internalType": "uint256",
          "name": "amount",
          "type": "uint256"
        }
      ],
      "name": "mintTo",
      "outputs": [],
      "stateMutability": "nonpayable",
      "type": "function"
    },
    {
      "inputs": [
        {
          "internalType": "uint256",
          "name": "amount",
          "type": "uint256"
        }
      ],
      "name": "mint",
      "outputs": [],
      "stateMutability": "nonpayable",
      "type": "function"
    }
  ],
  "bytecode": "0x608060405234801561001057600080fd5b50604080518082018252600981526846616b65484547494360b81b60208083019182528351808501909452600584526408c82968a960db1b90840152815191929161005d91600391610086565b508051610071906004906020840190610086565b50506005805460ff1916601217905550610119565b828054600181600116156101000203166002900490600052602060002090601f016020900481019282601f106100c757805160ff19168380011785556100f4565b828001600101855582156100f4579182015b828111156100f45782518255916020019190600101906100d9565b50610100929150610104565b5090565b5b808211156101005760008155600101610105565b610b6e806101286000396000f3fe608060405234801561001057600080fd5b50600436106100cf5760003560e01c8063449a52f81161008c578063a0712d6811610066578063a0712d6814610287578063a457c2d7146102a4578063a9059cbb146102d0578063dd62ed3e146102fc576100cf565b8063449a52f81461022b57806370a082311461025957806395d89b411461027f576100cf565b806306fdde03146100d4578063095ea7b31461015157806318160ddd1461019157806323b872dd146101ab578063313ce567146101e157806339509351146101ff575b600080fd5b6100dc61032a565b6040805160208082528351818301528351919283929083019185019080838360005b838110156101165781810151838201526020016100fe565b50505050905090810190601f1680156101435780820380516001836020036101000a031916815260200191505b509250505060405180910390f35b61017d6004803603604081101561016757600080fd5b506001600160a01b0381351690602001356103c0565b604080519115158252519081900360200190f35b6101996103dd565b60408051918252519081900360200190f35b61017d600480360360608110156101c157600080fd5b506001600160a01b038135811691602081013590911690604001356103e3565b6101e961046a565b6040805160ff9092168252519081900360200190f35b61017d6004803603604081101561021557600080fd5b506001600160a01b038135169060200135610473565b6102576004803603604081101561024157600080fd5b506001600160a01b0381351690602001356104c1565b005b6101996004803603602081101561026f57600080fd5b50356001600160a01b03166104cf565b6100dc6104ea565b6102576004803603602081101561029d57600080fd5b503561054b565b61017d600480360360408110156102ba57600080fd5b506001600160a01b038135169060200135610558565b61017d600480360360408110156102e657600080fd5b506001600160a01b0381351690602001356105c0565b6101996004803603604081101561031257600080fd5b506001600160a01b03813581169160200135166105d4565b60038054604080516020601f60026000196101006001881615020190951694909404938401819004810282018101909252828152606093909290918301828280156103b65780601f1061038b576101008083540402835291602001916103b6565b820191906000526020600020905b81548152906001019060200180831161039957829003601f168201915b5050505050905090565b60006103d46103cd6105ff565b8484610603565b50600192915050565b60025490565b60006103f08484846106ef565b610460846103fc6105ff565b61045b85604051806060016040528060288152602001610aa3602891396001600160a01b038a1660009081526001602052604081209061043a6105ff565b6001600160a01b03168152602081019190915260400160002054919061084a565b610603565b5060019392505050565b60055460ff1690565b60006103d46104806105ff565b8461045b85600160006104916105ff565b6001600160a01b03908116825260208083019390935260409182016000908120918c1681529252902054906108e1565b6104cb8282610942565b5050565b6001600160a01b031660009081526020819052604090205490565b60048054604080516020601f60026000196101006001881615020190951694909404938401819004810282018101909252828152606093909290918301828280156103b65780601f1061038b576101008083540402835291602001916103b6565b6105553382610942565b50565b60006103d46105656105ff565b8461045b85604051806060016040528060258152602001610b14602591396001600061058f6105ff565b6001600160a01b03908116825260208083019390935260409182016000908120918d1681529252902054919061084a565b60006103d46105cd6105ff565b84846106ef565b6001600160a01b03918216600090815260016020908152604080832093909416825291909152205490565b3390565b6001600160a01b0383166106485760405162461bcd60e51b8152600401808060200182810382526024815260200180610af06024913960400191505060405180910390fd5b6001600160a01b03821661068d5760405162461bcd60e51b8152600401808060200182810382526022815260200180610a5b6022913960400191505060405180910390fd5b6001600160a01b03808416600081815260016020908152604080832094871680845294825291829020859055815185815291517f8c5be1e5ebec7d5bd14f71427d1e84f3dd0314c0f7b2291e5b200ac8c7c3b9259281900390910190a3505050565b6001600160a01b0383166107345760405162461bcd60e51b8152600401808060200182810382526025815260200180610acb6025913960400191505060405180910390fd5b6001600160a01b0382166107795760405162461bcd60e51b8152600401808060200182810382526023815260200180610a386023913960400191505060405180910390fd5b610784838383610a32565b6107c181604051806060016040528060268152602001610a7d602691396001600160a01b038616600090815260208190526040902054919061084a565b6001600160a01b0380851660009081526020819052604080822093909355908416815220546107f090826108e1565b6001600160a01b038084166000818152602081815260409182902094909455805185815290519193928716927fddf252ad1be2c89b69c2b068fc378daa952ba7f163c4a11628f55a4df523b3ef92918290030190a3505050565b600081848411156108d95760405162461bcd60e51b81526004018080602001828103825283818151815260200191508051906020019080838360005b8381101561089e578181015183820152602001610886565b50505050905090810190601f1680156108cb5780820380516001836020036101000a031916815260200191505b509250505060405180910390fd5b505050900390565b60008282018381101561093b576040805162461bcd60e51b815260206004820152601b60248201527f536166654d6174683a206164646974696f6e206f766572666c6f770000000000604482015290519081900360640190fd5b9392505050565b6001600160a01b03821661099d576040805162461bcd60e51b815260206004820152601f60248201527f45524332303a206d696e7420746f20746865207a65726f206164647265737300604482015290519081900360640190fd5b6109a960008383610a32565b6002546109b690826108e1565b6002556001600160a01b0382166000908152602081905260409020546109dc90826108e1565b6001600160a01b0383166000818152602081815260408083209490945583518581529351929391927fddf252ad1be2c89b69c2b068fc378daa952ba7f163c4a11628f55a4df523b3ef9281900390910190a35050565b50505056fe45524332303a207472616e7366657220746f20746865207a65726f206164647265737345524332303a20617070726f766520746f20746865207a65726f206164647265737345524332303a207472616e7366657220616d6f756e7420657863656564732062616c616e636545524332303a207472616e7366657220616d6f756e74206578636565647320616c6c6f77616e636545524332303a207472616e736665722066726f6d20746865207a65726f206164647265737345524332303a20617070726f76652066726f6d20746865207a65726f206164647265737345524332303a2064656372656173656420616c6c6f77616e63652062656c6f77207a65726fa2646970667358221220f0d400714c3301cc94de079ce3c4066e4a75127598f9653298b2d92d5face25d64736f6c634300060c0033",
  "immutableReferences": {},
  "source": "pragma solidity 0.6.12;\n\n/**\n * SPDX-License-Identifier: GPL-3.0-or-later\n * Hegic\n * Copyright (C) 2020 Hegic\n *\n * This program is free software: you can redistribute it and/or modify\n * it under the terms of the GNU General Public License as published by\n * the Free Software Foundation, either version 3 of the License, or\n * (at your option) any later version.\n *\n * This program is distributed in the hope that it will be useful,\n * but WITHOUT ANY WARRANTY; without even the implied warranty of\n * MERCHANTABILITY or FITNESS FOR A PARTICULAR PURPOSE.  See the\n * GNU General Public License for more details.\n *\n * You should have received a copy of the GNU General Public License\n * along with this program.  If not, see <http://www.gnu.org/licenses/>.\n */\nimport \"./Interfaces/Interfaces.sol\";\nimport \"./Rewards/Synthetix/StakingRewards.sol\";\nimport \"./Options/HegicETHOptions.sol\";\n\ncontract FakeExchange {\n    uint256 public exchangeRate;\n    FakeWBTC public token;\n    address public WETH = address(this);\n\n    constructor(FakeWBTC t, uint _exchangeRate) public {\n        token = t;\n        exchangeRate = _exchangeRate;\n    }\n\n    function swapETHForExactTokens(uint amountOut, address[] calldata path, address to, uint)\n        external\n        payable\n        returns (uint[] memory amounts)\n    {\n        uint amountIn = getAmountsIn(amountOut, path)[0];\n        require(msg.value >= amountIn, \"Fake Uniswap: value is too small\");\n        amounts = new uint[](1);\n        amounts[0] = msg.value;\n\n        token.mintTo(to, amountOut);\n    }\n\n    function getAmountsIn(uint amountOut, address[] memory)\n        public\n        view\n        returns (uint[] memory amounts)\n    {\n        amounts = new uint[](1);\n        amounts[0] = amountOut * exchangeRate / 1e18;\n    }\n}\n\n\ncontract FakePriceProvider is AggregatorV3Interface {\n    uint256 public price;\n    uint8 public override decimals = 8;\n    string public override description = \"Test implementatiln\";\n    uint256 public override version = 0;\n\n    constructor(uint256 _price) public {\n        price = _price;\n    }\n\n    function setPrice(uint256 _price) external {\n        price = _price;\n    }\n\n    function getRoundData(uint80) external override view returns (uint80, int256, uint256, uint256, uint80) {\n        revert(\"Test implementation\");\n    }\n\n    function latestAnswer() external view returns(int result) {\n        (, result, , , ) = latestRoundData();\n    }\n\n    function latestRoundData()\n        public\n        override\n        view\n        returns (\n            uint80,\n            int256 answer,\n            uint256,\n            uint256,\n            uint80\n        )\n    {\n        answer = int(price);\n    }\n}\n\n\ncontract FakeBTCPriceProvider is FakePriceProvider {\n    constructor(uint price) public FakePriceProvider(price) {}\n}\n\n\ncontract FakeWBTC is ERC20(\"FakeWBTC\", \"FAKE\") {\n    constructor() public {\n        _setupDecimals(8);\n    }\n\n    function mintTo(address account, uint256 amount) public {\n        _mint(account, amount);\n    }\n\n    function mint(uint256 amount) public {\n        _mint(msg.sender, amount);\n    }\n}\n\n\ncontract FakeHEGIC is ERC20(\"FakeHEGIC\", \"FAKEH\") {\n    function mintTo(address account, uint256 amount) public {\n        _mint(account, amount);\n    }\n\n    function mint(uint256 amount) public {\n        _mint(msg.sender, amount);\n    }\n}\n\n\ncontract ETHStakingRewards is StakingRewards {\n    constructor(\n        address _owner,\n        address _rewardsDistribution,\n        address _rewardsToken,\n        address _stakingToken\n    ) public StakingRewards(_owner, _rewardsDistribution, _rewardsToken, _stakingToken) {}\n}\n\n\ncontract WBTCStakingRewards is StakingRewards {\n    constructor(\n        address _owner,\n        address _rewardsDistribution,\n        address _rewardsToken,\n        address _stakingToken\n    ) public StakingRewards(_owner, _rewardsDistribution, _rewardsToken, _stakingToken) {}\n}\n\n\ncontract BrokenETHOptions is HegicETHOptions {\n    constructor(AggregatorV3Interface pp, IHegicStakingETH staking)\n        public HegicETHOptions(pp, staking, new HegicETHPool())\n    {\n\n    }\n}\n",
  "sourcePath": "/root/contracts-v888/contracts/TestImplementations.sol",
  "compiler": {
    "name": "solc",
    "version": "0.6.12+commit.27d51765.Emscripten.clang"
  },
  "schemaVersion": "3.3.2",
  "updatedAt": "2020-12-09T12:09:27.491Z",
  "networkType": "ethereum",
  "devdoc": {
    "kind": "dev",
    "methods": {
      "allowance(address,address)": {
        "details": "See {IERC20-allowance}."
      },
      "approve(address,uint256)": {
        "details": "See {IERC20-approve}. Requirements: - `spender` cannot be the zero address."
      },
      "balanceOf(address)": {
        "details": "See {IERC20-balanceOf}."
      },
      "decimals()": {
        "details": "Returns the number of decimals used to get its user representation. For example, if `decimals` equals `2`, a balance of `505` tokens should be displayed to a user as `5,05` (`505 / 10 ** 2`). Tokens usually opt for a value of 18, imitating the relationship between Ether and Wei. This is the value {ERC20} uses, unless {_setupDecimals} is called. NOTE: This information is only used for _display_ purposes: it in no way affects any of the arithmetic of the contract, including {IERC20-balanceOf} and {IERC20-transfer}."
      },
      "decreaseAllowance(address,uint256)": {
        "details": "Atomically decreases the allowance granted to `spender` by the caller. This is an alternative to {approve} that can be used as a mitigation for problems described in {IERC20-approve}. Emits an {Approval} event indicating the updated allowance. Requirements: - `spender` cannot be the zero address. - `spender` must have allowance for the caller of at least `subtractedValue`."
      },
      "increaseAllowance(address,uint256)": {
        "details": "Atomically increases the allowance granted to `spender` by the caller. This is an alternative to {approve} that can be used as a mitigation for problems described in {IERC20-approve}. Emits an {Approval} event indicating the updated allowance. Requirements: - `spender` cannot be the zero address."
      },
      "name()": {
        "details": "Returns the name of the token."
      },
      "symbol()": {
        "details": "Returns the symbol of the token, usually a shorter version of the name."
      },
      "totalSupply()": {
        "details": "See {IERC20-totalSupply}."
      },
      "transfer(address,uint256)": {
        "details": "See {IERC20-transfer}. Requirements: - `recipient` cannot be the zero address. - the caller must have a balance of at least `amount`."
      },
      "transferFrom(address,address,uint256)": {
        "details": "See {IERC20-transferFrom}. Emits an {Approval} event indicating the updated allowance. This is not required by the EIP. See the note at the beginning of {ERC20}; Requirements: - `sender` and `recipient` cannot be the zero address. - `sender` must have a balance of at least `amount`. - the caller must have allowance for ``sender``'s tokens of at least `amount`."
      }
    },
    "version": 1
  },
  "userdoc": {
    "kind": "user",
    "methods": {},
    "version": 1
  }
}