{
  "contractName": "FakeExchange",
  "abi": [
    {
      "inputs": [
        {
          "internalType": "contract FakeWBTC",
          "name": "t",
          "type": "address"
        },
        {
          "internalType": "uint256",
          "name": "_exchangeRate",
          "type": "uint256"
        }
      ],
      "stateMutability": "nonpayable",
      "type": "constructor"
    },
    {
      "inputs": [],
      "name": "WETH",
      "outputs": [
        {
          "internalType": "address",
          "name": "",
          "type": "address"
        }
      ],
      "stateMutability": "view",
      "type": "function",
      "constant": true
    },
    {
      "inputs": [],
      "name": "exchangeRate",
      "outputs": [
        {
          "internalType": "uint256",
          "name": "",
          "type": "uint256"
        }
      ],
      "stateMutability": "view",
      "type": "function",
      "constant": true
    },
    {
      "inputs": [],
      "name": "token",
      "outputs": [
        {
          "internalType": "contract FakeWBTC",
          "name": "",
          "type": "address"
        }
      ],
      "stateMutability": "view",
      "type": "function",
      "constant": true
    },
    {
      "inputs": [
        {
          "internalType": "uint256",
          "name": "amountOut",
          "type": "uint256"
        },
        {
          "internalType": "address[]",
          "name": "path",
          "type": "address[]"
        },
        {
          "internalType": "address",
          "name": "to",
          "type": "address"
        },
        {
          "internalType": "uint256",
          "name": "",
          "type": "uint256"
        }
      ],
      "name": "swapETHForExactTokens",
      "outputs": [
        {
          "internalType": "uint256[]",
          "name": "amounts",
          "type": "uint256[]"
        }
      ],
      "stateMutability": "payable",
      "type": "function",
      "payable": true
    },
    {
      "inputs": [
        {
          "internalType": "uint256",
          "name": "amountOut",
          "type": "uint256"
        },
        {
          "internalType": "address[]",
          "name": "",
          "type": "address[]"
        }
      ],
      "name": "getAmountsIn",
      "outputs": [
        {
          "internalType": "uint256[]",
          "name": "amounts",
          "type": "uint256[]"
        }
      ],
      "stateMutability": "view",
      "type": "function",
      "constant": true
    }
  ],
  "bytecode": "0x6080604052600280546001600160a01b0319163017905534801561002257600080fd5b506040516104d83803806104d88339818101604052604081101561004557600080fd5b508051602090910151600180546001600160a01b039093166001600160a01b031990931692909217909155600055610456806100826000396000f3fe60806040526004361061004a5760003560e01c80631f00ca741461004f5780633ba0b9a914610156578063ad5c46481461017d578063fb3bdb41146101ae578063fc0c546a14610234575b600080fd5b34801561005b57600080fd5b506101066004803603604081101561007257600080fd5b8135919081019060408101602082013564010000000081111561009457600080fd5b8201836020820111156100a657600080fd5b803590602001918460208302840111640100000000831117156100c857600080fd5b919080806020026020016040519081016040528093929190818152602001838360200280828437600092019190915250929550610249945050505050565b60408051602080825283518183015283519192839290830191858101910280838360005b8381101561014257818101518382015260200161012a565b505050509050019250505060405180910390f35b34801561016257600080fd5b5061016b6102a0565b60408051918252519081900360200190f35b34801561018957600080fd5b506101926102a6565b604080516001600160a01b039092168252519081900360200190f35b610106600480360360808110156101c457600080fd5b813591908101906040810160208201356401000000008111156101e657600080fd5b8201836020820111156101f857600080fd5b8035906020019184602083028401116401000000008311171561021a57600080fd5b91935091506001600160a01b0381351690602001356102b5565b34801561024057600080fd5b50610192610411565b60408051600180825281830190925260609160208083019080368337019050509050670de0b6b3a764000060005484028161028057fe5b048160008151811061028e57fe5b60200260200101818152505092915050565b60005481565b6002546001600160a01b031681565b606060006102f68787878080602002602001604051908101604052809392919081815260200183836020028082843760009201919091525061024992505050565b60008151811061030257fe5b6020026020010151905080341015610361576040805162461bcd60e51b815260206004820181905260248201527f46616b6520556e69737761703a2076616c756520697320746f6f20736d616c6c604482015290519081900360640190fd5b6040805160018082528183019092529060208083019080368337019050509150348260008151811061038f57fe5b6020908102919091010152600154604080516308934a5f60e31b81526001600160a01b038781166004830152602482018b90529151919092169163449a52f891604480830192600092919082900301818387803b1580156103ef57600080fd5b505af1158015610403573d6000803e3d6000fd5b505050505095945050505050565b6001546001600160a01b03168156fea264697066735822122035cd31dc691656037e9c3fe2d614c3146b6719b5c451181b95a38d9896c7fd9264736f6c634300060c0033",
  "immutableReferences": {},
  "source": "pragma solidity 0.6.12;\n\n/**\n * SPDX-License-Identifier: GPL-3.0-or-later\n * Hegic\n * Copyright (C) 2020 Hegic\n *\n * This program is free software: you can redistribute it and/or modify\n * it under the terms of the GNU General Public License as published by\n * the Free Software Foundation, either version 3 of the License, or\n * (at your option) any later version.\n *\n * This program is distributed in the hope that it will be useful,\n * but WITHOUT ANY WARRANTY; without even the implied warranty of\n * MERCHANTABILITY or FITNESS FOR A PARTICULAR PURPOSE.  See the\n * GNU General Public License for more details.\n *\n * You should have received a copy of the GNU General Public License\n * along with this program.  If not, see <http://www.gnu.org/licenses/>.\n */\nimport \"./Interfaces/Interfaces.sol\";\nimport \"./Rewards/Synthetix/StakingRewards.sol\";\nimport \"./Options/HegicETHOptions.sol\";\n\ncontract FakeExchange {\n    uint256 public exchangeRate;\n    FakeWBTC public token;\n    address public WETH = address(this);\n\n    constructor(FakeWBTC t, uint _exchangeRate) public {\n        token = t;\n        exchangeRate = _exchangeRate;\n    }\n\n    function swapETHForExactTokens(uint amountOut, address[] calldata path, address to, uint)\n        external\n        payable\n        returns (uint[] memory amounts)\n    {\n        uint amountIn = getAmountsIn(amountOut, path)[0];\n        require(msg.value >= amountIn, \"Fake Uniswap: value is too small\");\n        amounts = new uint[](1);\n        amounts[0] = msg.value;\n\n        token.mintTo(to, amountOut);\n    }\n\n    function getAmountsIn(uint amountOut, address[] memory)\n        public\n        view\n        returns (uint[] memory amounts)\n    {\n        amounts = new uint[](1);\n        amounts[0] = amountOut * exchangeRate / 1e18;\n    }\n}\n\n\ncontract FakePriceProvider is AggregatorV3Interface {\n    uint256 public price;\n    uint8 public override decimals = 8;\n    string public override description = \"Test implementatiln\";\n    uint256 public override version = 0;\n\n    constructor(uint256 _price) public {\n        price = _price;\n    }\n\n    function setPrice(uint256 _price) external {\n        price = _price;\n    }\n\n    function getRoundData(uint80) external override view returns (uint80, int256, uint256, uint256, uint80) {\n        revert(\"Test implementation\");\n    }\n\n    function latestAnswer() external view returns(int result) {\n        (, result, , , ) = latestRoundData();\n    }\n\n    function latestRoundData()\n        public\n        override\n        view\n        returns (\n            uint80,\n            int256 answer,\n            uint256,\n            uint256,\n            uint80\n        )\n    {\n        answer = int(price);\n    }\n}\n\n\ncontract FakeBTCPriceProvider is FakePriceProvider {\n    constructor(uint price) public FakePriceProvider(price) {}\n}\n\n\ncontract FakeWBTC is ERC20(\"FakeWBTC\", \"FAKE\") {\n    constructor() public {\n        _setupDecimals(8);\n    }\n\n    function mintTo(address account, uint256 amount) public {\n        _mint(account, amount);\n    }\n\n    function mint(uint256 amount) public {\n        _mint(msg.sender, amount);\n    }\n}\n\n\ncontract FakeHEGIC is ERC20(\"FakeHEGIC\", \"FAKEH\") {\n    function mintTo(address account, uint256 amount) public {\n        _mint(account, amount);\n    }\n\n    function mint(uint256 amount) public {\n        _mint(msg.sender, amount);\n    }\n}\n\n\ncontract ETHStakingRewards is StakingRewards {\n    constructor(\n        address _owner,\n        address _rewardsDistribution,\n        address _rewardsToken,\n        address _stakingToken\n    ) public StakingRewards(_owner, _rewardsDistribution, _rewardsToken, _stakingToken) {}\n}\n\n\ncontract WBTCStakingRewards is StakingRewards {\n    constructor(\n        address _owner,\n        address _rewardsDistribution,\n        address _rewardsToken,\n        address _stakingToken\n    ) public StakingRewards(_owner, _rewardsDistribution, _rewardsToken, _stakingToken) {}\n}\n\n\ncontract BrokenETHOptions is HegicETHOptions {\n    constructor(AggregatorV3Interface pp, IHegicStakingETH staking)\n        public HegicETHOptions(pp, staking, new HegicETHPool())\n    {\n\n    }\n}\n",
  "sourcePath": "/root/contracts-v888/contracts/TestImplementations.sol",
  "compiler": {
    "name": "solc",
    "version": "0.6.12+commit.27d51765.Emscripten.clang"
  },
  "schemaVersion": "3.3.2",
  "updatedAt": "2020-12-09T12:09:27.473Z",
  "networkType": "ethereum",
  "devdoc": {
    "kind": "dev",
    "methods": {},
    "version": 1
  },
  "userdoc": {
    "kind": "user",
    "methods": {},
    "version": 1
  }
}