{
  "contractName": "Hegexoption",
  "abi": [
    {
      "inputs": [
        {
          "internalType": "contract IOptionChef",
          "name": "_optionChef",
          "type": "address"
        },
        {
          "internalType": "string",
          "name": "_base",
          "type": "string"
        }
      ],
      "stateMutability": "nonpayable",
      "type": "constructor"
    },
    {
      "anonymous": false,
      "inputs": [
        {
          "indexed": true,
          "internalType": "address",
          "name": "owner",
          "type": "address"
        },
        {
          "indexed": true,
          "internalType": "address",
          "name": "approved",
          "type": "address"
        },
        {
          "indexed": true,
          "internalType": "uint256",
          "name": "tokenId",
          "type": "uint256"
        }
      ],
      "name": "Approval",
      "type": "event"
    },
    {
      "anonymous": false,
      "inputs": [
        {
          "indexed": true,
          "internalType": "address",
          "name": "owner",
          "type": "address"
        },
        {
          "indexed": true,
          "internalType": "address",
          "name": "operator",
          "type": "address"
        },
        {
          "indexed": false,
          "internalType": "bool",
          "name": "approved",
          "type": "bool"
        }
      ],
      "name": "ApprovalForAll",
      "type": "event"
    },
    {
      "anonymous": false,
      "inputs": [
        {
          "indexed": true,
          "internalType": "address",
          "name": "previousOwner",
          "type": "address"
        },
        {
          "indexed": true,
          "internalType": "address",
          "name": "newOwner",
          "type": "address"
        }
      ],
      "name": "OwnershipTransferred",
      "type": "event"
    },
    {
      "anonymous": false,
      "inputs": [
        {
          "indexed": true,
          "internalType": "address",
          "name": "from",
          "type": "address"
        },
        {
          "indexed": true,
          "internalType": "address",
          "name": "to",
          "type": "address"
        },
        {
          "indexed": true,
          "internalType": "uint256",
          "name": "tokenId",
          "type": "uint256"
        }
      ],
      "name": "Transfer",
      "type": "event"
    },
    {
      "inputs": [
        {
          "internalType": "address",
          "name": "to",
          "type": "address"
        },
        {
          "internalType": "uint256",
          "name": "tokenId",
          "type": "uint256"
        }
      ],
      "name": "approve",
      "outputs": [],
      "stateMutability": "nonpayable",
      "type": "function"
    },
    {
      "inputs": [
        {
          "internalType": "address",
          "name": "owner",
          "type": "address"
        }
      ],
      "name": "balanceOf",
      "outputs": [
        {
          "internalType": "uint256",
          "name": "",
          "type": "uint256"
        }
      ],
      "stateMutability": "view",
      "type": "function",
      "constant": true
    },
    {
      "inputs": [],
      "name": "baseURI",
      "outputs": [
        {
          "internalType": "string",
          "name": "",
          "type": "string"
        }
      ],
      "stateMutability": "view",
      "type": "function",
      "constant": true
    },
    {
      "inputs": [
        {
          "internalType": "uint256",
          "name": "tokenId",
          "type": "uint256"
        }
      ],
      "name": "getApproved",
      "outputs": [
        {
          "internalType": "address",
          "name": "",
          "type": "address"
        }
      ],
      "stateMutability": "view",
      "type": "function",
      "constant": true
    },
    {
      "inputs": [
        {
          "internalType": "address",
          "name": "owner",
          "type": "address"
        },
        {
          "internalType": "address",
          "name": "operator",
          "type": "address"
        }
      ],
      "name": "isApprovedForAll",
      "outputs": [
        {
          "internalType": "bool",
          "name": "",
          "type": "bool"
        }
      ],
      "stateMutability": "view",
      "type": "function",
      "constant": true
    },
    {
      "inputs": [],
      "name": "name",
      "outputs": [
        {
          "internalType": "string",
          "name": "",
          "type": "string"
        }
      ],
      "stateMutability": "view",
      "type": "function",
      "constant": true
    },
    {
      "inputs": [],
      "name": "optionChef",
      "outputs": [
        {
          "internalType": "contract IOptionChef",
          "name": "",
          "type": "address"
        }
      ],
      "stateMutability": "view",
      "type": "function",
      "constant": true
    },
    {
      "inputs": [],
      "name": "owner",
      "outputs": [
        {
          "internalType": "address",
          "name": "",
          "type": "address"
        }
      ],
      "stateMutability": "view",
      "type": "function",
      "constant": true
    },
    {
      "inputs": [
        {
          "internalType": "uint256",
          "name": "tokenId",
          "type": "uint256"
        }
      ],
      "name": "ownerOf",
      "outputs": [
        {
          "internalType": "address",
          "name": "",
          "type": "address"
        }
      ],
      "stateMutability": "view",
      "type": "function",
      "constant": true
    },
    {
      "inputs": [],
      "name": "renounceOwnership",
      "outputs": [],
      "stateMutability": "nonpayable",
      "type": "function"
    },
    {
      "inputs": [
        {
          "internalType": "address",
          "name": "from",
          "type": "address"
        },
        {
          "internalType": "address",
          "name": "to",
          "type": "address"
        },
        {
          "internalType": "uint256",
          "name": "tokenId",
          "type": "uint256"
        }
      ],
      "name": "safeTransferFrom",
      "outputs": [],
      "stateMutability": "nonpayable",
      "type": "function"
    },
    {
      "inputs": [
        {
          "internalType": "address",
          "name": "from",
          "type": "address"
        },
        {
          "internalType": "address",
          "name": "to",
          "type": "address"
        },
        {
          "internalType": "uint256",
          "name": "tokenId",
          "type": "uint256"
        },
        {
          "internalType": "bytes",
          "name": "_data",
          "type": "bytes"
        }
      ],
      "name": "safeTransferFrom",
      "outputs": [],
      "stateMutability": "nonpayable",
      "type": "function"
    },
    {
      "inputs": [
        {
          "internalType": "address",
          "name": "operator",
          "type": "address"
        },
        {
          "internalType": "bool",
          "name": "approved",
          "type": "bool"
        }
      ],
      "name": "setApprovalForAll",
      "outputs": [],
      "stateMutability": "nonpayable",
      "type": "function"
    },
    {
      "inputs": [
        {
          "internalType": "bytes4",
          "name": "interfaceId",
          "type": "bytes4"
        }
      ],
      "name": "supportsInterface",
      "outputs": [
        {
          "internalType": "bool",
          "name": "",
          "type": "bool"
        }
      ],
      "stateMutability": "view",
      "type": "function",
      "constant": true
    },
    {
      "inputs": [],
      "name": "symbol",
      "outputs": [
        {
          "internalType": "string",
          "name": "",
          "type": "string"
        }
      ],
      "stateMutability": "view",
      "type": "function",
      "constant": true
    },
    {
      "inputs": [
        {
          "internalType": "uint256",
          "name": "index",
          "type": "uint256"
        }
      ],
      "name": "tokenByIndex",
      "outputs": [
        {
          "internalType": "uint256",
          "name": "",
          "type": "uint256"
        }
      ],
      "stateMutability": "view",
      "type": "function",
      "constant": true
    },
    {
      "inputs": [
        {
          "internalType": "address",
          "name": "owner",
          "type": "address"
        },
        {
          "internalType": "uint256",
          "name": "index",
          "type": "uint256"
        }
      ],
      "name": "tokenOfOwnerByIndex",
      "outputs": [
        {
          "internalType": "uint256",
          "name": "",
          "type": "uint256"
        }
      ],
      "stateMutability": "view",
      "type": "function",
      "constant": true
    },
    {
      "inputs": [
        {
          "internalType": "uint256",
          "name": "tokenId",
          "type": "uint256"
        }
      ],
      "name": "tokenURI",
      "outputs": [
        {
          "internalType": "string",
          "name": "",
          "type": "string"
        }
      ],
      "stateMutability": "view",
      "type": "function",
      "constant": true
    },
    {
      "inputs": [],
      "name": "totalSupply",
      "outputs": [
        {
          "internalType": "uint256",
          "name": "",
          "type": "uint256"
        }
      ],
      "stateMutability": "view",
      "type": "function",
      "constant": true
    },
    {
      "inputs": [
        {
          "internalType": "address",
          "name": "from",
          "type": "address"
        },
        {
          "internalType": "address",
          "name": "to",
          "type": "address"
        },
        {
          "internalType": "uint256",
          "name": "tokenId",
          "type": "uint256"
        }
      ],
      "name": "transferFrom",
      "outputs": [],
      "stateMutability": "nonpayable",
      "type": "function"
    },
    {
      "inputs": [
        {
          "internalType": "address",
          "name": "newOwner",
          "type": "address"
        }
      ],
      "name": "transferOwnership",
      "outputs": [],
      "stateMutability": "nonpayable",
      "type": "function"
    },
    {
      "inputs": [
        {
          "internalType": "address",
          "name": "_to",
          "type": "address"
        }
      ],
      "name": "mintHegexoption",
      "outputs": [
        {
          "internalType": "uint256",
          "name": "",
          "type": "uint256"
        }
      ],
      "stateMutability": "nonpayable",
      "type": "function"
    },
    {
      "inputs": [
        {
          "internalType": "uint256",
          "name": "_id",
          "type": "uint256"
        }
      ],
      "name": "burnHegexoption",
      "outputs": [],
      "stateMutability": "nonpayable",
      "type": "function"
    }
  ],
  "bytecode": "0x60806040523480156200001157600080fd5b5060405162003be638038062003be6833981810160405260408110156200003757600080fd5b8101908080519060200190929190805160405193929190846401000000008211156200006257600080fd5b838201915060208201858111156200007957600080fd5b82518660018202830111640100000000821117156200009757600080fd5b8083526020830192505050908051906020019080838360005b83811015620000cd578082015181840152602081019050620000b0565b50505050905090810190601f168015620000fb5780820380516001836020036101000a031916815260200191505b506040525050506040518060400160405280600b81526020017f48656765786f7074696f6e0000000000000000000000000000000000000000008152506040518060400160405280600481526020017f554f505400000000000000000000000000000000000000000000000000000000815250620001866301ffc9a760e01b6200031e60201b60201c565b81600690805190602001906200019e9291906200067d565b508060079080519060200190620001b79291906200067d565b50620001d06380ac58cd60e01b6200031e60201b60201c565b620001e8635b5e139f60e01b6200031e60201b60201c565b6200020063780e9d6360e01b6200031e60201b60201c565b50506000620002146200042760201b60201c565b905080600a60006101000a81548173ffffffffffffffffffffffffffffffffffffffff021916908373ffffffffffffffffffffffffffffffffffffffff1602179055508073ffffffffffffffffffffffffffffffffffffffff16600073ffffffffffffffffffffffffffffffffffffffff167f8be0079c531659141344cd1fd0a4f28419497f9722a3daafe3b4186f6b6457e060405160405180910390a35081600c60006101000a81548173ffffffffffffffffffffffffffffffffffffffff021916908373ffffffffffffffffffffffffffffffffffffffff16021790555062000305826200042f60201b60201c565b62000316816200063760201b60201c565b505062000723565b63ffffffff60e01b817bffffffffffffffffffffffffffffffffffffffffffffffffffffffff19161415620003bb576040517f08c379a000000000000000000000000000000000000000000000000000000000815260040180806020018281038252601c8152602001807f4552433136353a20696e76616c696420696e746572666163652069640000000081525060200191505060405180910390fd5b6001600080837bffffffffffffffffffffffffffffffffffffffffffffffffffffffff19167bffffffffffffffffffffffffffffffffffffffffffffffffffffffff1916815260200190815260200160002060006101000a81548160ff02191690831515021790555050565b600033905090565b6200043f6200042760201b60201c565b73ffffffffffffffffffffffffffffffffffffffff16620004656200065360201b60201c565b73ffffffffffffffffffffffffffffffffffffffff1614620004ef576040517f08c379a00000000000000000000000000000000000000000000000000000000081526004018080602001828103825260208152602001807f4f776e61626c653a2063616c6c6572206973206e6f7420746865206f776e657281525060200191505060405180910390fd5b600073ffffffffffffffffffffffffffffffffffffffff168173ffffffffffffffffffffffffffffffffffffffff16141562000577576040517f08c379a000000000000000000000000000000000000000000000000000000000815260040180806020018281038252602681526020018062003bc06026913960400191505060405180910390fd5b8073ffffffffffffffffffffffffffffffffffffffff16600a60009054906101000a900473ffffffffffffffffffffffffffffffffffffffff1673ffffffffffffffffffffffffffffffffffffffff167f8be0079c531659141344cd1fd0a4f28419497f9722a3daafe3b4186f6b6457e060405160405180910390a380600a60006101000a81548173ffffffffffffffffffffffffffffffffffffffff021916908373ffffffffffffffffffffffffffffffffffffffff16021790555050565b80600990805190602001906200064f9291906200067d565b5050565b6000600a60009054906101000a900473ffffffffffffffffffffffffffffffffffffffff16905090565b828054600181600116156101000203166002900490600052602060002090601f016020900481019282601f10620006c057805160ff1916838001178555620006f1565b82800160010185558215620006f1579182015b82811115620006f0578251825591602001919060010190620006d3565b5b50905062000700919062000704565b5090565b5b808211156200071f57600081600090555060010162000705565b5090565b61348d80620007336000396000f3fe608060405234801561001057600080fd5b506004361061014d5760003560e01c80636352211e116100c35780639eab86551161007c5780639eab8655146106f6578063a22cb4651461072a578063b88d4fde1461077a578063c87b56dd1461087f578063e985e9c514610926578063f2fde38b146109a05761014d565b80636352211e146105025780636c0360eb1461055a57806370a08231146105dd578063715018a6146106355780638da5cb5b1461063f57806395d89b41146106735761014d565b80631ce369a4116101155780631ce369a4146102fc57806323b872dd146103545780632f745c59146103c257806330be2cef1461042457806342842e0e146104525780634f6ccce7146104c05761014d565b806301ffc9a71461015257806306fdde03146101b5578063081812fc14610238578063095ea7b31461029057806318160ddd146102de575b600080fd5b61019d6004803603602081101561016857600080fd5b8101908080357bffffffffffffffffffffffffffffffffffffffffffffffffffffffff191690602001909291905050506109e4565b60405180821515815260200191505060405180910390f35b6101bd610a4b565b6040518080602001828103825283818151815260200191508051906020019080838360005b838110156101fd5780820151818401526020810190506101e2565b50505050905090810190601f16801561022a5780820380516001836020036101000a031916815260200191505b509250505060405180910390f35b6102646004803603602081101561024e57600080fd5b8101908080359060200190929190505050610aed565b604051808273ffffffffffffffffffffffffffffffffffffffff16815260200191505060405180910390f35b6102dc600480360360408110156102a657600080fd5b81019080803573ffffffffffffffffffffffffffffffffffffffff16906020019092919080359060200190929190505050610b88565b005b6102e6610ccc565b6040518082815260200191505060405180910390f35b61033e6004803603602081101561031257600080fd5b81019080803573ffffffffffffffffffffffffffffffffffffffff169060200190929190505050610cdd565b6040518082815260200191505060405180910390f35b6103c06004803603606081101561036a57600080fd5b81019080803573ffffffffffffffffffffffffffffffffffffffff169060200190929190803573ffffffffffffffffffffffffffffffffffffffff16906020019092919080359060200190929190505050610db9565b005b61040e600480360360408110156103d857600080fd5b81019080803573ffffffffffffffffffffffffffffffffffffffff16906020019092919080359060200190929190505050610e2f565b6040518082815260200191505060405180910390f35b6104506004803603602081101561043a57600080fd5b8101908080359060200190929190505050610e8a565b005b6104be6004803603606081101561046857600080fd5b81019080803573ffffffffffffffffffffffffffffffffffffffff169060200190929190803573ffffffffffffffffffffffffffffffffffffffff16906020019092919080359060200190929190505050610f45565b005b6104ec600480360360208110156104d657600080fd5b8101908080359060200190929190505050610f65565b6040518082815260200191505060405180910390f35b61052e6004803603602081101561051857600080fd5b8101908080359060200190929190505050610f88565b604051808273ffffffffffffffffffffffffffffffffffffffff16815260200191505060405180910390f35b610562610fbf565b6040518080602001828103825283818151815260200191508051906020019080838360005b838110156105a2578082015181840152602081019050610587565b50505050905090810190601f1680156105cf5780820380516001836020036101000a031916815260200191505b509250505060405180910390f35b61061f600480360360208110156105f357600080fd5b81019080803573ffffffffffffffffffffffffffffffffffffffff169060200190929190505050611061565b6040518082815260200191505060405180910390f35b61063d611136565b005b6106476112a6565b604051808273ffffffffffffffffffffffffffffffffffffffff16815260200191505060405180910390f35b61067b6112d0565b6040518080602001828103825283818151815260200191508051906020019080838360005b838110156106bb5780820151818401526020810190506106a0565b50505050905090810190601f1680156106e85780820380516001836020036101000a031916815260200191505b509250505060405180910390f35b6106fe611372565b604051808273ffffffffffffffffffffffffffffffffffffffff16815260200191505060405180910390f35b6107786004803603604081101561074057600080fd5b81019080803573ffffffffffffffffffffffffffffffffffffffff169060200190929190803515159060200190929190505050611398565b005b61087d6004803603608081101561079057600080fd5b81019080803573ffffffffffffffffffffffffffffffffffffffff169060200190929190803573ffffffffffffffffffffffffffffffffffffffff16906020019092919080359060200190929190803590602001906401000000008111156107f757600080fd5b82018360208201111561080957600080fd5b8035906020019184600183028401116401000000008311171561082b57600080fd5b91908080601f016020809104026020016040519081016040528093929190818152602001838380828437600081840152601f19601f82011690508083019250505050505050919291929050505061154e565b005b6108ab6004803603602081101561089557600080fd5b81019080803590602001909291905050506115c6565b6040518080602001828103825283818151815260200191508051906020019080838360005b838110156108eb5780820151818401526020810190506108d0565b50505050905090810190601f1680156109185780820380516001836020036101000a031916815260200191505b509250505060405180910390f35b6109886004803603604081101561093c57600080fd5b81019080803573ffffffffffffffffffffffffffffffffffffffff169060200190929190803573ffffffffffffffffffffffffffffffffffffffff169060200190929190505050611897565b60405180821515815260200191505060405180910390f35b6109e2600480360360208110156109b657600080fd5b81019080803573ffffffffffffffffffffffffffffffffffffffff16906020019092919050505061192b565b005b6000806000837bffffffffffffffffffffffffffffffffffffffffffffffffffffffff19167bffffffffffffffffffffffffffffffffffffffffffffffffffffffff1916815260200190815260200160002060009054906101000a900460ff169050919050565b606060068054600181600116156101000203166002900480601f016020809104026020016040519081016040528092919081815260200182805460018160011615610100020316600290048015610ae35780601f10610ab857610100808354040283529160200191610ae3565b820191906000526020600020905b815481529060010190602001808311610ac657829003601f168201915b5050505050905090565b6000610af882611b20565b610b4d576040517f08c379a000000000000000000000000000000000000000000000000000000000815260040180806020018281038252602c815260200180613382602c913960400191505060405180910390fd5b6004600083815260200190815260200160002060009054906101000a900473ffffffffffffffffffffffffffffffffffffffff169050919050565b6000610b9382610f88565b90508073ffffffffffffffffffffffffffffffffffffffff168373ffffffffffffffffffffffffffffffffffffffff161415610c1a576040517f08c379a00000000000000000000000000000000000000000000000000000000081526004018080602001828103825260218152602001806134066021913960400191505060405180910390fd5b8073ffffffffffffffffffffffffffffffffffffffff16610c39611b3d565b73ffffffffffffffffffffffffffffffffffffffff161480610c685750610c6781610c62611b3d565b611897565b5b610cbd576040517f08c379a00000000000000000000000000000000000000000000000000000000081526004018080602001828103825260388152602001806132d56038913960400191505060405180910390fd5b610cc78383611b45565b505050565b6000610cd86002611bfe565b905090565b6000610ce7611b3d565b73ffffffffffffffffffffffffffffffffffffffff16610d056112a6565b73ffffffffffffffffffffffffffffffffffffffff1614610d8e576040517f08c379a00000000000000000000000000000000000000000000000000000000081526004018080602001828103825260208152602001807f4f776e61626c653a2063616c6c6572206973206e6f7420746865206f776e657281525060200191505060405180910390fd5b610d98600b611c13565b6000610da4600b611c29565b9050610db08382611c37565b80915050919050565b610dca610dc4611b3d565b82611e2b565b610e1f576040517f08c379a00000000000000000000000000000000000000000000000000000000081526004018080602001828103825260318152602001806134276031913960400191505060405180910390fd5b610e2a838383611f1f565b505050565b6000610e8282600160008673ffffffffffffffffffffffffffffffffffffffff1673ffffffffffffffffffffffffffffffffffffffff16815260200190815260200160002061216290919063ffffffff16565b905092915050565b610e92611b3d565b73ffffffffffffffffffffffffffffffffffffffff16610eb06112a6565b73ffffffffffffffffffffffffffffffffffffffff1614610f39576040517f08c379a00000000000000000000000000000000000000000000000000000000081526004018080602001828103825260208152602001807f4f776e61626c653a2063616c6c6572206973206e6f7420746865206f776e657281525060200191505060405180910390fd5b610f428161217c565b50565b610f608383836040518060200160405280600081525061154e565b505050565b600080610f7c8360026122b690919063ffffffff16565b50905080915050919050565b6000610fb8826040518060600160405280602981526020016133376029913960026122e29092919063ffffffff16565b9050919050565b606060098054600181600116156101000203166002900480601f0160208091040260200160405190810160405280929190818152602001828054600181600116156101000203166002900480156110575780601f1061102c57610100808354040283529160200191611057565b820191906000526020600020905b81548152906001019060200180831161103a57829003601f168201915b5050505050905090565b60008073ffffffffffffffffffffffffffffffffffffffff168273ffffffffffffffffffffffffffffffffffffffff1614156110e8576040517f08c379a000000000000000000000000000000000000000000000000000000000815260040180806020018281038252602a81526020018061330d602a913960400191505060405180910390fd5b61112f600160008473ffffffffffffffffffffffffffffffffffffffff1673ffffffffffffffffffffffffffffffffffffffff168152602001908152602001600020612301565b9050919050565b61113e611b3d565b73ffffffffffffffffffffffffffffffffffffffff1661115c6112a6565b73ffffffffffffffffffffffffffffffffffffffff16146111e5576040517f08c379a00000000000000000000000000000000000000000000000000000000081526004018080602001828103825260208152602001807f4f776e61626c653a2063616c6c6572206973206e6f7420746865206f776e657281525060200191505060405180910390fd5b600073ffffffffffffffffffffffffffffffffffffffff16600a60009054906101000a900473ffffffffffffffffffffffffffffffffffffffff1673ffffffffffffffffffffffffffffffffffffffff167f8be0079c531659141344cd1fd0a4f28419497f9722a3daafe3b4186f6b6457e060405160405180910390a36000600a60006101000a81548173ffffffffffffffffffffffffffffffffffffffff021916908373ffffffffffffffffffffffffffffffffffffffff160217905550565b6000600a60009054906101000a900473ffffffffffffffffffffffffffffffffffffffff16905090565b606060078054600181600116156101000203166002900480601f0160208091040260200160405190810160405280929190818152602001828054600181600116156101000203166002900480156113685780601f1061133d57610100808354040283529160200191611368565b820191906000526020600020905b81548152906001019060200180831161134b57829003601f168201915b5050505050905090565b600c60009054906101000a900473ffffffffffffffffffffffffffffffffffffffff1681565b6113a0611b3d565b73ffffffffffffffffffffffffffffffffffffffff168273ffffffffffffffffffffffffffffffffffffffff161415611441576040517f08c379a00000000000000000000000000000000000000000000000000000000081526004018080602001828103825260198152602001807f4552433732313a20617070726f766520746f2063616c6c65720000000000000081525060200191505060405180910390fd5b806005600061144e611b3d565b73ffffffffffffffffffffffffffffffffffffffff1673ffffffffffffffffffffffffffffffffffffffff16815260200190815260200160002060008473ffffffffffffffffffffffffffffffffffffffff1673ffffffffffffffffffffffffffffffffffffffff16815260200190815260200160002060006101000a81548160ff0219169083151502179055508173ffffffffffffffffffffffffffffffffffffffff166114fb611b3d565b73ffffffffffffffffffffffffffffffffffffffff167f17307eab39ab6107e8899845ad3d59bd9653f200f220920489ca2b5937696c318360405180821515815260200191505060405180910390a35050565b61155f611559611b3d565b83611e2b565b6115b4576040517f08c379a00000000000000000000000000000000000000000000000000000000081526004018080602001828103825260318152602001806134276031913960400191505060405180910390fd5b6115c084848484612316565b50505050565b60606115d182611b20565b611626576040517f08c379a000000000000000000000000000000000000000000000000000000000815260040180806020018281038252602f8152602001806133d7602f913960400191505060405180910390fd5b6060600860008481526020019081526020016000208054600181600116156101000203166002900480601f0160208091040260200160405190810160405280929190818152602001828054600181600116156101000203166002900480156116cf5780601f106116a4576101008083540402835291602001916116cf565b820191906000526020600020905b8154815290600101906020018083116116b257829003601f168201915b5050505050905060606116e0610fbf565b90506000815114156116f6578192505050611892565b6000825111156117c75780826040516020018083805190602001908083835b602083106117385780518252602082019150602081019050602083039250611715565b6001836020036101000a03801982511681845116808217855250505050505090500182805190602001908083835b602083106117895780518252602082019150602081019050602083039250611766565b6001836020036101000a0380198251168184511680821785525050505050509050019250505060405160208183030381529060405292505050611892565b806117d185612388565b6040516020018083805190602001908083835b6020831061180757805182526020820191506020810190506020830392506117e4565b6001836020036101000a03801982511681845116808217855250505050505090500182805190602001908083835b602083106118585780518252602082019150602081019050602083039250611835565b6001836020036101000a03801982511681845116808217855250505050505090500192505050604051602081830303815290604052925050505b919050565b6000600560008473ffffffffffffffffffffffffffffffffffffffff1673ffffffffffffffffffffffffffffffffffffffff16815260200190815260200160002060008373ffffffffffffffffffffffffffffffffffffffff1673ffffffffffffffffffffffffffffffffffffffff16815260200190815260200160002060009054906101000a900460ff16905092915050565b611933611b3d565b73ffffffffffffffffffffffffffffffffffffffff166119516112a6565b73ffffffffffffffffffffffffffffffffffffffff16146119da576040517f08c379a00000000000000000000000000000000000000000000000000000000081526004018080602001828103825260208152602001807f4f776e61626c653a2063616c6c6572206973206e6f7420746865206f776e657281525060200191505060405180910390fd5b600073ffffffffffffffffffffffffffffffffffffffff168173ffffffffffffffffffffffffffffffffffffffff161415611a60576040517f08c379a00000000000000000000000000000000000000000000000000000000081526004018080602001828103825260268152602001806132396026913960400191505060405180910390fd5b8073ffffffffffffffffffffffffffffffffffffffff16600a60009054906101000a900473ffffffffffffffffffffffffffffffffffffffff1673ffffffffffffffffffffffffffffffffffffffff167f8be0079c531659141344cd1fd0a4f28419497f9722a3daafe3b4186f6b6457e060405160405180910390a380600a60006101000a81548173ffffffffffffffffffffffffffffffffffffffff021916908373ffffffffffffffffffffffffffffffffffffffff16021790555050565b6000611b368260026124cf90919063ffffffff16565b9050919050565b600033905090565b816004600083815260200190815260200160002060006101000a81548173ffffffffffffffffffffffffffffffffffffffff021916908373ffffffffffffffffffffffffffffffffffffffff160217905550808273ffffffffffffffffffffffffffffffffffffffff16611bb883610f88565b73ffffffffffffffffffffffffffffffffffffffff167f8c5be1e5ebec7d5bd14f71427d1e84f3dd0314c0f7b2291e5b200ac8c7c3b92560405160405180910390a45050565b6000611c0c826000016124e9565b9050919050565b6001816000016000828254019250508190555050565b600081600001549050919050565b600073ffffffffffffffffffffffffffffffffffffffff168273ffffffffffffffffffffffffffffffffffffffff161415611cda576040517f08c379a00000000000000000000000000000000000000000000000000000000081526004018080602001828103825260208152602001807f4552433732313a206d696e7420746f20746865207a65726f206164647265737381525060200191505060405180910390fd5b611ce381611b20565b15611d56576040517f08c379a000000000000000000000000000000000000000000000000000000000815260040180806020018281038252601c8152602001807f4552433732313a20746f6b656e20616c7265616479206d696e7465640000000081525060200191505060405180910390fd5b611d62600083836124fa565b611db381600160008573ffffffffffffffffffffffffffffffffffffffff1673ffffffffffffffffffffffffffffffffffffffff16815260200190815260200160002061268d90919063ffffffff16565b50611dca818360026126a79092919063ffffffff16565b50808273ffffffffffffffffffffffffffffffffffffffff16600073ffffffffffffffffffffffffffffffffffffffff167fddf252ad1be2c89b69c2b068fc378daa952ba7f163c4a11628f55a4df523b3ef60405160405180910390a45050565b6000611e3682611b20565b611e8b576040517f08c379a000000000000000000000000000000000000000000000000000000000815260040180806020018281038252602c8152602001806132a9602c913960400191505060405180910390fd5b6000611e9683610f88565b90508073ffffffffffffffffffffffffffffffffffffffff168473ffffffffffffffffffffffffffffffffffffffff161480611f0557508373ffffffffffffffffffffffffffffffffffffffff16611eed84610aed565b73ffffffffffffffffffffffffffffffffffffffff16145b80611f165750611f158185611897565b5b91505092915050565b8273ffffffffffffffffffffffffffffffffffffffff16611f3f82610f88565b73ffffffffffffffffffffffffffffffffffffffff1614611fab576040517f08c379a00000000000000000000000000000000000000000000000000000000081526004018080602001828103825260298152602001806133ae6029913960400191505060405180910390fd5b600073ffffffffffffffffffffffffffffffffffffffff168273ffffffffffffffffffffffffffffffffffffffff161415612031576040517f08c379a000000000000000000000000000000000000000000000000000000000815260040180806020018281038252602481526020018061325f6024913960400191505060405180910390fd5b61203c8383836124fa565b612047600082611b45565b61209881600160008673ffffffffffffffffffffffffffffffffffffffff1673ffffffffffffffffffffffffffffffffffffffff1681526020019081526020016000206126dc90919063ffffffff16565b506120ea81600160008573ffffffffffffffffffffffffffffffffffffffff1673ffffffffffffffffffffffffffffffffffffffff16815260200190815260200160002061268d90919063ffffffff16565b50612101818360026126a79092919063ffffffff16565b50808273ffffffffffffffffffffffffffffffffffffffff168473ffffffffffffffffffffffffffffffffffffffff167fddf252ad1be2c89b69c2b068fc378daa952ba7f163c4a11628f55a4df523b3ef60405160405180910390a4505050565b600061217183600001836126f6565b60001c905092915050565b600061218782610f88565b9050612195816000846124fa565b6121a0600083611b45565b600060086000848152602001908152602001600020805460018160011615610100020316600290049050146121ef576008600083815260200190815260200160002060006121ee919061317f565b5b61224082600160008473ffffffffffffffffffffffffffffffffffffffff1673ffffffffffffffffffffffffffffffffffffffff1681526020019081526020016000206126dc90919063ffffffff16565b5061225582600261277990919063ffffffff16565b5081600073ffffffffffffffffffffffffffffffffffffffff168273ffffffffffffffffffffffffffffffffffffffff167fddf252ad1be2c89b69c2b068fc378daa952ba7f163c4a11628f55a4df523b3ef60405160405180910390a45050565b6000806000806122c98660000186612793565b915091508160001c8160001c9350935050509250929050565b60006122f5846000018460001b8461282c565b60001c90509392505050565b600061230f82600001612922565b9050919050565b612321848484611f1f565b61232d84848484612933565b612382576040517f08c379a00000000000000000000000000000000000000000000000000000000081526004018080602001828103825260328152602001806132076032913960400191505060405180910390fd5b50505050565b606060008214156123d0576040518060400160405280600181526020017f300000000000000000000000000000000000000000000000000000000000000081525090506124ca565b600082905060005b600082146123fa578080600101915050600a82816123f257fe5b0491506123d8565b60608167ffffffffffffffff8111801561241357600080fd5b506040519080825280601f01601f1916602001820160405280156124465781602001600182028036833780820191505090505b50905060006001830390508593505b600084146124c257600a848161246757fe5b0660300160f81b8282806001900393508151811061248157fe5b60200101907effffffffffffffffffffffffffffffffffffffffffffffffffffffffffffff1916908160001a905350600a84816124ba57fe5b049350612455565b819450505050505b919050565b60006124e1836000018360001b612b4c565b905092915050565b600081600001805490509050919050565b600c60009054906101000a900473ffffffffffffffffffffffffffffffffffffffff1673ffffffffffffffffffffffffffffffffffffffff166321d6ff46826040518263ffffffff1660e01b81526004018082815260200191505060206040518083038186803b15801561256d57600080fd5b505afa158015612581573d6000803e3d6000fd5b505050506040513d602081101561259757600080fd5b8101908080519060200190929190505050806125df5750600073ffffffffffffffffffffffffffffffffffffffff168373ffffffffffffffffffffffffffffffffffffffff16145b806126165750600073ffffffffffffffffffffffffffffffffffffffff168273ffffffffffffffffffffffffffffffffffffffff16145b612688576040517f08c379a00000000000000000000000000000000000000000000000000000000081526004018080602001828103825260148152602001807f554f50543a6f776e6572736869702f64656c656700000000000000000000000081525060200191505060405180910390fd5b505050565b600061269f836000018360001b612b6f565b905092915050565b60006126d3846000018460001b8473ffffffffffffffffffffffffffffffffffffffff1660001b612bdf565b90509392505050565b60006126ee836000018360001b612cbb565b905092915050565b600081836000018054905011612757576040517f08c379a00000000000000000000000000000000000000000000000000000000081526004018080602001828103825260228152602001806131e56022913960400191505060405180910390fd5b82600001828154811061276657fe5b9060005260206000200154905092915050565b600061278b836000018360001b612da3565b905092915050565b600080828460000180549050116127f5576040517f08c379a00000000000000000000000000000000000000000000000000000000081526004018080602001828103825260228152602001806133606022913960400191505060405180910390fd5b600084600001848154811061280657fe5b906000526020600020906002020190508060000154816001015492509250509250929050565b600080846001016000858152602001908152602001600020549050600081141583906128f3576040517f08c379a00000000000000000000000000000000000000000000000000000000081526004018080602001828103825283818151815260200191508051906020019080838360005b838110156128b857808201518184015260208101905061289d565b50505050905090810190601f1680156128e55780820380516001836020036101000a031916815260200191505b509250505060405180910390fd5b5084600001600182038154811061290657fe5b9060005260206000209060020201600101549150509392505050565b600081600001805490509050919050565b60006129548473ffffffffffffffffffffffffffffffffffffffff16612ebc565b6129615760019050612b44565b6060612acb63150b7a0260e01b612976611b3d565b888787604051602401808573ffffffffffffffffffffffffffffffffffffffff1681526020018473ffffffffffffffffffffffffffffffffffffffff16815260200183815260200180602001828103825283818151815260200191508051906020019080838360005b838110156129fa5780820151818401526020810190506129df565b50505050905090810190601f168015612a275780820380516001836020036101000a031916815260200191505b5095505050505050604051602081830303815290604052907bffffffffffffffffffffffffffffffffffffffffffffffffffffffff19166020820180517bffffffffffffffffffffffffffffffffffffffffffffffffffffffff8381831617835250505050604051806060016040528060328152602001613207603291398773ffffffffffffffffffffffffffffffffffffffff16612ecf9092919063ffffffff16565b90506000818060200190516020811015612ae457600080fd5b8101908080519060200190929190505050905063150b7a0260e01b7bffffffffffffffffffffffffffffffffffffffffffffffffffffffff1916817bffffffffffffffffffffffffffffffffffffffffffffffffffffffff191614925050505b949350505050565b600080836001016000848152602001908152602001600020541415905092915050565b6000612b7b8383612ee7565b612bd4578260000182908060018154018082558091505060019003906000526020600020016000909190919091505582600001805490508360010160008481526020019081526020016000208190555060019050612bd9565b600090505b92915050565b6000808460010160008581526020019081526020016000205490506000811415612c8657846000016040518060400160405280868152602001858152509080600181540180825580915050600190039060005260206000209060020201600090919091909150600082015181600001556020820151816001015550508460000180549050856001016000868152602001908152602001600020819055506001915050612cb4565b82856000016001830381548110612c9957fe5b90600052602060002090600202016001018190555060009150505b9392505050565b60008083600101600084815260200190815260200160002054905060008114612d975760006001820390506000600186600001805490500390506000866000018281548110612d0657fe5b9060005260206000200154905080876000018481548110612d2357fe5b9060005260206000200181905550600183018760010160008381526020019081526020016000208190555086600001805480612d5b57fe5b60019003818190600052602060002001600090559055866001016000878152602001908152602001600020600090556001945050505050612d9d565b60009150505b92915050565b60008083600101600084815260200190815260200160002054905060008114612eb05760006001820390506000600186600001805490500390506000866000018281548110612dee57fe5b9060005260206000209060020201905080876000018481548110612e0e57fe5b9060005260206000209060020201600082015481600001556001820154816001015590505060018301876001016000836000015481526020019081526020016000208190555086600001805480612e6157fe5b6001900381819060005260206000209060020201600080820160009055600182016000905550509055866001016000878152602001908152602001600020600090556001945050505050612eb6565b60009150505b92915050565b600080823b905060008111915050919050565b6060612ede8484600085612f0a565b90509392505050565b600080836001016000848152602001908152602001600020541415905092915050565b606082471015612f65576040517f08c379a00000000000000000000000000000000000000000000000000000000081526004018080602001828103825260268152602001806132836026913960400191505060405180910390fd5b612f6e85612ebc565b612fe0576040517f08c379a000000000000000000000000000000000000000000000000000000000815260040180806020018281038252601d8152602001807f416464726573733a2063616c6c20746f206e6f6e2d636f6e747261637400000081525060200191505060405180910390fd5b600060608673ffffffffffffffffffffffffffffffffffffffff1685876040518082805190602001908083835b60208310613030578051825260208201915060208101905060208303925061300d565b6001836020036101000a03801982511681845116808217855250505050505090500191505060006040518083038185875af1925050503d8060008114613092576040519150601f19603f3d011682016040523d82523d6000602084013e613097565b606091505b50915091506130a78282866130b3565b92505050949350505050565b606083156130c357829050613178565b6000835111156130d65782518084602001fd5b816040517f08c379a00000000000000000000000000000000000000000000000000000000081526004018080602001828103825283818151815260200191508051906020019080838360005b8381101561313d578082015181840152602081019050613122565b50505050905090810190601f16801561316a5780820380516001836020036101000a031916815260200191505b509250505060405180910390fd5b9392505050565b50805460018160011615610100020316600290046000825580601f106131a557506131c4565b601f0160209004906000526020600020908101906131c391906131c7565b5b50565b5b808211156131e05760008160009055506001016131c8565b509056fe456e756d657261626c655365743a20696e646578206f7574206f6620626f756e64734552433732313a207472616e7366657220746f206e6f6e20455243373231526563656976657220696d706c656d656e7465724f776e61626c653a206e6577206f776e657220697320746865207a65726f20616464726573734552433732313a207472616e7366657220746f20746865207a65726f2061646472657373416464726573733a20696e73756666696369656e742062616c616e636520666f722063616c6c4552433732313a206f70657261746f7220717565727920666f72206e6f6e6578697374656e7420746f6b656e4552433732313a20617070726f76652063616c6c6572206973206e6f74206f776e6572206e6f7220617070726f76656420666f7220616c6c4552433732313a2062616c616e636520717565727920666f7220746865207a65726f20616464726573734552433732313a206f776e657220717565727920666f72206e6f6e6578697374656e7420746f6b656e456e756d657261626c654d61703a20696e646578206f7574206f6620626f756e64734552433732313a20617070726f76656420717565727920666f72206e6f6e6578697374656e7420746f6b656e4552433732313a207472616e73666572206f6620746f6b656e2074686174206973206e6f74206f776e4552433732314d657461646174613a2055524920717565727920666f72206e6f6e6578697374656e7420746f6b656e4552433732313a20617070726f76616c20746f2063757272656e74206f776e65724552433732313a207472616e736665722063616c6c6572206973206e6f74206f776e6572206e6f7220617070726f766564a26469706673582212200b02287f00c8e9249946c3f865b1e89c1c10f03be77ee8c814421b92a10a06ef64736f6c634300060c00334f776e61626c653a206e6577206f776e657220697320746865207a65726f2061646472657373",
  "immutableReferences": {},
  "source": "// SPDX-License-Identifier: UNLICENSED\n\npragma solidity ^0.6.12;\n\n// Main collectible contract, wrapping NFT-compatible options\n\nimport \"@openzeppelin/contracts/token/ERC721/ERC721.sol\";\nimport \"@openzeppelin/contracts/utils/Counters.sol\";\nimport \"@openzeppelin/contracts/access/Ownable.sol\";\nimport \"./interfaces/IOptionChef.sol\";\n\ncontract Hegexoption is ERC721, Ownable  {\n    using Counters for Counters.Counter;\n    Counters.Counter private _tokenIds;\n\n\n    //storage\n    IOptionChef public optionChef;\n\n    constructor(IOptionChef _optionChef, string memory _base) ERC721(\"Hegexoption\", \"UOPT\") public {\n        optionChef = _optionChef;\n        transferOwnership(address(_optionChef));\n        _setBaseURI(_base);\n    }\n\n    /**\n     * @notice Mint shiny Hegexoption, Chef only\n     * @param _to Beneficiary\n     */\n    function mintHegexoption(address _to) public onlyOwner returns (uint256)\n    {\n        _tokenIds.increment();\n        uint256 newItemId = _tokenIds.current();\n        _mint(_to, newItemId);\n        //meta will be automatically set to BASE_URL/newItemId\n        // _setTokenURI(newItemId, tokenURI);\n        return newItemId;\n    }\n\n    /**\n\n     * @notice Burn option shell, Chef only\n     * @notice Might be removed in favour of off-chain metadata-based deprecation\n     * @param _id Token ID\n     */\n    function burnHegexoption(uint _id) public onlyOwner {\n        _burn(_id);\n    }\n\n    /**\n     * @notice Overcoming Hegic absence of approval mechanism to mint in one tx\n     * @notice Lock token transfers unless (un)wrapping\n     */\n    function _beforeTokenTransfer(address _from, address _to, uint256 _tokenId) internal override {\n        require(optionChef.isDelegated(_tokenId) || _from == address(0) || _to == address(0), \"UOPT:ownership/deleg\");\n    }\n\n}\n",
  "sourcePath": "/home/stack/work/d0xhegex/contracts/Hegexoption.sol",
  "compiler": {
    "name": "solc",
    "version": "0.6.12+commit.27d51765.Emscripten.clang"
  },
  "schemaVersion": "3.3.4",
  "updatedAt": "2021-03-21T14:23:46.789Z",
  "networkType": "ethereum",
  "devdoc": {
    "kind": "dev",
    "methods": {
      "approve(address,uint256)": {
        "details": "See {IERC721-approve}."
      },
      "balanceOf(address)": {
        "details": "See {IERC721-balanceOf}."
      },
      "baseURI()": {
        "details": "Returns the base URI set via {_setBaseURI}. This will be automatically added as a prefix in {tokenURI} to each token's URI, or to the token ID if no specific URI is set for that token ID."
      },
      "burnHegexoption(uint256)": {
        "params": {
          "_id": "Token ID"
        }
      },
      "getApproved(uint256)": {
        "details": "See {IERC721-getApproved}."
      },
      "isApprovedForAll(address,address)": {
        "details": "See {IERC721-isApprovedForAll}."
      },
      "mintHegexoption(address)": {
        "params": {
          "_to": "Beneficiary"
        }
      },
      "name()": {
        "details": "See {IERC721Metadata-name}."
      },
      "owner()": {
        "details": "Returns the address of the current owner."
      },
      "ownerOf(uint256)": {
        "details": "See {IERC721-ownerOf}."
      },
      "renounceOwnership()": {
        "details": "Leaves the contract without owner. It will not be possible to call `onlyOwner` functions anymore. Can only be called by the current owner. NOTE: Renouncing ownership will leave the contract without an owner, thereby removing any functionality that is only available to the owner."
      },
      "safeTransferFrom(address,address,uint256)": {
        "details": "See {IERC721-safeTransferFrom}."
      },
      "safeTransferFrom(address,address,uint256,bytes)": {
        "details": "See {IERC721-safeTransferFrom}."
      },
      "setApprovalForAll(address,bool)": {
        "details": "See {IERC721-setApprovalForAll}."
      },
      "supportsInterface(bytes4)": {
        "details": "See {IERC165-supportsInterface}. Time complexity O(1), guaranteed to always use less than 30 000 gas."
      },
      "symbol()": {
        "details": "See {IERC721Metadata-symbol}."
      },
      "tokenByIndex(uint256)": {
        "details": "See {IERC721Enumerable-tokenByIndex}."
      },
      "tokenOfOwnerByIndex(address,uint256)": {
        "details": "See {IERC721Enumerable-tokenOfOwnerByIndex}."
      },
      "tokenURI(uint256)": {
        "details": "See {IERC721Metadata-tokenURI}."
      },
      "totalSupply()": {
        "details": "See {IERC721Enumerable-totalSupply}."
      },
      "transferFrom(address,address,uint256)": {
        "details": "See {IERC721-transferFrom}."
      },
      "transferOwnership(address)": {
        "details": "Transfers ownership of the contract to a new account (`newOwner`). Can only be called by the current owner."
      }
    },
    "version": 1
  },
  "userdoc": {
    "kind": "user",
    "methods": {
      "burnHegexoption(uint256)": {
        "notice": "Burn option shell, Chef onlyMight be removed in favour of off-chain metadata-based deprecation"
      },
      "mintHegexoption(address)": {
        "notice": "Mint shiny Hegexoption, Chef only"
      }
    },
    "version": 1
  }
}