{
  "contractName": "HegicETHOptions",
  "abi": [
    {
      "inputs": [
        {
          "internalType": "contract AggregatorV3Interface",
          "name": "pp",
          "type": "address"
        },
        {
          "internalType": "contract IHegicStakingETH",
          "name": "staking",
          "type": "address"
        },
        {
          "internalType": "contract HegicETHPool",
          "name": "_pool",
          "type": "address"
        }
      ],
      "stateMutability": "nonpayable",
      "type": "constructor"
    },
    {
      "anonymous": false,
      "inputs": [
        {
          "indexed": true,
          "internalType": "uint256",
          "name": "id",
          "type": "uint256"
        },
        {
          "indexed": true,
          "internalType": "address",
          "name": "account",
          "type": "address"
        },
        {
          "indexed": false,
          "internalType": "uint256",
          "name": "settlementFee",
          "type": "uint256"
        },
        {
          "indexed": false,
          "internalType": "uint256",
          "name": "totalFee",
          "type": "uint256"
        }
      ],
      "name": "Create",
      "type": "event"
    },
    {
      "anonymous": false,
      "inputs": [
        {
          "indexed": true,
          "internalType": "uint256",
          "name": "id",
          "type": "uint256"
        },
        {
          "indexed": false,
          "internalType": "uint256",
          "name": "profit",
          "type": "uint256"
        }
      ],
      "name": "Exercise",
      "type": "event"
    },
    {
      "anonymous": false,
      "inputs": [
        {
          "indexed": true,
          "internalType": "uint256",
          "name": "id",
          "type": "uint256"
        },
        {
          "indexed": false,
          "internalType": "uint256",
          "name": "premium",
          "type": "uint256"
        }
      ],
      "name": "Expire",
      "type": "event"
    },
    {
      "anonymous": false,
      "inputs": [
        {
          "indexed": true,
          "internalType": "address",
          "name": "previousOwner",
          "type": "address"
        },
        {
          "indexed": true,
          "internalType": "address",
          "name": "newOwner",
          "type": "address"
        }
      ],
      "name": "OwnershipTransferred",
      "type": "event"
    },
    {
      "inputs": [
        {
          "internalType": "uint256",
          "name": "period",
          "type": "uint256"
        },
        {
          "internalType": "uint256",
          "name": "amount",
          "type": "uint256"
        },
        {
          "internalType": "uint256",
          "name": "strike",
          "type": "uint256"
        },
        {
          "internalType": "enum IHegicOptions.OptionType",
          "name": "optionType",
          "type": "uint8"
        }
      ],
      "name": "create",
      "outputs": [
        {
          "internalType": "uint256",
          "name": "optionID",
          "type": "uint256"
        }
      ],
      "stateMutability": "payable",
      "type": "function"
    },
    {
      "inputs": [
        {
          "internalType": "uint256",
          "name": "optionID",
          "type": "uint256"
        }
      ],
      "name": "exercise",
      "outputs": [],
      "stateMutability": "nonpayable",
      "type": "function"
    },
    {
      "inputs": [
        {
          "internalType": "uint256",
          "name": "period",
          "type": "uint256"
        },
        {
          "internalType": "uint256",
          "name": "amount",
          "type": "uint256"
        },
        {
          "internalType": "uint256",
          "name": "strike",
          "type": "uint256"
        },
        {
          "internalType": "enum IHegicOptions.OptionType",
          "name": "optionType",
          "type": "uint8"
        }
      ],
      "name": "fees",
      "outputs": [
        {
          "internalType": "uint256",
          "name": "total",
          "type": "uint256"
        },
        {
          "internalType": "uint256",
          "name": "settlementFee",
          "type": "uint256"
        },
        {
          "internalType": "uint256",
          "name": "strikeFee",
          "type": "uint256"
        },
        {
          "internalType": "uint256",
          "name": "periodFee",
          "type": "uint256"
        }
      ],
      "stateMutability": "view",
      "type": "function"
    },
    {
      "inputs": [],
      "name": "impliedVolRate",
      "outputs": [
        {
          "internalType": "uint256",
          "name": "",
          "type": "uint256"
        }
      ],
      "stateMutability": "view",
      "type": "function"
    },
    {
      "inputs": [
        {
          "internalType": "uint256",
          "name": "count",
          "type": "uint256"
        }
      ],
      "name": "migrate",
      "outputs": [],
      "stateMutability": "nonpayable",
      "type": "function"
    },
    {
      "inputs": [],
      "name": "optionCollateralizationRatio",
      "outputs": [
        {
          "internalType": "uint256",
          "name": "",
          "type": "uint256"
        }
      ],
      "stateMutability": "view",
      "type": "function"
    },
    {
      "inputs": [
        {
          "internalType": "uint256",
          "name": "",
          "type": "uint256"
        }
      ],
      "name": "options",
      "outputs": [
        {
          "internalType": "enum IHegicOptions.State",
          "name": "state",
          "type": "uint8"
        },
        {
          "internalType": "address payable",
          "name": "holder",
          "type": "address"
        },
        {
          "internalType": "uint256",
          "name": "strike",
          "type": "uint256"
        },
        {
          "internalType": "uint256",
          "name": "amount",
          "type": "uint256"
        },
        {
          "internalType": "uint256",
          "name": "lockedAmount",
          "type": "uint256"
        },
        {
          "internalType": "uint256",
          "name": "premium",
          "type": "uint256"
        },
        {
          "internalType": "uint256",
          "name": "expiration",
          "type": "uint256"
        },
        {
          "internalType": "enum IHegicOptions.OptionType",
          "name": "optionType",
          "type": "uint8"
        }
      ],
      "stateMutability": "view",
      "type": "function"
    },
    {
      "inputs": [],
      "name": "owner",
      "outputs": [
        {
          "internalType": "address",
          "name": "",
          "type": "address"
        }
      ],
      "stateMutability": "view",
      "type": "function"
    },
    {
      "inputs": [],
      "name": "pool",
      "outputs": [
        {
          "internalType": "contract HegicETHPool",
          "name": "",
          "type": "address"
        }
      ],
      "stateMutability": "view",
      "type": "function"
    },
    {
      "inputs": [],
      "name": "priceProvider",
      "outputs": [
        {
          "internalType": "contract AggregatorV3Interface",
          "name": "",
          "type": "address"
        }
      ],
      "stateMutability": "view",
      "type": "function"
    },
    {
      "inputs": [],
      "name": "renounceOwnership",
      "outputs": [],
      "stateMutability": "nonpayable",
      "type": "function"
    },
    {
      "inputs": [
        {
          "internalType": "uint256",
          "name": "value",
          "type": "uint256"
        }
      ],
      "name": "setImpliedVolRate",
      "outputs": [],
      "stateMutability": "nonpayable",
      "type": "function"
    },
    {
      "inputs": [
        {
          "internalType": "address",
          "name": "oldAddr",
          "type": "address"
        }
      ],
      "name": "setOldHegicETHOptions",
      "outputs": [],
      "stateMutability": "nonpayable",
      "type": "function"
    },
    {
      "inputs": [
        {
          "internalType": "uint256",
          "name": "value",
          "type": "uint256"
        }
      ],
      "name": "setOptionCollaterizationRatio",
      "outputs": [],
      "stateMutability": "nonpayable",
      "type": "function"
    },
    {
      "inputs": [
        {
          "internalType": "contract IHegicStakingETH",
          "name": "recipient",
          "type": "address"
        }
      ],
      "name": "setSettlementFeeRecipient",
      "outputs": [],
      "stateMutability": "nonpayable",
      "type": "function"
    },
    {
      "inputs": [],
      "name": "settlementFeeRecipient",
      "outputs": [
        {
          "internalType": "contract IHegicStakingETH",
          "name": "",
          "type": "address"
        }
      ],
      "stateMutability": "view",
      "type": "function"
    },
    {
      "inputs": [],
      "name": "stopMigrationProcess",
      "outputs": [],
      "stateMutability": "nonpayable",
      "type": "function"
    },
    {
      "inputs": [
        {
          "internalType": "uint256",
          "name": "optionID",
          "type": "uint256"
        },
        {
          "internalType": "address payable",
          "name": "newHolder",
          "type": "address"
        }
      ],
      "name": "transfer",
      "outputs": [],
      "stateMutability": "nonpayable",
      "type": "function"
    },
    {
      "inputs": [
        {
          "internalType": "address",
          "name": "newOwner",
          "type": "address"
        }
      ],
      "name": "transferOwnership",
      "outputs": [],
      "stateMutability": "nonpayable",
      "type": "function"
    },
    {
      "inputs": [],
      "name": "transferPoolOwnership",
      "outputs": [],
      "stateMutability": "nonpayable",
      "type": "function"
    },
    {
      "inputs": [
        {
          "internalType": "uint256",
          "name": "optionID",
          "type": "uint256"
        }
      ],
      "name": "unlock",
      "outputs": [],
      "stateMutability": "nonpayable",
      "type": "function"
    },
    {
      "inputs": [
        {
          "internalType": "uint256[]",
          "name": "optionIDs",
          "type": "uint256[]"
        }
      ],
      "name": "unlockAll",
      "outputs": [],
      "stateMutability": "nonpayable",
      "type": "function"
    }
  ],
  "bytecode": "0x608060405260646004556006805460ff1916600117905534801561002257600080fd5b506040516122813803806122818339818101604052606081101561004557600080fd5b508051602082015160409092015190919060006100606100f4565b600080546001600160a01b0319166001600160a01b0383169081178255604051929350917f8be0079c531659141344cd1fd0a4f28419497f9722a3daafe3b4186f6b6457e0908290a350600880546001600160a01b03199081166001600160a01b039384161790915560078054821694831694909417909355600180549093169116179055611194600355426005556100f8565b3390565b61217a806101076000396000f3fe6080604052600436106101355760003560e01c80638da5cb5b116100ab578063c7c3b53f1161006f578063c7c3b53f146103d3578063ceaeeba914610438578063e2bef75414610462578063e342b5981461048c578063f2fde38b14610509578063ff20f1db1461053c57610135565b80638da5cb5b1461031357806396350a8514610328578063b07f0a411461035b578063b7760c8f14610385578063b888879e146103be57610135565b8063410fa5d9116100fd578063410fa5d91461024c578063454b0608146102635780636198e3391461028d578063715018a6146102b757806380478ad1146102cc5780638cf4e8f4146102fe57610135565b806316f0115b1461013a578063181731dc1461016b57806318f88e5b14610180578063302ce651146101a7578063409e2205146101bc575b600080fd5b34801561014657600080fd5b5061014f61056f565b604080516001600160a01b039092168252519081900360200190f35b34801561017757600080fd5b5061014f61057e565b34801561018c57600080fd5b5061019561058d565b60408051918252519081900360200190f35b3480156101b357600080fd5b50610195610593565b3480156101c857600080fd5b506101e6600480360360208110156101df57600080fd5b5035610599565b604051808960038111156101f657fe5b8152602001886001600160a01b0316815260200187815260200186815260200185815260200184815260200183815260200182600281111561023457fe5b81526020019850505050505050505060405180910390f35b34801561025857600080fd5b506102616105fb565b005b34801561026f57600080fd5b506102616004803603602081101561028657600080fd5b50356106d8565b34801561029957600080fd5b50610261600480360360208110156102b057600080fd5b5035610b0b565b3480156102c357600080fd5b50610261610c8a565b610195600480360360808110156102e257600080fd5b508035906020810135906040810135906060013560ff16610d2c565b34801561030a57600080fd5b506102616111cc565b34801561031f57600080fd5b5061014f611230565b34801561033457600080fd5b506102616004803603602081101561034b57600080fd5b50356001600160a01b031661123f565b34801561036757600080fd5b506102616004803603602081101561037e57600080fd5b50356112df565b34801561039157600080fd5b50610261600480360360408110156103a857600080fd5b50803590602001356001600160a01b0316611446565b3480156103ca57600080fd5b5061014f6115e6565b3480156103df57600080fd5b50610412600480360360808110156103f657600080fd5b508035906020810135906040810135906060013560ff166115f5565b604080519485526020850193909352838301919091526060830152519081900360800190f35b34801561044457600080fd5b506102616004803603602081101561045b57600080fd5b50356116c2565b34801561046e57600080fd5b506102616004803603602081101561048557600080fd5b5035611760565b34801561049857600080fd5b50610261600480360360208110156104af57600080fd5b8101906020810181356401000000008111156104ca57600080fd5b8201836020820111156104dc57600080fd5b803590602001918460208302840111640100000000831117156104fe57600080fd5b50909250905061180e565b34801561051557600080fd5b506102616004803603602081101561052c57600080fd5b50356001600160a01b031661183d565b34801561054857600080fd5b506102616004803603602081101561055f57600080fd5b50356001600160a01b0316611935565b6008546001600160a01b031681565b6001546001600160a01b031681565b60035481565b60045481565b600281815481106105a657fe5b6000918252602090912060079091020180546001820154600283015460038401546004850154600586015460069096015460ff80871698506101009096046001600160a01b0316969495939492939192911688565b6106036119d0565b6000546001600160a01b03908116911614610653576040805162461bcd60e51b81526020600482018190526024820152600080516020612104833981519152604482015290519081900360640190fd5b6005546212750001421061066657600080fd5b6008546001600160a01b031663f2fde38b61067f611230565b6040518263ffffffff1660e01b815260040180826001600160a01b03168152602001915050600060405180830381600087803b1580156106be57600080fd5b505af11580156106d2573d6000803e3d6000fd5b50505050565b6106e06119d0565b6000546001600160a01b03908116911614610730576040805162461bcd60e51b81526020600482018190526024820152600080516020612104833981519152604482015290519081900360640190fd5b60065460ff16610787576040805162461bcd60e51b815260206004820152601b60248201527f4d6967726174696f6e2050726f636573732077617320656e6465640000000000604482015290519081900360640190fd5b60085460408051638da5cb5b60e01b8152905130926001600160a01b031691638da5cb5b916004808301926020929190829003018186803b1580156107cb57600080fd5b505afa1580156107df573d6000803e3d6000fd5b505050506040513d60208110156107f557600080fd5b50516001600160a01b03161415610853576040805162461bcd60e51b815260206004820152601f60248201527f4c697175696469747920506f6f6c20616c726561647920617474616368656400604482015290519081900360640190fd5b60065461010090046001600160a01b031661086d57600080fd5b60005b81811015610b075760025461088361203b565b6006546040805163409e220560e01b81526004810185905290516001600160a01b0361010093849004169263409e22059260248082019391829003018186803b1580156108cf57600080fd5b505afa1580156108e3573d6000803e3d6000fd5b505050506040513d6101008110156108fa57600080fd5b50805160208083015160408085015160608087015160808089015160a0808b015160c0808d015160e09d8e01519c9d9a9c989b969a94999298909790968f969087019593870194918701939087019291870191870190870188600281111561095e57fe5b600281111561096957fe5b90528890528890528890528890528890526001600160a01b038916905288600381111561099257fe5b600381111561099d57fe5b815250505050505050505060006109b782606001516119d4565b6002805460018181018355600092909252845160079091027f405787fa12a823e0f2b7631cc41b3ba8828b3321ca811111fa75cd3aa3bb5ace01805493945085939092839160ff191690836003811115610a0d57fe5b021790555060208201518160000160016101000a8154816001600160a01b0302191690836001600160a01b0316021790555060408201518160010155606082015181600201556080820151816003015560a0820151816004015560c0820151816005015560e08201518160060160006101000a81548160ff02191690836002811115610a9557fe5b0217905550505081602001516001600160a01b0316837f9acccf962da4ed9c3db3a1beedb70b0d4c3f6a69c170baca7198a74548b5ef4e83610ae4858760a001516119db90919063ffffffff16565b6040805192835260208301919091528051918290030190a3505050600101610870565b5050565b600060028281548110610b1a57fe5b9060005260206000209060070201905042816005015410610b82576040805162461bcd60e51b815260206004820152601a60248201527f4f7074696f6e20686173206e6f74206578706972656420796574000000000000604482015290519081900360640190fd5b6001815460ff166003811115610b9457fe5b14610bdd576040805162461bcd60e51b81526020600482015260146024820152734f7074696f6e206973206e6f742061637469766560601b604482015290519081900360640190fd5b805460ff1916600317815560085460408051636198e33960e01b81526004810185905290516001600160a01b0390921691636198e3399160248082019260009290919082900301818387803b158015610c3557600080fd5b505af1158015610c49573d6000803e3d6000fd5b505050600482015460408051918252518492507f5f36a4a575e512eb69d6d28c3b0ff98cca7ba50ad5bf04e14094ad1d425e0d319181900360200190a25050565b610c926119d0565b6000546001600160a01b03908116911614610ce2576040805162461bcd60e51b81526020600482018190526024820152600080516020612104833981519152604482015290519081900360640190fd5b600080546040516001600160a01b03909116907f8be0079c531659141344cd1fd0a4f28419497f9722a3daafe3b4186f6b6457e0908390a3600080546001600160a01b0319169055565b600080600080610d3e888888886115f5565b50919450925090506002856002811115610d5457fe5b1480610d6b57506001856002811115610d6957fe5b145b610db0576040805162461bcd60e51b815260206004820152601160248201527057726f6e67206f7074696f6e207479706560781b604482015290519081900360640190fd5b62015180881015610dfe576040805162461bcd60e51b815260206004820152601360248201527214195c9a5bd9081a5cc81d1bdbc81cda1bdc9d606a1b604482015290519081900360640190fd5b6224ea00881115610e4b576040805162461bcd60e51b8152602060048201526012602482015271506572696f6420697320746f6f206c6f6e6760701b604482015290519081900360640190fd5b808711610e9f576040805162461bcd60e51b815260206004820152601d60248201527f507269636520646966666572656e636520697320746f6f206c61726765000000604482015290519081900360640190fd5b82341015610ee2576040805162461bcd60e51b815260206004820152600b60248201526a57726f6e672076616c756560a81b604482015290519081900360640190fd5b82341115610f1b5760405133903485900380156108fc02916000818181858888f19350505050158015610f19573d6000803e3d6000fd5b505b6000610f278883611a3e565b60025495509050610f3661203b565b6040805161010081019091528060018152602001336001600160a01b031681526020018981526020018a8152602001610f8f85610f896064610f8360045489611a8090919063ffffffff16565b90611ad9565b906119db565b8152602001610f9e8787611a3e565b81526020018b42018152602001886002811115610fb757fe5b90526002805460018181018355600092909252825160079091027f405787fa12a823e0f2b7631cc41b3ba8828b3321ca811111fa75cd3aa3bb5ace01805493945084939092839160ff19169083600381111561100f57fe5b021790555060208201518160000160016101000a8154816001600160a01b0302191690836001600160a01b0316021790555060408201518160010155606082015181600201556080820151816003015560a0820151816004015560c0820151816005015560e08201518160060160006101000a81548160ff0219169083600281111561109757fe5b02179055505050600160009054906101000a90046001600160a01b03166001600160a01b0316634d8e9425856040518263ffffffff1660e01b81526004016000604051808303818588803b1580156110ee57600080fd5b505af1158015611102573d6000803e3d6000fd5b505060085460a0850151608086015160408051631338736f60e01b8152600481018e90526024810192909252516001600160a01b039093169550631338736f945090925060448082019260009290919082900301818588803b15801561116757600080fd5b505af115801561117b573d6000803e3d6000fd5b505060408051888152602081018a905281513395508b94507f9acccf962da4ed9c3db3a1beedb70b0d4c3f6a69c170baca7198a74548b5ef4e93509081900390910190a35050505050949350505050565b6111d46119d0565b6000546001600160a01b03908116911614611224576040805162461bcd60e51b81526020600482018190526024820152600080516020612104833981519152604482015290519081900360640190fd5b6006805460ff19169055565b6000546001600160a01b031690565b6112476119d0565b6000546001600160a01b03908116911614611297576040805162461bcd60e51b81526020600482018190526024820152600080516020612104833981519152604482015290519081900360640190fd5b600554621275000142106112aa57600080fd5b6001600160a01b0381166112bd57600080fd5b600180546001600160a01b0319166001600160a01b0392909216919091179055565b6000600282815481106112ee57fe5b90600052602060002090600702019050428160050154101561134c576040805162461bcd60e51b815260206004820152601260248201527113dc1d1a5bdb881a185cc8195e1c1a5c995960721b604482015290519081900360640190fd5b805461010090046001600160a01b031633146113a2576040805162461bcd60e51b815260206004820152601060248201526f2bb937b7339036b9b39739b2b73232b960811b604482015290519081900360640190fd5b6001815460ff1660038111156113b457fe5b146113f4576040805162461bcd60e51b815260206004820152600b60248201526a57726f6e6720737461746560a81b604482015290519081900360640190fd5b805460ff19166002178155600061140a83611b1b565b60408051828152905191925084917e84fe51c7cb34b132b7b6eb5d5a87a489f8d6d284758d00a0402c1bad9a0def9181900360200190a2505050565b60006002838154811061145557fe5b9060005260206000209060070201905060006001600160a01b0316826001600160a01b031614156114cd576040805162461bcd60e51b815260206004820152601a60248201527f6e657720686f6c6465722061646472657373206973207a65726f000000000000604482015290519081900360640190fd5b428160050154101561151b576040805162461bcd60e51b815260206004820152601260248201527113dc1d1a5bdb881a185cc8195e1c1a5c995960721b604482015290519081900360640190fd5b805461010090046001600160a01b03163314611571576040805162461bcd60e51b815260206004820152601060248201526f2bb937b7339036b9b39739b2b73232b960811b604482015290519081900360640190fd5b6001815460ff16600381111561158357fe5b146115bf5760405162461bcd60e51b81526004018080602001828103825260288152602001806120956028913960400191505060405180910390fd5b80546001600160a01b0390921661010002610100600160a81b031990921691909117905550565b6007546001600160a01b031681565b6000806000806000600760009054906101000a90046001600160a01b03166001600160a01b031663feaf968c6040518163ffffffff1660e01b815260040160a06040518083038186803b15801561164b57600080fd5b505afa15801561165f573d6000803e3d6000fd5b505050506040513d60a081101561167557600080fd5b5060200151905080611686896119d4565b9450611695898b8a848b611e15565b92506116a38989838a611e86565b93506116b385610f8985876119db565b95505050945094509450949050565b6116ca6119d0565b6000546001600160a01b0390811691161461171a576040805162461bcd60e51b81526020600482018190526024820152600080516020612104833981519152604482015290519081900360640190fd5b6103e881101561175b5760405162461bcd60e51b81526004018080602001828103825260218152602001806121246021913960400191505060405180910390fd5b600355565b6117686119d0565b6000546001600160a01b039081169116146117b8576040805162461bcd60e51b81526020600482018190526024820152600080516020612104833981519152604482015290519081900360640190fd5b806032111580156117ca575060648111155b611809576040805162461bcd60e51b815260206004820152600b60248201526a77726f6e672076616c756560a81b604482015290519081900360640190fd5b600455565b8060005b818110156106d25761183584848381811061182957fe5b90506020020135610b0b565b600101611812565b6118456119d0565b6000546001600160a01b03908116911614611895576040805162461bcd60e51b81526020600482018190526024820152600080516020612104833981519152604482015290519081900360640190fd5b6001600160a01b0381166118da5760405162461bcd60e51b81526004018080602001828103825260268152602001806120bd6026913960400191505060405180910390fd5b600080546040516001600160a01b03808516939216917f8be0079c531659141344cd1fd0a4f28419497f9722a3daafe3b4186f6b6457e091a3600080546001600160a01b0319166001600160a01b0392909216919091179055565b61193d6119d0565b6000546001600160a01b0390811691161461198d576040805162461bcd60e51b81526020600482018190526024820152600080516020612104833981519152604482015290519081900360640190fd5b60065461010090046001600160a01b0316156119a857600080fd5b600680546001600160a01b0390921661010002610100600160a81b0319909216919091179055565b3390565b6064900490565b600082820183811015611a35576040805162461bcd60e51b815260206004820152601b60248201527f536166654d6174683a206164646974696f6e206f766572666c6f770000000000604482015290519081900360640190fd5b90505b92915050565b6000611a3583836040518060400160405280601e81526020017f536166654d6174683a207375627472616374696f6e206f766572666c6f770000815250611efd565b600082611a8f57506000611a38565b82820282848281611a9c57fe5b0414611a355760405162461bcd60e51b81526004018080602001828103825260218152602001806120e36021913960400191505060405180910390fd5b6000611a3583836040518060400160405280601a81526020017f536166654d6174683a206469766973696f6e206279207a65726f000000000000815250611f94565b6000611b2561203b565b60028381548110611b3257fe5b600091825260209091206040805161010081019091526007909202018054829060ff166003811115611b6057fe5b6003811115611b6b57fe5b8152815461010090046001600160a01b0316602082015260018201546040820152600280830154606083015260038301546080830152600483015460a0830152600583015460c0830152600683015460e09092019160ff1690811115611bcd57fe5b6002811115611bd857fe5b8152505090506000600760009054906101000a90046001600160a01b03166001600160a01b031663feaf968c6040518163ffffffff1660e01b815260040160a06040518083038186803b158015611c2e57600080fd5b505afa158015611c42573d6000803e3d6000fd5b505050506040513d60a0811015611c5857600080fd5b506020015190508060028360e001516002811115611c7257fe5b1415611d01578083604001511115611cd1576040805162461bcd60e51b815260206004820152601860248201527f43757272656e7420707269636520697320746f6f206c6f770000000000000000604482015290519081900360640190fd5b611cfa81610f838560600151611cf4876040015186611a3e90919063ffffffff16565b90611a80565b9350611d80565b8083604001511015611d5a576040805162461bcd60e51b815260206004820152601960248201527f43757272656e7420707269636520697320746f6f206869676800000000000000604482015290519081900360640190fd5b611d7d81610f838560600151611cf4858860400151611a3e90919063ffffffff16565b93505b8260800151841115611d9457826080015193505b6008546020840151604080516381b34f1560e01b8152600481018990526001600160a01b03928316602482015260448101889052905191909216916381b34f1591606480830192600092919082900301818387803b158015611df557600080fd5b505af1158015611e09573d6000803e3d6000fd5b50505050505050919050565b60006001826002811115611e2557fe5b1415611e5b57611e546305f5e100610f8385610f8388611cf4600354611cf4611e4d8e611ff9565b8f90611a80565b9050611e7d565b611e546305f5e100610f8386610f8387611cf4600354611cf4611e4d8e611ff9565b95945050505050565b60008284118015611ea257506001826002811115611ea057fe5b145b15611ec057611eb983610f8387611cf48884611a3e565b9050611ef5565b8284108015611eda57506002826002811115611ed857fe5b145b15611ef157611eb983610f8387611cf48389611a3e565b5060005b949350505050565b60008184841115611f8c5760405162461bcd60e51b81526004018080602001828103825283818151815260200191508051906020019080838360005b83811015611f51578181015183820152602001611f39565b50505050905090810190601f168015611f7e5780820380516001836020036101000a031916815260200191505b509250505060405180910390fd5b505050900390565b60008183611fe35760405162461bcd60e51b8152602060048201818152835160248401528351909283926044909101919085019080838360008315611f51578181015183820152602001611f39565b506000838581611fef57fe5b0495945050505050565b80600061200c6001610f89846002611ad9565b90505b81811015612035578061202b6002610f8383610f898882611ad9565b909250905061200f565b50919050565b604080516101008101909152806000815260200160006001600160a01b0316815260200160008152602001600081526020016000815260200160008152602001600081526020016000600281111561208f57fe5b90529056fe4f6e6c7920616374697665206f7074696f6e7320636f756c64206265207472616e736665727265644f776e61626c653a206e6577206f776e657220697320746865207a65726f2061646472657373536166654d6174683a206d756c7469706c69636174696f6e206f766572666c6f774f776e61626c653a2063616c6c6572206973206e6f7420746865206f776e6572496d706c696564566f6c52617465206c696d697420697320746f6f20736d616c6ca264697066735822122092be756c402055e694443012985a5e4f018564533ffc17ab364d1616a5aeab8264736f6c634300060c0033",
  "immutableReferences": {},
  "source": "pragma solidity 0.6.12;\n\n/**\n * SPDX-License-Identifier: GPL-3.0-or-later\n * Hegic\n * Copyright (C) 2020 Hegic Protocol\n *\n * This program is free software: you can redistribute it and/or modify\n * it under the terms of the GNU General Public License as published by\n * the Free Software Foundation, either version 3 of the License, or\n * (at your option) any later version.\n *\n * This program is distributed in the hope that it will be useful,\n * but WITHOUT ANY WARRANTY; without even the implied warranty of\n * MERCHANTABILITY or FITNESS FOR A PARTICULAR PURPOSE.  See the\n * GNU General Public License for more details.\n *\n * You should have received a copy of the GNU General Public License\n * along with this program.  If not, see <http://www.gnu.org/licenses/>.\n */\n\nimport \"../Pool/HegicETHPool.sol\";\n\n\n/**\n * @author 0mllwntrmt3\n * @title Hegic ETH (Ether) Bidirectional (Call and Put) Options\n * @notice Hegic ETH Options Contract\n */\ncontract HegicETHOptions is Ownable, IHegicOptions {\n    using SafeMath for uint256;\n\n    IHegicStakingETH public settlementFeeRecipient;\n    Option[] public override options;\n    uint256 public impliedVolRate;\n    uint256 public optionCollateralizationRatio = 100;\n    uint256 internal constant PRICE_DECIMALS = 1e8;\n    uint256 internal contractCreationTimestamp;\n    bool internal migrationProcess = true;\n    HegicETHOptions private oldHegicETHOptions;\n    AggregatorV3Interface public priceProvider;\n    HegicETHPool public pool;\n\n    /**\n     * @param pp The address of ChainLink ETH/USD price feed contract\n     */\n    constructor(AggregatorV3Interface pp, IHegicStakingETH staking, HegicETHPool _pool) public {\n        pool = _pool;\n        priceProvider = pp;\n        settlementFeeRecipient = staking;\n        impliedVolRate = 4500;\n        contractCreationTimestamp = block.timestamp;\n    }\n\n    /**\n     * @notice Can be used to update the contract in critical situations\n     *         in the first 14 days after deployment\n     */\n    function transferPoolOwnership() external onlyOwner {\n        require(block.timestamp < contractCreationTimestamp + 14 days);\n        pool.transferOwnership(owner());\n    }\n\n    /**\n     * @notice Used for adjusting the options prices while balancing asset's implied volatility rate\n     * @param value New IVRate value\n     */\n    function setImpliedVolRate(uint256 value) external onlyOwner {\n        require(value >= 1000, \"ImpliedVolRate limit is too small\");\n        impliedVolRate = value;\n    }\n\n    /**\n     * @notice Used for changing settlementFeeRecipient\n     * @param recipient New settlementFee recipient address\n     */\n    function setSettlementFeeRecipient(IHegicStakingETH recipient) external onlyOwner {\n        require(block.timestamp < contractCreationTimestamp + 14 days);\n        require(address(recipient) != address(0));\n        settlementFeeRecipient = recipient;\n    }\n\n    /**\n     * @notice Used for changing option collateralization ratio\n     * @param value New optionCollateralizationRatio value\n     */\n    function setOptionCollaterizationRatio(uint value) external onlyOwner {\n        require(50 <= value && value <= 100, \"wrong value\");\n        optionCollateralizationRatio = value;\n    }\n\n    /**\n     * @notice Creates a new option\n     * @param period Option period in seconds (1 days <= period <= 4 weeks)\n     * @param amount Option amount\n     * @param strike Strike price of the option\n     * @param optionType Call or Put option type\n     * @return optionID Created option's ID\n     */\n    function create(\n        uint256 period,\n        uint256 amount,\n        uint256 strike,\n        OptionType optionType\n    )\n        external\n        payable\n        returns (uint256 optionID)\n    {\n        (uint256 total, uint256 settlementFee, uint256 strikeFee, ) = fees(\n            period,\n            amount,\n            strike,\n            optionType\n        );\n\n        require(\n            optionType == OptionType.Call || optionType == OptionType.Put,\n            \"Wrong option type\"\n        );\n        require(period >= 1 days, \"Period is too short\");\n        require(period <= 4 weeks, \"Period is too long\");\n        require(amount > strikeFee, \"Price difference is too large\");\n        require(msg.value >= total, \"Wrong value\");\n        if (msg.value > total) msg.sender.transfer(msg.value - total);\n\n        uint256 strikeAmount = amount.sub(strikeFee);\n        optionID = options.length;\n        Option memory option = Option(\n            State.Active,\n            msg.sender,\n            strike,\n            amount,\n            strikeAmount.mul(optionCollateralizationRatio).div(100).add(strikeFee),\n            total.sub(settlementFee),\n            block.timestamp + period,\n            optionType\n        );\n\n        options.push(option);\n        settlementFeeRecipient.sendProfit {value: settlementFee}();\n        pool.lock {value: option.premium} (optionID, option.lockedAmount);\n        emit Create(optionID, msg.sender, settlementFee, total);\n    }\n\n    /**\n     * @notice Transfers an active option\n     * @param optionID ID of your option\n     * @param newHolder Address of new option holder\n     */\n    function transfer(uint256 optionID, address payable newHolder) external {\n        Option storage option = options[optionID];\n\n        require(newHolder != address(0), \"new holder address is zero\");\n        require(option.expiration >= block.timestamp, \"Option has expired\");\n        require(option.holder == msg.sender, \"Wrong msg.sender\");\n        require(option.state == State.Active, \"Only active options could be transferred\");\n\n        option.holder = newHolder;\n    }\n\n    /**\n     * @notice Exercises an active option\n     * @param optionID ID of your option\n     */\n    function exercise(uint256 optionID) external {\n        Option storage option = options[optionID];\n\n        require(option.expiration >= block.timestamp, \"Option has expired\");\n        require(option.holder == msg.sender, \"Wrong msg.sender\");\n        require(option.state == State.Active, \"Wrong state\");\n\n        option.state = State.Exercised;\n        uint256 profit = payProfit(optionID);\n\n        emit Exercise(optionID, profit);\n    }\n\n    /**\n     * @notice Unlocks an array of options\n     * @param optionIDs array of options\n     */\n    function unlockAll(uint256[] calldata optionIDs) external {\n        uint arrayLength = optionIDs.length;\n        for (uint256 i = 0; i < arrayLength; i++) {\n            unlock(optionIDs[i]);\n        }\n    }\n\n    function migrate(uint count) external onlyOwner {\n        require(migrationProcess, \"Migration Process was ended\");\n        require(\n            pool.owner() != address(this),\n            \"Liquidity Pool already attached\"\n        );\n        require(address(oldHegicETHOptions) != address(0));\n        for (uint i = 0; i < count; i++){\n            uint optionID = options.length;\n            HegicETHOptions.Option memory option;\n            (\n                option.state,\n                option.holder,\n                option.strike,\n                option.amount,\n                option.lockedAmount,\n                option.premium,\n                option.expiration,\n                option.optionType\n            ) = oldHegicETHOptions.options(optionID);\n            uint settlementFee = getSettlementFee(option.amount);\n            options.push(option);\n            emit Create(\n                optionID,\n                option.holder,\n                settlementFee,\n                option.premium.add(settlementFee)\n            );\n        }\n    }\n\n    function setOldHegicETHOptions(address oldAddr) external onlyOwner {\n        require(address(oldHegicETHOptions) == address(0));\n        oldHegicETHOptions = HegicETHOptions(oldAddr);\n    }\n\n    function stopMigrationProcess() external onlyOwner {\n        migrationProcess = false;\n    }\n\n    /**\n     * @notice Used for getting the actual options prices\n     * @param period Option period in seconds (1 days <= period <= 4 weeks)\n     * @param amount Option amount\n     * @param strike Strike price of the option\n     * @return total Total price to be paid\n     * @return settlementFee Amount to be distributed to the HEGIC token holders\n     * @return strikeFee Amount that covers the price difference in the ITM options\n     * @return periodFee Option period fee amount\n     */\n    function fees(\n        uint256 period,\n        uint256 amount,\n        uint256 strike,\n        OptionType optionType\n    )\n        public\n        view\n        returns (\n            uint256 total,\n            uint256 settlementFee,\n            uint256 strikeFee,\n            uint256 periodFee\n        )\n    {\n        (,int latestPrice,,,) = priceProvider.latestRoundData();\n        uint256 currentPrice = uint256(latestPrice);\n        settlementFee = getSettlementFee(amount);\n        periodFee = getPeriodFee(amount, period, strike, currentPrice, optionType);\n        strikeFee = getStrikeFee(amount, strike, currentPrice, optionType);\n        total = periodFee.add(strikeFee).add(settlementFee);\n    }\n\n    /**\n     * @notice Unlock funds locked in the expired options\n     * @param optionID ID of the option\n     */\n    function unlock(uint256 optionID) public {\n        Option storage option = options[optionID];\n        require(option.expiration < block.timestamp, \"Option has not expired yet\");\n        require(option.state == State.Active, \"Option is not active\");\n        option.state = State.Expired;\n        pool.unlock(optionID);\n        emit Expire(optionID, option.premium);\n    }\n\n    /**\n     * @notice Calculates settlementFee\n     * @param amount Option amount\n     * @return fee Settlement fee amount\n     */\n    function getSettlementFee(uint256 amount)\n        internal\n        pure\n        returns (uint256 fee)\n    {\n        return amount / 100;\n    }\n\n    /**\n     * @notice Calculates periodFee\n     * @param amount Option amount\n     * @param period Option period in seconds (1 days <= period <= 4 weeks)\n     * @param strike Strike price of the option\n     * @param currentPrice Current price of ETH\n     * @return fee Period fee amount\n     *\n     * amount < 1e30        |\n     * impliedVolRate < 1e10| => amount * impliedVolRate * strike < 1e60 < 2^uint256\n     * strike < 1e20 ($1T)  |\n     *\n     * in case amount * impliedVolRate * strike >= 2^256\n     * transaction will be reverted by the SafeMath\n     */\n    function getPeriodFee(\n        uint256 amount,\n        uint256 period,\n        uint256 strike,\n        uint256 currentPrice,\n        OptionType optionType\n    ) internal view returns (uint256 fee) {\n        if (optionType == OptionType.Put)\n            return amount\n                .mul(sqrt(period))\n                .mul(impliedVolRate)\n                .mul(strike)\n                .div(currentPrice)\n                .div(PRICE_DECIMALS);\n        else\n            return amount\n                .mul(sqrt(period))\n                .mul(impliedVolRate)\n                .mul(currentPrice)\n                .div(strike)\n                .div(PRICE_DECIMALS);\n    }\n\n    /**\n     * @notice Calculates strikeFee\n     * @param amount Option amount\n     * @param strike Strike price of the option\n     * @param currentPrice Current price of ETH\n     * @return fee Strike fee amount\n     */\n    function getStrikeFee(\n        uint256 amount,\n        uint256 strike,\n        uint256 currentPrice,\n        OptionType optionType\n    ) internal pure returns (uint256 fee) {\n        if (strike > currentPrice && optionType == OptionType.Put)\n            return strike.sub(currentPrice).mul(amount).div(currentPrice);\n        if (strike < currentPrice && optionType == OptionType.Call)\n            return currentPrice.sub(strike).mul(amount).div(currentPrice);\n        return 0;\n    }\n\n    /**\n     * @notice Sends profits in ETH from the ETH pool to an option holder's address\n     * @param optionID A specific option contract id\n     */\n    function payProfit(uint optionID)\n        internal\n        returns (uint profit)\n    {\n        Option memory option = options[optionID];\n        (, int latestPrice, , , ) = priceProvider.latestRoundData();\n        uint256 currentPrice = uint256(latestPrice);\n        if (option.optionType == OptionType.Call) {\n            require(option.strike <= currentPrice, \"Current price is too low\");\n            profit = currentPrice.sub(option.strike).mul(option.amount).div(currentPrice);\n        } else {\n            require(option.strike >= currentPrice, \"Current price is too high\");\n            profit = option.strike.sub(currentPrice).mul(option.amount).div(currentPrice);\n        }\n        if (profit > option.lockedAmount)\n            profit = option.lockedAmount;\n        pool.send(optionID, option.holder, profit);\n    }\n\n\n\n    /**\n     * @return result Square root of the number\n     */\n    function sqrt(uint256 x) private pure returns (uint256 result) {\n        result = x;\n        uint256 k = x.div(2).add(1);\n        while (k < result) (result, k) = (k, x.div(k).add(k).div(2));\n    }\n}\n",
  "sourcePath": "/root/contracts-v888/contracts/Options/HegicETHOptions.sol",
  "compiler": {
    "name": "solc",
    "version": "0.6.12+commit.27d51765.Emscripten.clang"
  },
  "schemaVersion": "3.3.2",
  "updatedAt": "2020-12-01T20:45:50.430Z",
  "devdoc": {
    "author": "0mllwntrmt3",
    "kind": "dev",
    "methods": {
      "constructor": {
        "params": {
          "pp": "The address of ChainLink ETH/USD price feed contract"
        }
      },
      "create(uint256,uint256,uint256,uint8)": {
        "params": {
          "amount": "Option amount",
          "optionType": "Call or Put option type",
          "period": "Option period in seconds (1 days <= period <= 4 weeks)",
          "strike": "Strike price of the option"
        },
        "returns": {
          "optionID": "Created option's ID"
        }
      },
      "exercise(uint256)": {
        "params": {
          "optionID": "ID of your option"
        }
      },
      "fees(uint256,uint256,uint256,uint8)": {
        "params": {
          "amount": "Option amount",
          "period": "Option period in seconds (1 days <= period <= 4 weeks)",
          "strike": "Strike price of the option"
        },
        "returns": {
          "periodFee": "Option period fee amount",
          "settlementFee": "Amount to be distributed to the HEGIC token holders",
          "strikeFee": "Amount that covers the price difference in the ITM options",
          "total": "Total price to be paid"
        }
      },
      "owner()": {
        "details": "Returns the address of the current owner."
      },
      "renounceOwnership()": {
        "details": "Leaves the contract without owner. It will not be possible to call `onlyOwner` functions anymore. Can only be called by the current owner. NOTE: Renouncing ownership will leave the contract without an owner, thereby removing any functionality that is only available to the owner."
      },
      "setImpliedVolRate(uint256)": {
        "params": {
          "value": "New IVRate value"
        }
      },
      "setOptionCollaterizationRatio(uint256)": {
        "params": {
          "value": "New optionCollateralizationRatio value"
        }
      },
      "setSettlementFeeRecipient(address)": {
        "params": {
          "recipient": "New settlementFee recipient address"
        }
      },
      "transfer(uint256,address)": {
        "params": {
          "newHolder": "Address of new option holder",
          "optionID": "ID of your option"
        }
      },
      "transferOwnership(address)": {
        "details": "Transfers ownership of the contract to a new account (`newOwner`). Can only be called by the current owner."
      },
      "unlock(uint256)": {
        "params": {
          "optionID": "ID of the option"
        }
      },
      "unlockAll(uint256[])": {
        "params": {
          "optionIDs": "array of options"
        }
      }
    },
    "title": "Hegic ETH (Ether) Bidirectional (Call and Put) Options",
    "version": 1
  },
  "userdoc": {
    "kind": "user",
    "methods": {
      "create(uint256,uint256,uint256,uint8)": {
        "notice": "Creates a new option"
      },
      "exercise(uint256)": {
        "notice": "Exercises an active option"
      },
      "fees(uint256,uint256,uint256,uint8)": {
        "notice": "Used for getting the actual options prices"
      },
      "setImpliedVolRate(uint256)": {
        "notice": "Used for adjusting the options prices while balancing asset's implied volatility rate"
      },
      "setOptionCollaterizationRatio(uint256)": {
        "notice": "Used for changing option collateralization ratio"
      },
      "setSettlementFeeRecipient(address)": {
        "notice": "Used for changing settlementFeeRecipient"
      },
      "transfer(uint256,address)": {
        "notice": "Transfers an active option"
      },
      "transferPoolOwnership()": {
        "notice": "Can be used to update the contract in critical situations         in the first 14 days after deployment"
      },
      "unlock(uint256)": {
        "notice": "Unlock funds locked in the expired options"
      },
      "unlockAll(uint256[])": {
        "notice": "Unlocks an array of options"
      }
    },
    "notice": "Hegic ETH Options Contract",
    "version": 1
  }
}