{
  "contractName": "HegicETHRewards",
  "abi": [
    {
      "inputs": [
        {
          "internalType": "contract IHegicOptions",
          "name": "_hegicOptions",
          "type": "address"
        },
        {
          "internalType": "contract IERC20",
          "name": "_hegic",
          "type": "address"
        }
      ],
      "stateMutability": "nonpayable",
      "type": "constructor"
    },
    {
      "anonymous": false,
      "inputs": [
        {
          "indexed": true,
          "internalType": "address",
          "name": "previousOwner",
          "type": "address"
        },
        {
          "indexed": true,
          "internalType": "address",
          "name": "newOwner",
          "type": "address"
        }
      ],
      "name": "OwnershipTransferred",
      "type": "event"
    },
    {
      "inputs": [
        {
          "internalType": "uint256",
          "name": "",
          "type": "uint256"
        }
      ],
      "name": "dailyReward",
      "outputs": [
        {
          "internalType": "uint256",
          "name": "",
          "type": "uint256"
        }
      ],
      "stateMutability": "view",
      "type": "function",
      "constant": true
    },
    {
      "inputs": [
        {
          "internalType": "uint256",
          "name": "optionId",
          "type": "uint256"
        }
      ],
      "name": "getReward",
      "outputs": [],
      "stateMutability": "nonpayable",
      "type": "function"
    },
    {
      "inputs": [],
      "name": "hegic",
      "outputs": [
        {
          "internalType": "contract IERC20",
          "name": "",
          "type": "address"
        }
      ],
      "stateMutability": "view",
      "type": "function",
      "constant": true
    },
    {
      "inputs": [],
      "name": "hegicOptions",
      "outputs": [
        {
          "internalType": "contract IHegicOptions",
          "name": "",
          "type": "address"
        }
      ],
      "stateMutability": "view",
      "type": "function",
      "constant": true
    },
    {
      "inputs": [],
      "name": "owner",
      "outputs": [
        {
          "internalType": "address",
          "name": "",
          "type": "address"
        }
      ],
      "stateMutability": "view",
      "type": "function",
      "constant": true
    },
    {
      "inputs": [],
      "name": "renounceOwnership",
      "outputs": [],
      "stateMutability": "nonpayable",
      "type": "function"
    },
    {
      "inputs": [
        {
          "internalType": "uint256",
          "name": "",
          "type": "uint256"
        }
      ],
      "name": "rewardedOptions",
      "outputs": [
        {
          "internalType": "bool",
          "name": "",
          "type": "bool"
        }
      ],
      "stateMutability": "view",
      "type": "function",
      "constant": true
    },
    {
      "inputs": [],
      "name": "rewardsRate",
      "outputs": [
        {
          "internalType": "uint256",
          "name": "",
          "type": "uint256"
        }
      ],
      "stateMutability": "view",
      "type": "function",
      "constant": true
    },
    {
      "inputs": [
        {
          "internalType": "uint256",
          "name": "value",
          "type": "uint256"
        }
      ],
      "name": "setRewardsRate",
      "outputs": [],
      "stateMutability": "nonpayable",
      "type": "function"
    },
    {
      "inputs": [
        {
          "internalType": "address",
          "name": "newOwner",
          "type": "address"
        }
      ],
      "name": "transferOwnership",
      "outputs": [],
      "stateMutability": "nonpayable",
      "type": "function"
    }
  ],
  "bytecode": "0x61012060405234801561001157600080fd5b50604051610e8b380380610e8b8339818101604052604081101561003457600080fd5b5080516020909101518181655af3107a4000633b9aca0060a860006100576100d8565b600080546001600160a01b0319166001600160a01b0383169081178255604051929350917f8be0079c531659141344cd1fd0a4f28419497f9722a3daafe3b4186f6b6457e0908290a3506001600160601b0319606095861b81166080529390941b90921660a05260c081905260e09190915260035561010052506100dc9050565b3390565b60805160601c60a05160601c60c05160e05161010051610d5b610130600039806102915250806105b95250806105e352508061044052806106375250806101f3528061052a528061077f5250610d5b6000f3fe608060405234801561001057600080fd5b506004361061009e5760003560e01c80637d58efb9116100665780637d58efb9146101255780638da5cb5b1461014257806394895c1b1461014a578063ebb5e14f14610152578063f2fde38b146101835761009e565b80631c4b774b146100a3578063523bc7d5146100c2578063715018a6146100dc5780637276add9146100e457806374791fb614610108575b600080fd5b6100c0600480360360208110156100b957600080fd5b50356101a9565b005b6100ca61046e565b60408051918252519081900360200190f35b6100c0610474565b6100ec610528565b604080516001600160a01b039092168252519081900360200190f35b6100c06004803603602081101561011e57600080fd5b503561054c565b6100ca6004803603602081101561013b57600080fd5b5035610614565b6100ec610626565b6100ec610635565b61016f6004803603602081101561016857600080fd5b5035610659565b604080519115158252519081900360200190f35b6100c06004803603602081101561019957600080fd5b50356001600160a01b031661066e565b60006101b482610778565b620151804204600081815260026020526040902054919250906101d79083610858565b60026000838152602001908152602001600020819055506000807f00000000000000000000000000000000000000000000000000000000000000006001600160a01b031663409e2205866040518263ffffffff1660e01b8152600401808281526020019150506101006040518083038186803b15801561025657600080fd5b505afa15801561026a573d6000803e3d6000fd5b505050506040513d61010081101561028157600080fd5b50805160209091015190925090507f00000000000000000000000000000000000000000000000000000000000000008510156102f6576040805162461bcd60e51b815260206004820152600f60248201526e15dc9bdb99c813dc1d1a5bdb881251608a1b604482015290519081900360640190fd5b600082600381111561030457fe5b1415610350576040805162461bcd60e51b8152602060048201526016602482015275546865206f7074696f6e20697320696e61637469766560501b604482015290519081900360640190fd5b60008581526001602052604090205460ff16156103b4576040805162461bcd60e51b815260206004820152601760248201527f546865206f7074696f6e20776173207265776172646564000000000000000000604482015290519081900360640190fd5b6000838152600260205260409020546922f0aafd00887d20000011610417576040805162461bcd60e51b815260206004820152601460248201527345786365656473206461696c79206c696d69747360601b604482015290519081900360640190fd5b6000858152600160208190526040909120805460ff191690911790556104676001600160a01b037f00000000000000000000000000000000000000000000000000000000000000001682866108bb565b5050505050565b60035481565b61047c610912565b6000546001600160a01b039081169116146104de576040805162461bcd60e51b815260206004820181905260248201527f4f776e61626c653a2063616c6c6572206973206e6f7420746865206f776e6572604482015290519081900360640190fd5b600080546040516001600160a01b03909116907f8be0079c531659141344cd1fd0a4f28419497f9722a3daafe3b4186f6b6457e0908390a3600080546001600160a01b0319169055565b7f000000000000000000000000000000000000000000000000000000000000000081565b610554610912565b6000546001600160a01b039081169116146105b6576040805162461bcd60e51b815260206004820181905260248201527f4f776e61626c653a2063616c6c6572206973206e6f7420746865206f776e6572604482015290519081900360640190fd5b807f00000000000000000000000000000000000000000000000000000000000000001115801561060657507f00000000000000000000000000000000000000000000000000000000000000008111155b61060f57600080fd5b600355565b60026020526000908152604090205481565b6000546001600160a01b031690565b7f000000000000000000000000000000000000000000000000000000000000000081565b60016020526000908152604090205460ff1681565b610676610912565b6000546001600160a01b039081169116146106d8576040805162461bcd60e51b815260206004820181905260248201527f4f776e61626c653a2063616c6c6572206973206e6f7420746865206f776e6572604482015290519081900360640190fd5b6001600160a01b03811661071d5760405162461bcd60e51b8152600401808060200182810382526026815260200180610cb56026913960400191505060405180910390fd5b600080546040516001600160a01b03808516939216917f8be0079c531659141344cd1fd0a4f28419497f9722a3daafe3b4186f6b6457e091a3600080546001600160a01b0319166001600160a01b0392909216919091179055565b60008060007f00000000000000000000000000000000000000000000000000000000000000006001600160a01b031663409e2205856040518263ffffffff1660e01b8152600401808281526020019150506101006040518083038186803b1580156107e257600080fd5b505afa1580156107f6573d6000803e3d6000fd5b505050506040513d61010081101561080d57600080fd5b50606081015160a0909101516003549193509150610850906305f5e1009061084a906108448561083e886064610916565b90610858565b90610958565b90610916565b949350505050565b6000828201838110156108b2576040805162461bcd60e51b815260206004820152601b60248201527f536166654d6174683a206164646974696f6e206f766572666c6f770000000000604482015290519081900360640190fd5b90505b92915050565b604080516001600160a01b038416602482015260448082018490528251808303909101815260649091019091526020810180516001600160e01b031663a9059cbb60e01b17905261090d9084906109b1565b505050565b3390565b60006108b283836040518060400160405280601a81526020017f536166654d6174683a206469766973696f6e206279207a65726f000000000000815250610a62565b600082610967575060006108b5565b8282028284828161097457fe5b04146108b25760405162461bcd60e51b8152600401808060200182810382526021815260200180610cdb6021913960400191505060405180910390fd5b6060610a06826040518060400160405280602081526020017f5361666545524332303a206c6f772d6c6576656c2063616c6c206661696c6564815250856001600160a01b0316610b049092919063ffffffff16565b80519091501561090d57808060200190516020811015610a2557600080fd5b505161090d5760405162461bcd60e51b815260040180806020018281038252602a815260200180610cfc602a913960400191505060405180910390fd5b60008183610aee5760405162461bcd60e51b81526004018080602001828103825283818151815260200191508051906020019080838360005b83811015610ab3578181015183820152602001610a9b565b50505050905090810190601f168015610ae05780820380516001836020036101000a031916815260200191505b509250505060405180910390fd5b506000838581610afa57fe5b0495945050505050565b606061085084846000856060610b1985610c7b565b610b6a576040805162461bcd60e51b815260206004820152601d60248201527f416464726573733a2063616c6c20746f206e6f6e2d636f6e7472616374000000604482015290519081900360640190fd5b60006060866001600160a01b031685876040518082805190602001908083835b60208310610ba95780518252601f199092019160209182019101610b8a565b6001836020036101000a03801982511681845116808217855250505050505090500191505060006040518083038185875af1925050503d8060008114610c0b576040519150601f19603f3d011682016040523d82523d6000602084013e610c10565b606091505b50915091508115610c245791506108509050565b805115610c345780518082602001fd5b60405162461bcd60e51b8152602060048201818152865160248401528651879391928392604401919085019080838360008315610ab3578181015183820152602001610a9b565b6000813f7fc5d2460186f7233c927e7db2dcc703c0e500b653ca82273b7bfad8045d85a47081811480159061085057505015159291505056fe4f776e61626c653a206e6577206f776e657220697320746865207a65726f2061646472657373536166654d6174683a206d756c7469706c69636174696f6e206f766572666c6f775361666545524332303a204552433230206f7065726174696f6e20646964206e6f742073756363656564a26469706673582212203f82bc3846aaf05846a6a254e00fb812d1e7279f5e43872ef6ba09805efa996864736f6c634300060c0033",
  "immutableReferences": {
    "3818": [
      {
        "length": 32,
        "start": 499
      },
      {
        "length": 32,
        "start": 1322
      },
      {
        "length": 32,
        "start": 1919
      }
    ],
    "3820": [
      {
        "length": 32,
        "start": 1088
      },
      {
        "length": 32,
        "start": 1591
      }
    ],
    "3836": [
      {
        "length": 32,
        "start": 1507
      }
    ],
    "3838": [
      {
        "length": 32,
        "start": 1465
      }
    ],
    "3840": [
      {
        "length": 32,
        "start": 657
      }
    ]
  },
  "source": "pragma solidity 0.6.12;\n\n/**\n * SPDX-License-Identifier: GPL-3.0-or-later\n * Hegic\n * Copyright (C) 2020 Hegic Protocol\n *\n * This program is free software: you can redistribute it and/or modify\n * it under the terms of the GNU General Public License as published by\n * the Free Software Foundation, either version 3 of the License, or\n * (at your option) any later version.\n *\n * This program is distributed in the hope that it will be useful,\n * but WITHOUT ANY WARRANTY; without even the implied warranty of\n * MERCHANTABILITY or FITNESS FOR A PARTICULAR PURPOSE.  See the\n * GNU General Public License for more details.\n *\n * You should have received a copy of the GNU General Public License\n * along with this program.  If not, see <http://www.gnu.org/licenses/>.\n */\n\nimport \"./HegicRewards.sol\";\n\n\ncontract HegicETHRewards is HegicRewards {\n    constructor(\n        IHegicOptions _hegicOptions,\n        IERC20 _hegic\n    ) public HegicRewards(\n        _hegicOptions,\n        _hegic,\n        1_000_000e8,\n        10e8,\n        168\n    ) {}\n}\n",
  "sourcePath": "/root/contracts-v888/contracts/Rewards/HegicETHRewards.sol",
  "compiler": {
    "name": "solc",
    "version": "0.6.12+commit.27d51765.Emscripten.clang"
  },
  "schemaVersion": "3.3.2",
  "updatedAt": "2020-12-09T12:09:27.594Z",
  "networkType": "ethereum",
  "devdoc": {
    "kind": "dev",
    "methods": {
      "owner()": {
        "details": "Returns the address of the current owner."
      },
      "renounceOwnership()": {
        "details": "Leaves the contract without owner. It will not be possible to call `onlyOwner` functions anymore. Can only be called by the current owner. NOTE: Renouncing ownership will leave the contract without an owner, thereby removing any functionality that is only available to the owner."
      },
      "transferOwnership(address)": {
        "details": "Transfers ownership of the contract to a new account (`newOwner`). Can only be called by the current owner."
      }
    },
    "version": 1
  },
  "userdoc": {
    "kind": "user",
    "methods": {},
    "version": 1
  }
}