{
  "contractName": "LinearBondingCurve",
  "abi": [
    {
      "inputs": [
        {
          "internalType": "contract IERC20",
          "name": "_token",
          "type": "address"
        },
        {
          "internalType": "uint256",
          "name": "k",
          "type": "uint256"
        },
        {
          "internalType": "uint256",
          "name": "startPrice",
          "type": "uint256"
        }
      ],
      "stateMutability": "nonpayable",
      "type": "constructor"
    },
    {
      "anonymous": false,
      "inputs": [
        {
          "indexed": true,
          "internalType": "address",
          "name": "account",
          "type": "address"
        },
        {
          "indexed": false,
          "internalType": "uint256",
          "name": "amount",
          "type": "uint256"
        },
        {
          "indexed": false,
          "internalType": "uint256",
          "name": "ethAmount",
          "type": "uint256"
        }
      ],
      "name": "Bought",
      "type": "event"
    },
    {
      "anonymous": false,
      "inputs": [
        {
          "indexed": true,
          "internalType": "address",
          "name": "account",
          "type": "address"
        },
        {
          "indexed": false,
          "internalType": "uint256",
          "name": "amount",
          "type": "uint256"
        },
        {
          "indexed": false,
          "internalType": "uint256",
          "name": "ethAmount",
          "type": "uint256"
        },
        {
          "indexed": false,
          "internalType": "uint256",
          "name": "comission",
          "type": "uint256"
        }
      ],
      "name": "Sold",
      "type": "event"
    },
    {
      "inputs": [
        {
          "internalType": "uint256",
          "name": "tokenAmount",
          "type": "uint256"
        }
      ],
      "name": "buy",
      "outputs": [],
      "stateMutability": "payable",
      "type": "function",
      "payable": true
    },
    {
      "inputs": [],
      "name": "hegicDevelopmentFund",
      "outputs": [
        {
          "internalType": "address payable",
          "name": "",
          "type": "address"
        }
      ],
      "stateMutability": "view",
      "type": "function",
      "constant": true
    },
    {
      "inputs": [
        {
          "internalType": "uint256",
          "name": "tokenAmount",
          "type": "uint256"
        }
      ],
      "name": "sell",
      "outputs": [],
      "stateMutability": "nonpayable",
      "type": "function"
    },
    {
      "inputs": [],
      "name": "soldAmount",
      "outputs": [
        {
          "internalType": "uint256",
          "name": "",
          "type": "uint256"
        }
      ],
      "stateMutability": "view",
      "type": "function",
      "constant": true
    },
    {
      "inputs": [],
      "name": "token",
      "outputs": [
        {
          "internalType": "contract IERC20",
          "name": "",
          "type": "address"
        }
      ],
      "stateMutability": "view",
      "type": "function",
      "constant": true
    },
    {
      "inputs": [
        {
          "internalType": "uint256",
          "name": "x0",
          "type": "uint256"
        },
        {
          "internalType": "uint256",
          "name": "x1",
          "type": "uint256"
        }
      ],
      "name": "s",
      "outputs": [
        {
          "internalType": "uint256",
          "name": "",
          "type": "uint256"
        }
      ],
      "stateMutability": "view",
      "type": "function",
      "constant": true
    }
  ],
  "bytecode": "0x60c060405234801561001057600080fd5b50604051610a87380380610a878339818101604052606081101561003357600080fd5b5080516020820151604090920151600080546001600160a01b039093166001600160a01b031993841617905560028054909216331790915560809190915260a05260805160a0516109f06100976000398061017152508061019d52506109f06000f3fe6080604052600436106100555760003560e01c80636561fd341461005a578063d0f081b51461008b578063d96a094a146100cd578063e4849b32146100ec578063fa1a5f5914610116578063fc0c546a1461012b575b600080fd5b34801561006657600080fd5b5061006f610140565b604080516001600160a01b039092168252519081900360200190f35b34801561009757600080fd5b506100bb600480360360408110156100ae57600080fd5b508035906020013561014f565b60408051918252519081900360200190f35b6100ea600480360360208110156100e357600080fd5b50356101f1565b005b3480156100f857600080fd5b506100ea6004803603602081101561010f57600080fd5b50356102f1565b34801561012257600080fd5b506100bb610402565b34801561013757600080fd5b5061006f610408565b6002546001600160a01b031681565b600082821161015d57600080fd5b6101e8670de0b6b3a76400006101dc6101987f0000000000000000000000000000000000000000000000000000000000000000878703610417565b6101e27f00000000000000000000000000000000000000000000000000000000000000006101dc6002816101cc8b8d610470565b6101d68c8e6104b2565b90610417565b9061050c565b906104b2565b90505b92915050565b60015460009061020190836104b2565b905060006102116001548361014f565b6001839055905034811115610262576040805162461bcd60e51b815260206004820152601260248201527115985b1d59481a5cc81d1bdbc81cdb585b1b60721b604482015290519081900360640190fd5b600054610279906001600160a01b0316338561054e565b803411156102b25760405133903483900380156108fc02916000818181858888f193505050501580156102b0573d6000803e3d6000fd5b505b6040805184815260208101839052815133927fa9a40dec7a304e5915d11358b968c1e8d365992abf20f82285d1df1b30c8e24c928290030190a2505050565b6001546000906103019083610470565b905060006103118260015461014f565b9050600a810460006103238383610470565b90506000821161033257600080fd5b600184905560005461034f906001600160a01b03163330886105a5565b6002546040516001600160a01b039091169083156108fc029084906000818181858888f19350505050158015610389573d6000803e3d6000fd5b50604051339082156108fc029083906000818181858888f193505050501580156103b7573d6000803e3d6000fd5b506040805186815260208101839052808201849052905133917fe029f26dbcf8c42dd2f352c10214a7fc26773dc62482c6241334a0402ac09a80919081900360600190a25050505050565b60015481565b6000546001600160a01b031681565b600082610426575060006101eb565b8282028284828161043357fe5b04146101e85760405162461bcd60e51b81526004018080602001828103825260218152602001806109706021913960400191505060405180910390fd5b60006101e883836040518060400160405280601e81526020017f536166654d6174683a207375627472616374696f6e206f766572666c6f770000815250610605565b6000828201838110156101e8576040805162461bcd60e51b815260206004820152601b60248201527f536166654d6174683a206164646974696f6e206f766572666c6f770000000000604482015290519081900360640190fd5b60006101e883836040518060400160405280601a81526020017f536166654d6174683a206469766973696f6e206279207a65726f00000000000081525061069c565b604080516001600160a01b038416602482015260448082018490528251808303909101815260649091019091526020810180516001600160e01b031663a9059cbb60e01b1790526105a0908490610701565b505050565b604080516001600160a01b0380861660248301528416604482015260648082018490528251808303909101815260849091019091526020810180516001600160e01b03166323b872dd60e01b1790526105ff908590610701565b50505050565b600081848411156106945760405162461bcd60e51b81526004018080602001828103825283818151815260200191508051906020019080838360005b83811015610659578181015183820152602001610641565b50505050905090810190601f1680156106865780820380516001836020036101000a031916815260200191505b509250505060405180910390fd5b505050900390565b600081836106eb5760405162461bcd60e51b8152602060048201818152835160248401528351909283926044909101919085019080838360008315610659578181015183820152602001610641565b5060008385816106f757fe5b0495945050505050565b6060610756826040518060400160405280602081526020017f5361666545524332303a206c6f772d6c6576656c2063616c6c206661696c6564815250856001600160a01b03166107b29092919063ffffffff16565b8051909150156105a05780806020019051602081101561077557600080fd5b50516105a05760405162461bcd60e51b815260040180806020018281038252602a815260200180610991602a913960400191505060405180910390fd5b60606107c184846000856107c9565b949350505050565b60606107d485610936565b610825576040805162461bcd60e51b815260206004820152601d60248201527f416464726573733a2063616c6c20746f206e6f6e2d636f6e7472616374000000604482015290519081900360640190fd5b60006060866001600160a01b031685876040518082805190602001908083835b602083106108645780518252601f199092019160209182019101610845565b6001836020036101000a03801982511681845116808217855250505050505090500191505060006040518083038185875af1925050503d80600081146108c6576040519150601f19603f3d011682016040523d82523d6000602084013e6108cb565b606091505b509150915081156108df5791506107c19050565b8051156108ef5780518082602001fd5b60405162461bcd60e51b8152602060048201818152865160248401528651879391928392604401919085019080838360008315610659578181015183820152602001610641565b6000813f7fc5d2460186f7233c927e7db2dcc703c0e500b653ca82273b7bfad8045d85a4708181148015906107c157505015159291505056fe536166654d6174683a206d756c7469706c69636174696f6e206f766572666c6f775361666545524332303a204552433230206f7065726174696f6e20646964206e6f742073756363656564a2646970667358221220d272c360f71a33857d55e6bb7f6b63cae98b93a12619a360e1624fd1e74420fc64736f6c634300060c0033",
  "immutableReferences": {
    "211": [
      {
        "length": 32,
        "start": 413
      }
    ],
    "213": [
      {
        "length": 32,
        "start": 369
      }
    ]
  },
  "source": "pragma solidity 0.6.12;\n\n/**\n * SPDX-License-Identifier: GPL-3.0-or-later\n * Hegic\n * Copyright (C) 2020 Hegic Protocol\n *\n * This program is free software: you can redistribute it and/or modify\n * it under the terms of the GNU General Public License as published by\n * the Free Software Foundation, either version 3 of the License, or\n * (at your option) any later version.\n *\n * This program is distributed in the hope that it will be useful,\n * but WITHOUT ANY WARRANTY; without even the implied warranty of\n * MERCHANTABILITY or FITNESS FOR A PARTICULAR PURPOSE.  See the\n * GNU General Public License for more details.\n *\n * You should have received a copy of the GNU General Public License\n * along with this program.  If not, see <http://www.gnu.org/licenses/>.\n */\n\nimport \"./BondingCurve.sol\";\n\n\ncontract LinearBondingCurve is BondingCurve {\n    using SafeMath for uint;\n    using SafeERC20 for IERC20;\n    uint internal immutable K;\n    uint internal immutable START_PRICE;\n\n    constructor(IERC20 _token, uint k, uint startPrice) public BondingCurve(_token) {\n        K = k;\n        START_PRICE = startPrice;\n    }\n\n    function s(uint x0, uint x1) public view override returns (uint) {\n        require(x1 > x0);\n        return x1.add(x0).mul(x1.sub(x0))\n            .div(2).div(K)\n            .add(START_PRICE.mul(x1 - x0))\n            .div(1e18);\n    }\n}\n",
  "sourcePath": "/root/contracts-v888/contracts/BondingCurve/LinearBondingCurve.sol",
  "compiler": {
    "name": "solc",
    "version": "0.6.12+commit.27d51765.Emscripten.clang"
  },
  "schemaVersion": "3.3.2",
  "updatedAt": "2020-12-09T12:09:27.617Z",
  "networkType": "ethereum",
  "devdoc": {
    "kind": "dev",
    "methods": {},
    "version": 1
  },
  "userdoc": {
    "kind": "user",
    "methods": {},
    "version": 1
  }
}