{
  "contractName": "OptionChef",
  "abi": [
    {
      "inputs": [
        {
          "internalType": "contract IHegicOptions",
          "name": "_hegicOption",
          "type": "address"
        }
      ],
      "stateMutability": "nonpayable",
      "type": "constructor"
    },
    {
      "anonymous": false,
      "inputs": [
        {
          "indexed": false,
          "internalType": "uint256",
          "name": "optionId",
          "type": "uint256"
        },
        {
          "indexed": false,
          "internalType": "uint256",
          "name": "hegexId",
          "type": "uint256"
        }
      ],
      "name": "CreatedHegic",
      "type": "event"
    },
    {
      "anonymous": false,
      "inputs": [
        {
          "indexed": false,
          "internalType": "uint256",
          "name": "_tokenId",
          "type": "uint256"
        },
        {
          "indexed": false,
          "internalType": "uint256",
          "name": "profit",
          "type": "uint256"
        }
      ],
      "name": "Exercised",
      "type": "event"
    },
    {
      "anonymous": false,
      "inputs": [
        {
          "indexed": true,
          "internalType": "address",
          "name": "previousOwner",
          "type": "address"
        },
        {
          "indexed": true,
          "internalType": "address",
          "name": "newOwner",
          "type": "address"
        }
      ],
      "name": "OwnershipTransferred",
      "type": "event"
    },
    {
      "anonymous": false,
      "inputs": [
        {
          "indexed": false,
          "internalType": "address",
          "name": "account",
          "type": "address"
        },
        {
          "indexed": false,
          "internalType": "uint256",
          "name": "tokenId",
          "type": "uint256"
        }
      ],
      "name": "Unwrapped",
      "type": "event"
    },
    {
      "anonymous": false,
      "inputs": [
        {
          "indexed": false,
          "internalType": "address",
          "name": "account",
          "type": "address"
        },
        {
          "indexed": false,
          "internalType": "uint256",
          "name": "optionId",
          "type": "uint256"
        }
      ],
      "name": "Wrapped",
      "type": "event"
    },
    {
      "inputs": [],
      "name": "hegexoption",
      "outputs": [
        {
          "internalType": "contract IHegexoption",
          "name": "",
          "type": "address"
        }
      ],
      "stateMutability": "view",
      "type": "function",
      "constant": true
    },
    {
      "inputs": [],
      "name": "hegicOption",
      "outputs": [
        {
          "internalType": "contract IHegicOptions",
          "name": "",
          "type": "address"
        }
      ],
      "stateMutability": "view",
      "type": "function",
      "constant": true
    },
    {
      "inputs": [],
      "name": "owner",
      "outputs": [
        {
          "internalType": "address",
          "name": "",
          "type": "address"
        }
      ],
      "stateMutability": "view",
      "type": "function",
      "constant": true
    },
    {
      "inputs": [],
      "name": "renounceOwnership",
      "outputs": [],
      "stateMutability": "nonpayable",
      "type": "function"
    },
    {
      "inputs": [
        {
          "internalType": "address",
          "name": "newOwner",
          "type": "address"
        }
      ],
      "name": "transferOwnership",
      "outputs": [],
      "stateMutability": "nonpayable",
      "type": "function"
    },
    {
      "stateMutability": "payable",
      "type": "receive",
      "payable": true
    },
    {
      "inputs": [
        {
          "internalType": "contract IHegicOptions",
          "name": "_hegicOption",
          "type": "address"
        }
      ],
      "name": "updateHegicOption",
      "outputs": [],
      "stateMutability": "nonpayable",
      "type": "function"
    },
    {
      "inputs": [
        {
          "internalType": "contract IHegexoption",
          "name": "_hegexoption",
          "type": "address"
        }
      ],
      "name": "updateHegexoption",
      "outputs": [],
      "stateMutability": "nonpayable",
      "type": "function"
    },
    {
      "inputs": [
        {
          "internalType": "uint256",
          "name": "_uId",
          "type": "uint256"
        }
      ],
      "name": "wrapHegic",
      "outputs": [
        {
          "internalType": "uint256",
          "name": "newTokenId",
          "type": "uint256"
        }
      ],
      "stateMutability": "nonpayable",
      "type": "function"
    },
    {
      "inputs": [
        {
          "internalType": "uint256",
          "name": "_tokenId",
          "type": "uint256"
        }
      ],
      "name": "unwrapHegic",
      "outputs": [],
      "stateMutability": "nonpayable",
      "type": "function"
    },
    {
      "inputs": [
        {
          "internalType": "uint256",
          "name": "_tokenId",
          "type": "uint256"
        }
      ],
      "name": "exerciseHegic",
      "outputs": [],
      "stateMutability": "nonpayable",
      "type": "function"
    },
    {
      "inputs": [
        {
          "internalType": "uint256",
          "name": "_tokenId",
          "type": "uint256"
        }
      ],
      "name": "getUnderlyingOptionId",
      "outputs": [
        {
          "internalType": "uint256",
          "name": "",
          "type": "uint256"
        }
      ],
      "stateMutability": "view",
      "type": "function",
      "constant": true
    },
    {
      "inputs": [
        {
          "internalType": "uint256",
          "name": "_tokenId",
          "type": "uint256"
        }
      ],
      "name": "getUnderlyingOptionParams",
      "outputs": [
        {
          "internalType": "enum IHegicOptions.State",
          "name": "state",
          "type": "uint8"
        },
        {
          "internalType": "address payable",
          "name": "holder",
          "type": "address"
        },
        {
          "internalType": "uint256",
          "name": "strike",
          "type": "uint256"
        },
        {
          "internalType": "uint256",
          "name": "amount",
          "type": "uint256"
        },
        {
          "internalType": "uint256",
          "name": "lockedAmount",
          "type": "uint256"
        },
        {
          "internalType": "uint256",
          "name": "premium",
          "type": "uint256"
        },
        {
          "internalType": "uint256",
          "name": "expiration",
          "type": "uint256"
        },
        {
          "internalType": "enum IHegicOptions.OptionType",
          "name": "optionType",
          "type": "uint8"
        }
      ],
      "stateMutability": "view",
      "type": "function",
      "constant": true
    },
    {
      "inputs": [
        {
          "internalType": "uint256",
          "name": "_tokenId",
          "type": "uint256"
        }
      ],
      "name": "isDelegated",
      "outputs": [
        {
          "internalType": "bool",
          "name": "",
          "type": "bool"
        }
      ],
      "stateMutability": "view",
      "type": "function",
      "constant": true
    },
    {
      "inputs": [
        {
          "internalType": "uint256",
          "name": "_period",
          "type": "uint256"
        },
        {
          "internalType": "uint256",
          "name": "_amount",
          "type": "uint256"
        },
        {
          "internalType": "uint256",
          "name": "_strike",
          "type": "uint256"
        },
        {
          "internalType": "enum IHegicOptions.OptionType",
          "name": "_optionType",
          "type": "uint8"
        }
      ],
      "name": "createHegic",
      "outputs": [
        {
          "internalType": "uint256",
          "name": "",
          "type": "uint256"
        }
      ],
      "stateMutability": "payable",
      "type": "function",
      "payable": true
    }
  ],
  "bytecode": "0x608060405234801561001057600080fd5b50604051611a87380380611a878339818101604052602081101561003357600080fd5b8101908080519060200190929190505050600061005461013960201b60201c565b9050806000806101000a81548173ffffffffffffffffffffffffffffffffffffffff021916908373ffffffffffffffffffffffffffffffffffffffff1602179055508073ffffffffffffffffffffffffffffffffffffffff16600073ffffffffffffffffffffffffffffffffffffffff167f8be0079c531659141344cd1fd0a4f28419497f9722a3daafe3b4186f6b6457e060405160405180910390a35080600160006101000a81548173ffffffffffffffffffffffffffffffffffffffff021916908373ffffffffffffffffffffffffffffffffffffffff16021790555050610141565b600033905090565b611937806101506000396000f3fe6080604052600436106100e15760003560e01c80638da5cb5b1161007f578063dd22882311610059578063dd2288231461037f578063e2481b3a146103ce578063e5e47a2e1461047a578063f2fde38b146104dd576100e8565b80638da5cb5b146102b4578063ba62f8b7146102f5578063cdb9d31814610330576100e8565b806321d6ff46116100bb57806321d6ff46146101ba57806367c8b15a1461020b578063715018a61461024c57806385d8a3aa14610263576100e8565b8063056296eb146100ed57806318edc88c1461013e578063194899761461017f576100e8565b366100e857005b600080fd5b3480156100f957600080fd5b5061013c6004803603602081101561011057600080fd5b81019080803573ffffffffffffffffffffffffffffffffffffffff16906020019092919050505061052e565b005b34801561014a57600080fd5b5061015361063a565b604051808273ffffffffffffffffffffffffffffffffffffffff16815260200191505060405180910390f35b34801561018b57600080fd5b506101b8600480360360208110156101a257600080fd5b8101908080359060200190929190505050610660565b005b3480156101c657600080fd5b506101f3600480360360208110156101dd57600080fd5b81019080803590602001909291905050506108d4565b60405180821515815260200191505060405180910390f35b34801561021757600080fd5b50610220610a20565b604051808273ffffffffffffffffffffffffffffffffffffffff16815260200191505060405180910390f35b34801561025857600080fd5b50610261610a46565b005b34801561026f57600080fd5b506102b26004803603602081101561028657600080fd5b81019080803573ffffffffffffffffffffffffffffffffffffffff169060200190929190505050610bcc565b005b3480156102c057600080fd5b506102c9610cd8565b604051808273ffffffffffffffffffffffffffffffffffffffff16815260200191505060405180910390f35b34801561030157600080fd5b5061032e6004803603602081101561031857600080fd5b8101908080359060200190929190505050610d01565b005b34801561033c57600080fd5b506103696004803603602081101561035357600080fd5b810190808035906020019092919050505061107c565b6040518082815260200191505060405180910390f35b34801561038b57600080fd5b506103b8600480360360208110156103a257600080fd5b8101908080359060200190929190505050611099565b6040518082815260200191505060405180910390f35b3480156103da57600080fd5b50610407600480360360208110156103f157600080fd5b810190808035906020019092919050505061144e565b6040518089600381111561041757fe5b81526020018873ffffffffffffffffffffffffffffffffffffffff16815260200187815260200186815260200185815260200184815260200183815260200182600281111561046257fe5b81526020019850505050505050505060405180910390f35b6104c76004803603608081101561049057600080fd5b81019080803590602001909291908035906020019092919080359060200190929190803560ff16906020019092919050505061158e565b6040518082815260200191505060405180910390f35b3480156104e957600080fd5b5061052c6004803603602081101561050057600080fd5b81019080803573ffffffffffffffffffffffffffffffffffffffff1690602001909291905050506116c8565b005b6105366118d3565b73ffffffffffffffffffffffffffffffffffffffff1660008054906101000a900473ffffffffffffffffffffffffffffffffffffffff1673ffffffffffffffffffffffffffffffffffffffff16146105f6576040517f08c379a00000000000000000000000000000000000000000000000000000000081526004018080602001828103825260208152602001807f4f776e61626c653a2063616c6c6572206973206e6f7420746865206f776e657281525060200191505060405180910390fd5b80600160006101000a81548173ffffffffffffffffffffffffffffffffffffffff021916908373ffffffffffffffffffffffffffffffffffffffff16021790555050565b600260009054906101000a900473ffffffffffffffffffffffffffffffffffffffff1681565b80600260009054906101000a900473ffffffffffffffffffffffffffffffffffffffff1673ffffffffffffffffffffffffffffffffffffffff16636352211e826040518263ffffffff1660e01b81526004018082815260200191505060206040518083038186803b1580156106d457600080fd5b505afa1580156106e8573d6000803e3d6000fd5b505050506040513d60208110156106fe57600080fd5b810190808051906020019092919050505073ffffffffffffffffffffffffffffffffffffffff163373ffffffffffffffffffffffffffffffffffffffff16146107af576040517f08c379a00000000000000000000000000000000000000000000000000000000081526004018080602001828103825260178152602001807f554f50543a6f776e6572736869702f65786368616e676500000000000000000081525060200191505060405180910390fd5b600160009054906101000a900473ffffffffffffffffffffffffffffffffffffffff1673ffffffffffffffffffffffffffffffffffffffff1663b07f0a416107f68461107c565b6040518263ffffffff1660e01b815260040180828152602001915050600060405180830381600087803b15801561082c57600080fd5b505af1158015610840573d6000803e3d6000fd5b5050505060004790503373ffffffffffffffffffffffffffffffffffffffff166108fc829081150290604051600060405180830381858888f1935050505015801561088f573d6000803e3d6000fd5b507f0328c770810250ca303b85a612c9103929d1701abdf1dd1114607d139edfbed68382604051808381526020018281526020019250505060405180910390a1505050565b600080600160009054906101000a900473ffffffffffffffffffffffffffffffffffffffff1673ffffffffffffffffffffffffffffffffffffffff1663409e220560036000868152602001908152602001600020546040518263ffffffff1660e01b8152600401808281526020019150506101006040518083038186803b15801561095e57600080fd5b505afa158015610972573d6000803e3d6000fd5b505050506040513d61010081101561098957600080fd5b8101908080519060200190929190805190602001909291908051906020019092919080519060200190929190805190602001909291908051906020019092919080519060200190929190805190602001909291905050505050505050509150503073ffffffffffffffffffffffffffffffffffffffff168173ffffffffffffffffffffffffffffffffffffffff1614915050919050565b600160009054906101000a900473ffffffffffffffffffffffffffffffffffffffff1681565b610a4e6118d3565b73ffffffffffffffffffffffffffffffffffffffff1660008054906101000a900473ffffffffffffffffffffffffffffffffffffffff1673ffffffffffffffffffffffffffffffffffffffff1614610b0e576040517f08c379a00000000000000000000000000000000000000000000000000000000081526004018080602001828103825260208152602001807f4f776e61626c653a2063616c6c6572206973206e6f7420746865206f776e657281525060200191505060405180910390fd5b600073ffffffffffffffffffffffffffffffffffffffff1660008054906101000a900473ffffffffffffffffffffffffffffffffffffffff1673ffffffffffffffffffffffffffffffffffffffff167f8be0079c531659141344cd1fd0a4f28419497f9722a3daafe3b4186f6b6457e060405160405180910390a360008060006101000a81548173ffffffffffffffffffffffffffffffffffffffff021916908373ffffffffffffffffffffffffffffffffffffffff160217905550565b610bd46118d3565b73ffffffffffffffffffffffffffffffffffffffff1660008054906101000a900473ffffffffffffffffffffffffffffffffffffffff1673ffffffffffffffffffffffffffffffffffffffff1614610c94576040517f08c379a00000000000000000000000000000000000000000000000000000000081526004018080602001828103825260208152602001807f4f776e61626c653a2063616c6c6572206973206e6f7420746865206f776e657281525060200191505060405180910390fd5b80600260006101000a81548173ffffffffffffffffffffffffffffffffffffffff021916908373ffffffffffffffffffffffffffffffffffffffff16021790555050565b60008060009054906101000a900473ffffffffffffffffffffffffffffffffffffffff16905090565b80600260009054906101000a900473ffffffffffffffffffffffffffffffffffffffff1673ffffffffffffffffffffffffffffffffffffffff16636352211e826040518263ffffffff1660e01b81526004018082815260200191505060206040518083038186803b158015610d7557600080fd5b505afa158015610d89573d6000803e3d6000fd5b505050506040513d6020811015610d9f57600080fd5b810190808051906020019092919050505073ffffffffffffffffffffffffffffffffffffffff163373ffffffffffffffffffffffffffffffffffffffff1614610e50576040517f08c379a00000000000000000000000000000000000000000000000000000000081526004018080602001828103825260178152602001807f554f50543a6f776e6572736869702f65786368616e676500000000000000000081525060200191505060405180910390fd5b600080610e5c8461144e565b5096505050505050915060016003811115610e7357fe5b826003811115610e7f57fe5b1480610e8b5750428110155b15610f4f57600160009054906101000a900473ffffffffffffffffffffffffffffffffffffffff1673ffffffffffffffffffffffffffffffffffffffff1663b7760c8f6003600087815260200190815260200160002054336040518363ffffffff1660e01b8152600401808381526020018273ffffffffffffffffffffffffffffffffffffffff16815260200192505050600060405180830381600087803b158015610f3657600080fd5b505af1158015610f4a573d6000803e3d6000fd5b505050505b600260009054906101000a900473ffffffffffffffffffffffffffffffffffffffff1673ffffffffffffffffffffffffffffffffffffffff166330be2cef856040518263ffffffff1660e01b815260040180828152602001915050600060405180830381600087803b158015610fc457600080fd5b505af1158015610fd8573d6000803e3d6000fd5b505050506000600460006003600088815260200190815260200160002054815260200190815260200160002081905550600060036000868152602001908152602001600020819055507f95ae649bfaaef9def56a52f4fb2d9e8fa5496bb7082930e442c74cc76b03dcb33385604051808373ffffffffffffffffffffffffffffffffffffffff1681526020018281526020019250505060405180910390a150505050565b600060036000838152602001908152602001600020549050919050565b600080600460008481526020019081526020016000205414611123576040517f08c379a000000000000000000000000000000000000000000000000000000000815260040180806020018281038252600b8152602001807f554f50543a65786973747300000000000000000000000000000000000000000081525060200191505060405180910390fd5b6000600160009054906101000a900473ffffffffffffffffffffffffffffffffffffffff1673ffffffffffffffffffffffffffffffffffffffff1663409e2205846040518263ffffffff1660e01b8152600401808281526020019150506101006040518083038186803b15801561119957600080fd5b505afa1580156111ad573d6000803e3d6000fd5b505050506040513d6101008110156111c457600080fd5b8101908080519060200190929190805190602001909291908051906020019092919080519060200190929190805190602001909291908051906020019092919080519060200190929190805190602001909291905050505050505050509150503373ffffffffffffffffffffffffffffffffffffffff168173ffffffffffffffffffffffffffffffffffffffff16148061128957503073ffffffffffffffffffffffffffffffffffffffff168173ffffffffffffffffffffffffffffffffffffffff16145b6112fb576040517f08c379a000000000000000000000000000000000000000000000000000000000815260040180806020018281038252600e8152602001807f554f50543a6f776e65727368697000000000000000000000000000000000000081525060200191505060405180910390fd5b600260009054906101000a900473ffffffffffffffffffffffffffffffffffffffff1673ffffffffffffffffffffffffffffffffffffffff16631ce369a4336040518263ffffffff1660e01b8152600401808273ffffffffffffffffffffffffffffffffffffffff168152602001915050602060405180830381600087803b15801561138657600080fd5b505af115801561139a573d6000803e3d6000fd5b505050506040513d60208110156113b057600080fd5b810190808051906020019092919050505091508260036000848152602001908152602001600020819055508160046000858152602001908152602001600020819055507f4700c1726b4198077cd40320a32c45265a1910521eb0ef713dd1d8412413d7fc3384604051808373ffffffffffffffffffffffffffffffffffffffff1681526020018281526020019250505060405180910390a150919050565b600080600080600080600080600160009054906101000a900473ffffffffffffffffffffffffffffffffffffffff1673ffffffffffffffffffffffffffffffffffffffff1663409e2205600360008c8152602001908152602001600020546040518263ffffffff1660e01b8152600401808281526020019150506101006040518083038186803b1580156114e157600080fd5b505afa1580156114f5573d6000803e3d6000fd5b505050506040513d61010081101561150c57600080fd5b810190808051906020019092919080519060200190929190805190602001909291908051906020019092919080519060200190929190805190602001909291908051906020019092919080519060200190929190505050809850819950829a50839b50849c50859d50869e50879f505050505050505050919395975091939597565b600080600160009054906101000a900473ffffffffffffffffffffffffffffffffffffffff1673ffffffffffffffffffffffffffffffffffffffff166380478ad134888888886040518663ffffffff1660e01b81526004018085815260200184815260200183815260200182600281111561160557fe5b81526020019450505050506020604051808303818588803b15801561162957600080fd5b505af115801561163d573d6000803e3d6000fd5b50505050506040513d602081101561165457600080fd5b810190808051906020019092919050505090503373ffffffffffffffffffffffffffffffffffffffff166108fc479081150290604051600060405180830381858888f193505050501580156116ad573d6000803e3d6000fd5b5060006116b982611099565b90508092505050949350505050565b6116d06118d3565b73ffffffffffffffffffffffffffffffffffffffff1660008054906101000a900473ffffffffffffffffffffffffffffffffffffffff1673ffffffffffffffffffffffffffffffffffffffff1614611790576040517f08c379a00000000000000000000000000000000000000000000000000000000081526004018080602001828103825260208152602001807f4f776e61626c653a2063616c6c6572206973206e6f7420746865206f776e657281525060200191505060405180910390fd5b600073ffffffffffffffffffffffffffffffffffffffff168173ffffffffffffffffffffffffffffffffffffffff161415611816576040517f08c379a00000000000000000000000000000000000000000000000000000000081526004018080602001828103825260268152602001806118dc6026913960400191505060405180910390fd5b8073ffffffffffffffffffffffffffffffffffffffff1660008054906101000a900473ffffffffffffffffffffffffffffffffffffffff1673ffffffffffffffffffffffffffffffffffffffff167f8be0079c531659141344cd1fd0a4f28419497f9722a3daafe3b4186f6b6457e060405160405180910390a3806000806101000a81548173ffffffffffffffffffffffffffffffffffffffff021916908373ffffffffffffffffffffffffffffffffffffffff16021790555050565b60003390509056fe4f776e61626c653a206e6577206f776e657220697320746865207a65726f2061646472657373a2646970667358221220b10536df2f7f5e652c482977798227ea764ac18333af67876aabd9246cb50a7664736f6c634300060c0033",
  "immutableReferences": {},
  "source": "//SPDX-License-Identifier: UNLICENSED\n\npragma solidity 0.6.12;\n\n\nimport \"@openzeppelin/contracts/access/Ownable.sol\";\nimport \"./interfaces/IOptions.sol\";\nimport \"./interfaces/IHegexoption.sol\";\n\n/**\n * @author ivan@district0x\n * @title Option factory aka Mighty Option Chef\n * @notice Option Chef has the monopoly to mint and destroy NFT Hegexoptions\n */\ncontract OptionChef is Ownable {\n\n    //storage\n\n    IHegicOptions public hegicOption;\n    IHegexoption public hegexoption;\n\n    //ideally this should've been a mapping/arr of id->Struct {owner, id}\n    //there are a few EVM gotchas for this (afaik one can't peek into\n    //mapped structs from another contracts, happy to restructure if I'm wrong though)\n    mapping (uint => uint) uIds;\n    mapping (uint => uint) ids;\n\n    //events\n\n    event Wrapped(address account, uint optionId);\n    event Unwrapped(address account, uint tokenId);\n    event Exercised(uint _tokenId, uint profit);\n    event CreatedHegic(uint optionId, uint hegexId);\n\n\n    //utility functions\n\n    function updateHegicOption(IHegicOptions _hegicOption)\n        external\n        onlyOwner {\n        hegicOption = _hegicOption ;\n    }\n\n    function updateHegexoption(IHegexoption _hegexoption)\n        external\n        onlyOwner {\n        hegexoption = _hegexoption;\n    }\n\n    constructor(IHegicOptions _hegicOption) public {\n        hegicOption = _hegicOption ;\n    }\n\n\n    //core (un)wrap functionality\n\n\n    /**\n     * @notice Hegexoption wrapper adapter for Hegic\n     */\n    function wrapHegic(uint _uId) public returns (uint newTokenId) {\n        require(ids[_uId] == 0 , \"UOPT:exists\");\n        (, address holder, , , , , , ) = hegicOption.options(_uId);\n        //auth is a bit unintuitive for wrapping, see NFT.sol:isApprovedOrOwner()\n        require(holder == msg.sender || holder == address(this), \"UOPT:ownership\");\n        newTokenId = hegexoption.mintHegexoption(msg.sender);\n        uIds[newTokenId] = _uId;\n        ids[_uId] = newTokenId;\n        emit Wrapped(msg.sender, _uId);\n    }\n\n    /**\n     * @notice Hegexoption unwrapper adapter for Hegic\n     * @notice check burning logic, do we really want to burn it (vs meta)\n     * @notice TODO recheck escrow mechanism on 0x relay to prevent unwrapping when locked\n     */\n    function unwrapHegic(uint _tokenId) external onlyTokenOwner(_tokenId) {\n        // checks if hegicOption will allow to transfer option ownership\n        (IHegicOptions.State state, , , , , , uint expiration ,) = getUnderlyingOptionParams(_tokenId);\n        if (state == IHegicOptions.State.Active || expiration >= block.timestamp) {\n            hegicOption.transfer(uIds[_tokenId], msg.sender);\n        }\n        //burns anyway if token is expired\n        hegexoption.burnHegexoption(_tokenId);\n        ids[uIds[_tokenId]] = 0;\n        uIds[_tokenId] = 0;\n        emit Unwrapped(msg.sender, _tokenId);\n    }\n\n    function exerciseHegic(uint _tokenId) external onlyTokenOwner(_tokenId) {\n        hegicOption.exercise(getUnderlyingOptionId(_tokenId));\n        uint profit = address(this).balance;\n        payable(msg.sender).transfer(profit);\n        emit Exercised(_tokenId, profit);\n    }\n\n    function getUnderlyingOptionId(uint _tokenId) public view returns (uint) {\n        return uIds[_tokenId];\n    }\n\n    function getUnderlyingOptionParams(uint _tokenId)\n        public\n        view\n        returns (\n        IHegicOptions.State state,\n        address payable holder,\n        uint256 strike,\n        uint256 amount,\n        uint256 lockedAmount,\n        uint256 premium,\n        uint256 expiration,\n        IHegicOptions.OptionType optionType)\n    {\n        (state,\n         holder,\n         strike,\n         amount,\n         lockedAmount,\n         premium,\n         expiration,\n         optionType) = hegicOption.options(uIds[_tokenId]);\n    }\n\n    /**\n     * @notice check whether Chef has underlying option locked\n     */\n    function isDelegated(uint _tokenId) public view returns (bool) {\n        ( , address holder, , , , , , ) = hegicOption.options(uIds[_tokenId]);\n        return holder == address(this);\n    }\n\n    function createHegic(\n        uint _period,\n        uint _amount,\n        uint _strike,\n        IHegicOptions.OptionType _optionType\n    )\n        payable\n        external\n        returns (uint)\n    {\n        uint optionId = hegicOption.create{value: msg.value}(_period, _amount, _strike, _optionType);\n        // return eth excess\n        payable(msg.sender).transfer(address(this).balance);\n        uint hegexId = wrapHegic(optionId);\n        return hegexId;\n        emit CreatedHegic(optionId, hegexId);\n    }\n\n    modifier onlyTokenOwner(uint _itemId) {\n        require(msg.sender == hegexoption.ownerOf(_itemId), \"UOPT:ownership/exchange\");\n        _;\n    }\n\n    receive() external payable {}\n}\n",
  "sourcePath": "/home/stack/work/hegex/contracts/OptionChef.sol",
  "compiler": {
    "name": "solc",
    "version": "0.6.12+commit.27d51765.Emscripten.clang"
  },
  "schemaVersion": "3.3.2",
  "updatedAt": "2021-02-08T14:33:38.582Z",
  "networkType": "ethereum",
  "devdoc": {
    "author": "ivan@district0x",
    "kind": "dev",
    "methods": {
      "owner()": {
        "details": "Returns the address of the current owner."
      },
      "renounceOwnership()": {
        "details": "Leaves the contract without owner. It will not be possible to call `onlyOwner` functions anymore. Can only be called by the current owner. NOTE: Renouncing ownership will leave the contract without an owner, thereby removing any functionality that is only available to the owner."
      },
      "transferOwnership(address)": {
        "details": "Transfers ownership of the contract to a new account (`newOwner`). Can only be called by the current owner."
      }
    },
    "title": "Option factory aka Mighty Option Chef",
    "version": 1
  },
  "userdoc": {
    "kind": "user",
    "methods": {
      "isDelegated(uint256)": {
        "notice": "check whether Chef has underlying option locked"
      },
      "unwrapHegic(uint256)": {
        "notice": "Hegexoption unwrapper adapter for Hegiccheck burning logic, do we really want to burn it (vs meta)TODO recheck escrow mechanism on 0x relay to prevent unwrapping when locked"
      },
      "wrapHegic(uint256)": {
        "notice": "Hegexoption wrapper adapter for Hegic"
      }
    },
    "notice": "Option Chef has the monopoly to mint and destroy NFT Hegexoptions",
    "version": 1
  }
}