{
  "contractName": "OptionChef",
  "abi": [
    {
      "inputs": [
        {
          "internalType": "contract IHegicOptions",
          "name": "_hegicOptionETH",
          "type": "address"
        },
        {
          "internalType": "contract IHegicOptions",
          "name": "_hegicOptionBTC",
          "type": "address"
        },
        {
          "internalType": "contract IOptionChefData",
          "name": "_chefData",
          "type": "address"
        }
      ],
      "stateMutability": "nonpayable",
      "type": "constructor"
    },
    {
      "anonymous": false,
      "inputs": [
        {
          "indexed": false,
          "internalType": "uint256",
          "name": "optionId",
          "type": "uint256"
        },
        {
          "indexed": false,
          "internalType": "uint256",
          "name": "hegexId",
          "type": "uint256"
        }
      ],
      "name": "CreatedHegic",
      "type": "event"
    },
    {
      "anonymous": false,
      "inputs": [
        {
          "indexed": false,
          "internalType": "uint256",
          "name": "_tokenId",
          "type": "uint256"
        },
        {
          "indexed": false,
          "internalType": "uint256",
          "name": "profit",
          "type": "uint256"
        }
      ],
      "name": "Exercised",
      "type": "event"
    },
    {
      "anonymous": false,
      "inputs": [
        {
          "indexed": true,
          "internalType": "address",
          "name": "previousOwner",
          "type": "address"
        },
        {
          "indexed": true,
          "internalType": "address",
          "name": "newOwner",
          "type": "address"
        }
      ],
      "name": "OwnershipTransferred",
      "type": "event"
    },
    {
      "anonymous": false,
      "inputs": [
        {
          "indexed": false,
          "internalType": "address",
          "name": "account",
          "type": "address"
        },
        {
          "indexed": false,
          "internalType": "uint256",
          "name": "tokenId",
          "type": "uint256"
        }
      ],
      "name": "Unwrapped",
      "type": "event"
    },
    {
      "anonymous": false,
      "inputs": [
        {
          "indexed": false,
          "internalType": "address",
          "name": "account",
          "type": "address"
        },
        {
          "indexed": false,
          "internalType": "uint256",
          "name": "optionId",
          "type": "uint256"
        }
      ],
      "name": "Wrapped",
      "type": "event"
    },
    {
      "inputs": [],
      "name": "chefData",
      "outputs": [
        {
          "internalType": "contract IOptionChefData",
          "name": "",
          "type": "address"
        }
      ],
      "stateMutability": "view",
      "type": "function",
      "constant": true
    },
    {
      "inputs": [],
      "name": "hegexoption",
      "outputs": [
        {
          "internalType": "contract IHegexoption",
          "name": "",
          "type": "address"
        }
      ],
      "stateMutability": "view",
      "type": "function",
      "constant": true
    },
    {
      "inputs": [],
      "name": "hegicOptionBTC",
      "outputs": [
        {
          "internalType": "contract IHegicOptions",
          "name": "",
          "type": "address"
        }
      ],
      "stateMutability": "view",
      "type": "function",
      "constant": true
    },
    {
      "inputs": [],
      "name": "hegicOptionETH",
      "outputs": [
        {
          "internalType": "contract IHegicOptions",
          "name": "",
          "type": "address"
        }
      ],
      "stateMutability": "view",
      "type": "function",
      "constant": true
    },
    {
      "inputs": [],
      "name": "owner",
      "outputs": [
        {
          "internalType": "address",
          "name": "",
          "type": "address"
        }
      ],
      "stateMutability": "view",
      "type": "function",
      "constant": true
    },
    {
      "inputs": [],
      "name": "renounceOwnership",
      "outputs": [],
      "stateMutability": "nonpayable",
      "type": "function"
    },
    {
      "inputs": [
        {
          "internalType": "address",
          "name": "newOwner",
          "type": "address"
        }
      ],
      "name": "transferOwnership",
      "outputs": [],
      "stateMutability": "nonpayable",
      "type": "function"
    },
    {
      "stateMutability": "payable",
      "type": "receive",
      "payable": true
    },
    {
      "inputs": [
        {
          "internalType": "contract IHegicOptions",
          "name": "_hegicOptionETH",
          "type": "address"
        },
        {
          "internalType": "contract IHegicOptions",
          "name": "_hegicOptionBTC",
          "type": "address"
        }
      ],
      "name": "updateHegicOption",
      "outputs": [],
      "stateMutability": "nonpayable",
      "type": "function"
    },
    {
      "inputs": [
        {
          "internalType": "contract IHegexoption",
          "name": "_hegexoption",
          "type": "address"
        }
      ],
      "name": "updateHegexoption",
      "outputs": [],
      "stateMutability": "nonpayable",
      "type": "function"
    },
    {
      "inputs": [
        {
          "internalType": "uint8",
          "name": "_optionType",
          "type": "uint8"
        }
      ],
      "name": "getHegic",
      "outputs": [
        {
          "internalType": "contract IHegicOptions",
          "name": "",
          "type": "address"
        }
      ],
      "stateMutability": "view",
      "type": "function",
      "constant": true
    },
    {
      "inputs": [
        {
          "internalType": "uint256",
          "name": "_uId",
          "type": "uint256"
        },
        {
          "internalType": "uint8",
          "name": "_optionType",
          "type": "uint8"
        }
      ],
      "name": "wrapHegic",
      "outputs": [
        {
          "internalType": "uint256",
          "name": "newTokenId",
          "type": "uint256"
        }
      ],
      "stateMutability": "nonpayable",
      "type": "function"
    },
    {
      "inputs": [
        {
          "internalType": "uint8",
          "name": "_optionType",
          "type": "uint8"
        },
        {
          "internalType": "uint256",
          "name": "_tokenId",
          "type": "uint256"
        }
      ],
      "name": "unwrapHegic",
      "outputs": [],
      "stateMutability": "nonpayable",
      "type": "function"
    },
    {
      "inputs": [
        {
          "internalType": "uint8",
          "name": "_optionType",
          "type": "uint8"
        },
        {
          "internalType": "uint256",
          "name": "_tokenId",
          "type": "uint256"
        }
      ],
      "name": "exerciseHegic",
      "outputs": [],
      "stateMutability": "nonpayable",
      "type": "function"
    },
    {
      "inputs": [
        {
          "internalType": "address",
          "name": "_newOwner",
          "type": "address"
        }
      ],
      "name": "transferHegexOwnership",
      "outputs": [],
      "stateMutability": "nonpayable",
      "type": "function"
    },
    {
      "inputs": [
        {
          "internalType": "address",
          "name": "_newOwner",
          "type": "address"
        }
      ],
      "name": "transferDataOwnership",
      "outputs": [],
      "stateMutability": "nonpayable",
      "type": "function"
    },
    {
      "inputs": [
        {
          "internalType": "uint256",
          "name": "_tokenId",
          "type": "uint256"
        }
      ],
      "name": "getUnderlyingOptionId",
      "outputs": [
        {
          "internalType": "uint256",
          "name": "",
          "type": "uint256"
        }
      ],
      "stateMutability": "view",
      "type": "function",
      "constant": true
    },
    {
      "inputs": [
        {
          "internalType": "uint8",
          "name": "_optionType",
          "type": "uint8"
        },
        {
          "internalType": "uint256",
          "name": "_tokenId",
          "type": "uint256"
        }
      ],
      "name": "getUnderlyingOptionParams",
      "outputs": [
        {
          "internalType": "enum IHegicOptions.State",
          "name": "state",
          "type": "uint8"
        },
        {
          "internalType": "address payable",
          "name": "holder",
          "type": "address"
        },
        {
          "internalType": "uint256",
          "name": "strike",
          "type": "uint256"
        },
        {
          "internalType": "uint256",
          "name": "amount",
          "type": "uint256"
        },
        {
          "internalType": "uint256",
          "name": "lockedAmount",
          "type": "uint256"
        },
        {
          "internalType": "uint256",
          "name": "premium",
          "type": "uint256"
        },
        {
          "internalType": "uint256",
          "name": "expiration",
          "type": "uint256"
        },
        {
          "internalType": "enum IHegicOptions.OptionType",
          "name": "optionType",
          "type": "uint8"
        }
      ],
      "stateMutability": "view",
      "type": "function",
      "constant": true
    },
    {
      "inputs": [
        {
          "internalType": "uint256",
          "name": "_tokenId",
          "type": "uint256"
        }
      ],
      "name": "isDelegated",
      "outputs": [
        {
          "internalType": "bool",
          "name": "",
          "type": "bool"
        }
      ],
      "stateMutability": "view",
      "type": "function",
      "constant": true
    },
    {
      "inputs": [
        {
          "internalType": "uint8",
          "name": "_hegicOptionType",
          "type": "uint8"
        },
        {
          "internalType": "uint256",
          "name": "_period",
          "type": "uint256"
        },
        {
          "internalType": "uint256",
          "name": "_amount",
          "type": "uint256"
        },
        {
          "internalType": "uint256",
          "name": "_strike",
          "type": "uint256"
        },
        {
          "internalType": "enum IHegicOptions.OptionType",
          "name": "_optionType",
          "type": "uint8"
        }
      ],
      "name": "createHegic",
      "outputs": [
        {
          "internalType": "uint256",
          "name": "",
          "type": "uint256"
        }
      ],
      "stateMutability": "payable",
      "type": "function",
      "payable": true
    }
  ],
  "bytecode": "0x608060405234801561001057600080fd5b50604051620027d2380380620027d28339818101604052606081101561003557600080fd5b81019080805190602001909291908051906020019092919080519060200190929190505050600061006a6101d360201b60201c565b9050806000806101000a81548173ffffffffffffffffffffffffffffffffffffffff021916908373ffffffffffffffffffffffffffffffffffffffff1602179055508073ffffffffffffffffffffffffffffffffffffffff16600073ffffffffffffffffffffffffffffffffffffffff167f8be0079c531659141344cd1fd0a4f28419497f9722a3daafe3b4186f6b6457e060405160405180910390a35082600160006101000a81548173ffffffffffffffffffffffffffffffffffffffff021916908373ffffffffffffffffffffffffffffffffffffffff16021790555081600260006101000a81548173ffffffffffffffffffffffffffffffffffffffff021916908373ffffffffffffffffffffffffffffffffffffffff16021790555080600460006101000a81548173ffffffffffffffffffffffffffffffffffffffff021916908373ffffffffffffffffffffffffffffffffffffffff1602179055505050506101db565b600033905090565b6125e780620001eb6000396000f3fe6080604052600436106101175760003560e01c80638da5cb5b116100a0578063de77a8b511610064578063de77a8b5146105d5578063e321e0111461061d578063e4952ddb1461066e578063f2fde38b146106bf578063fa61a812146107105761011e565b80638da5cb5b146103dc578063a1233d1d1461041d578063bcef604e146104d6578063c9052aa31461053e578063cdb9d318146105865761011e565b806353a6be09116100e757806353a6be09146102525780636d0335c2146102c3578063715018a614610304578063780ebd151461031b57806385d8a3aa1461038b5761011e565b80625c91a01461012357806314b265471461016457806318edc88c146101c057806321d6ff46146102015761011e565b3661011e57005b600080fd5b34801561012f57600080fd5b50610138610751565b604051808273ffffffffffffffffffffffffffffffffffffffff16815260200191505060405180910390f35b34801561017057600080fd5b506101aa6004803603604081101561018757600080fd5b8101908080359060200190929190803560ff169060200190929190505050610777565b6040518082815260200191505060405180910390f35b3480156101cc57600080fd5b506101d5610d45565b604051808273ffffffffffffffffffffffffffffffffffffffff16815260200191505060405180910390f35b34801561020d57600080fd5b5061023a6004803603602081101561022457600080fd5b8101908080359060200190929190505050610d6b565b60405180821515815260200191505060405180910390f35b34801561025e57600080fd5b506102c16004803603604081101561027557600080fd5b81019080803573ffffffffffffffffffffffffffffffffffffffff169060200190929190803573ffffffffffffffffffffffffffffffffffffffff16906020019092919050505061109d565b005b3480156102cf57600080fd5b506102d86111d2565b604051808273ffffffffffffffffffffffffffffffffffffffff16815260200191505060405180910390f35b34801561031057600080fd5b506103196111f8565b005b610375600480360360a081101561033157600080fd5b81019080803560ff169060200190929190803590602001909291908035906020019092919080359060200190929190803560ff169060200190929190505050611365565b6040518082815260200191505060405180910390f35b34801561039757600080fd5b506103da600480360360208110156103ae57600080fd5b81019080803573ffffffffffffffffffffffffffffffffffffffff1690602001909291905050506114cc565b005b3480156103e857600080fd5b506103f16115bf565b604051808273ffffffffffffffffffffffffffffffffffffffff16815260200191505060405180910390f35b34801561042957600080fd5b506104636004803603604081101561044057600080fd5b81019080803560ff169060200190929190803590602001909291905050506115e8565b6040518089600381111561047357fe5b81526020018873ffffffffffffffffffffffffffffffffffffffff1681526020018781526020018681526020018581526020018481526020018381526020018260028111156104be57fe5b81526020019850505050505050505060405180910390f35b3480156104e257600080fd5b50610512600480360360208110156104f957600080fd5b81019080803560ff1690602001909291905050506117aa565b604051808273ffffffffffffffffffffffffffffffffffffffff16815260200191505060405180910390f35b34801561054a57600080fd5b506105846004803603604081101561056157600080fd5b81019080803560ff1690602001909291908035906020019092919050505061180c565b005b34801561059257600080fd5b506105bf600480360360208110156105a957600080fd5b8101908080359060200190929190505050611a6d565b6040518082815260200191505060405180910390f35b3480156105e157600080fd5b5061061b600480360360408110156105f857600080fd5b81019080803560ff16906020019092919080359060200190929190505050611b24565b005b34801561062957600080fd5b5061066c6004803603602081101561064057600080fd5b81019080803573ffffffffffffffffffffffffffffffffffffffff1690602001909291905050506120c1565b005b34801561067a57600080fd5b506106bd6004803603602081101561069157600080fd5b81019080803573ffffffffffffffffffffffffffffffffffffffff169060200190929190505050612216565b005b3480156106cb57600080fd5b5061070e600480360360208110156106e257600080fd5b81019080803573ffffffffffffffffffffffffffffffffffffffff16906020019092919050505061236b565b005b34801561071c57600080fd5b5061072561255d565b604051808273ffffffffffffffffffffffffffffffffffffffff16815260200191505060405180910390f35b600460009054906101000a900473ffffffffffffffffffffffffffffffffffffffff1681565b600080600460009054906101000a900473ffffffffffffffffffffffffffffffffffffffff1673ffffffffffffffffffffffffffffffffffffffff1663fac333ac856040518263ffffffff1660e01b81526004018082815260200191505060206040518083038186803b1580156107ed57600080fd5b505afa158015610801573d6000803e3d6000fd5b505050506040513d602081101561081757600080fd5b81019080805190602001909291905050501461089b576040517f08c379a000000000000000000000000000000000000000000000000000000000815260040180806020018281038252600b8152602001807f554f50543a65786973747300000000000000000000000000000000000000000081525060200191505060405180910390fd5b60006108a6836117aa565b905060008173ffffffffffffffffffffffffffffffffffffffff1663409e2205866040518263ffffffff1660e01b8152600401808281526020019150506101006040518083038186803b1580156108fc57600080fd5b505afa158015610910573d6000803e3d6000fd5b505050506040513d61010081101561092757600080fd5b8101908080519060200190929190805190602001909291908051906020019092919080519060200190929190805190602001909291908051906020019092919080519060200190929190805190602001909291905050505050505050509150503373ffffffffffffffffffffffffffffffffffffffff168173ffffffffffffffffffffffffffffffffffffffff1614806109ec57503073ffffffffffffffffffffffffffffffffffffffff168173ffffffffffffffffffffffffffffffffffffffff16145b610a5e576040517f08c379a000000000000000000000000000000000000000000000000000000000815260040180806020018281038252600e8152602001807f554f50543a6f776e65727368697000000000000000000000000000000000000081525060200191505060405180910390fd5b600360009054906101000a900473ffffffffffffffffffffffffffffffffffffffff1673ffffffffffffffffffffffffffffffffffffffff16631ce369a4336040518263ffffffff1660e01b8152600401808273ffffffffffffffffffffffffffffffffffffffff168152602001915050602060405180830381600087803b158015610ae957600080fd5b505af1158015610afd573d6000803e3d6000fd5b505050506040513d6020811015610b1357600080fd5b81019080805190602001909291905050509250600460009054906101000a900473ffffffffffffffffffffffffffffffffffffffff1673ffffffffffffffffffffffffffffffffffffffff16638b28cfbd84876040518363ffffffff1660e01b81526004018083815260200182815260200192505050600060405180830381600087803b158015610ba357600080fd5b505af1158015610bb7573d6000803e3d6000fd5b50505050600460009054906101000a900473ffffffffffffffffffffffffffffffffffffffff1673ffffffffffffffffffffffffffffffffffffffff16636f58ebb486856040518363ffffffff1660e01b81526004018083815260200182815260200192505050600060405180830381600087803b158015610c3857600080fd5b505af1158015610c4c573d6000803e3d6000fd5b50505050600460009054906101000a900473ffffffffffffffffffffffffffffffffffffffff1673ffffffffffffffffffffffffffffffffffffffff1663a30e4e4e86866040518363ffffffff1660e01b8152600401808381526020018260ff16815260200192505050600060405180830381600087803b158015610cd057600080fd5b505af1158015610ce4573d6000803e3d6000fd5b505050507f4700c1726b4198077cd40320a32c45265a1910521eb0ef713dd1d8412413d7fc3386604051808373ffffffffffffffffffffffffffffffffffffffff1681526020018281526020019250505060405180910390a1505092915050565b600360009054906101000a900473ffffffffffffffffffffffffffffffffffffffff1681565b600080600460009054906101000a900473ffffffffffffffffffffffffffffffffffffffff1673ffffffffffffffffffffffffffffffffffffffff1663238c3df7600460009054906101000a900473ffffffffffffffffffffffffffffffffffffffff1673ffffffffffffffffffffffffffffffffffffffff1663537f7b90866040518263ffffffff1660e01b81526004018082815260200191505060206040518083038186803b158015610e1f57600080fd5b505afa158015610e33573d6000803e3d6000fd5b505050506040513d6020811015610e4957600080fd5b81019080805190602001909291905050506040518263ffffffff1660e01b81526004018082815260200191505060206040518083038186803b158015610e8e57600080fd5b505afa158015610ea2573d6000803e3d6000fd5b505050506040513d6020811015610eb857600080fd5b810190808051906020019092919050505090506000610ed6826117aa565b905060008173ffffffffffffffffffffffffffffffffffffffff1663409e2205600460009054906101000a900473ffffffffffffffffffffffffffffffffffffffff1673ffffffffffffffffffffffffffffffffffffffff1663537f7b90886040518263ffffffff1660e01b81526004018082815260200191505060206040518083038186803b158015610f6957600080fd5b505afa158015610f7d573d6000803e3d6000fd5b505050506040513d6020811015610f9357600080fd5b81019080805190602001909291905050506040518263ffffffff1660e01b8152600401808281526020019150506101006040518083038186803b158015610fd957600080fd5b505afa158015610fed573d6000803e3d6000fd5b505050506040513d61010081101561100457600080fd5b8101908080519060200190929190805190602001909291908051906020019092919080519060200190929190805190602001909291908051906020019092919080519060200190929190805190602001909291905050505050505050509150503073ffffffffffffffffffffffffffffffffffffffff168173ffffffffffffffffffffffffffffffffffffffff16149350505050919050565b6110a5612583565b73ffffffffffffffffffffffffffffffffffffffff166110c36115bf565b73ffffffffffffffffffffffffffffffffffffffff161461114c576040517f08c379a00000000000000000000000000000000000000000000000000000000081526004018080602001828103825260208152602001807f4f776e61626c653a2063616c6c6572206973206e6f7420746865206f776e657281525060200191505060405180910390fd5b81600160006101000a81548173ffffffffffffffffffffffffffffffffffffffff021916908373ffffffffffffffffffffffffffffffffffffffff16021790555080600260006101000a81548173ffffffffffffffffffffffffffffffffffffffff021916908373ffffffffffffffffffffffffffffffffffffffff1602179055505050565b600160009054906101000a900473ffffffffffffffffffffffffffffffffffffffff1681565b611200612583565b73ffffffffffffffffffffffffffffffffffffffff1661121e6115bf565b73ffffffffffffffffffffffffffffffffffffffff16146112a7576040517f08c379a00000000000000000000000000000000000000000000000000000000081526004018080602001828103825260208152602001807f4f776e61626c653a2063616c6c6572206973206e6f7420746865206f776e657281525060200191505060405180910390fd5b600073ffffffffffffffffffffffffffffffffffffffff1660008054906101000a900473ffffffffffffffffffffffffffffffffffffffff1673ffffffffffffffffffffffffffffffffffffffff167f8be0079c531659141344cd1fd0a4f28419497f9722a3daafe3b4186f6b6457e060405160405180910390a360008060006101000a81548173ffffffffffffffffffffffffffffffffffffffff021916908373ffffffffffffffffffffffffffffffffffffffff160217905550565b600080611371876117aa565b905060008173ffffffffffffffffffffffffffffffffffffffff166380478ad134898989896040518663ffffffff1660e01b8152600401808581526020018481526020018381526020018260028111156113c757fe5b81526020019450505050506020604051808303818588803b1580156113eb57600080fd5b505af11580156113ff573d6000803e3d6000fd5b50505050506040513d602081101561141657600080fd5b810190808051906020019092919050505090503373ffffffffffffffffffffffffffffffffffffffff166108fc479081150290604051600060405180830381858888f1935050505015801561146f573d6000803e3d6000fd5b50600061147c828a610777565b90507f3ff13a1b9a7e62d5aad7161a55c26133e80b4519e8343c5e9a3ad7f3debee0fb8282604051808381526020018281526020019250505060405180910390a180935050505095945050505050565b6114d4612583565b73ffffffffffffffffffffffffffffffffffffffff166114f26115bf565b73ffffffffffffffffffffffffffffffffffffffff161461157b576040517f08c379a00000000000000000000000000000000000000000000000000000000081526004018080602001828103825260208152602001807f4f776e61626c653a2063616c6c6572206973206e6f7420746865206f776e657281525060200191505060405180910390fd5b80600360006101000a81548173ffffffffffffffffffffffffffffffffffffffff021916908373ffffffffffffffffffffffffffffffffffffffff16021790555050565b60008060009054906101000a900473ffffffffffffffffffffffffffffffffffffffff16905090565b6000806000806000806000806115fd8a6117aa565b73ffffffffffffffffffffffffffffffffffffffff1663409e2205600460009054906101000a900473ffffffffffffffffffffffffffffffffffffffff1673ffffffffffffffffffffffffffffffffffffffff1663537f7b908c6040518263ffffffff1660e01b81526004018082815260200191505060206040518083038186803b15801561168b57600080fd5b505afa15801561169f573d6000803e3d6000fd5b505050506040513d60208110156116b557600080fd5b81019080805190602001909291905050506040518263ffffffff1660e01b8152600401808281526020019150506101006040518083038186803b1580156116fb57600080fd5b505afa15801561170f573d6000803e3d6000fd5b505050506040513d61010081101561172657600080fd5b810190808051906020019092919080519060200190929190805190602001909291908051906020019092919080519060200190929190805190602001909291908051906020019092919080519060200190929190505050809850819950829a50839b50849c50859d50869e50879f5050505050505050509295985092959890939650565b6000808260ff1614156117e157600160009054906101000a900473ffffffffffffffffffffffffffffffffffffffff169050611807565b600260009054906101000a900473ffffffffffffffffffffffffffffffffffffffff1690505b919050565b80600360009054906101000a900473ffffffffffffffffffffffffffffffffffffffff1673ffffffffffffffffffffffffffffffffffffffff16636352211e826040518263ffffffff1660e01b81526004018082815260200191505060206040518083038186803b15801561188057600080fd5b505afa158015611894573d6000803e3d6000fd5b505050506040513d60208110156118aa57600080fd5b810190808051906020019092919050505073ffffffffffffffffffffffffffffffffffffffff163373ffffffffffffffffffffffffffffffffffffffff161461195b576040517f08c379a00000000000000000000000000000000000000000000000000000000081526004018080602001828103825260178152602001807f554f50543a6f776e6572736869702f65786368616e676500000000000000000081525060200191505060405180910390fd5b6000611966846117aa565b90508073ffffffffffffffffffffffffffffffffffffffff1663b07f0a4161198d85611a6d565b6040518263ffffffff1660e01b815260040180828152602001915050600060405180830381600087803b1580156119c357600080fd5b505af11580156119d7573d6000803e3d6000fd5b5050505060004790503373ffffffffffffffffffffffffffffffffffffffff166108fc829081150290604051600060405180830381858888f19350505050158015611a26573d6000803e3d6000fd5b507f0328c770810250ca303b85a612c9103929d1701abdf1dd1114607d139edfbed68482604051808381526020018281526020019250505060405180910390a15050505050565b6000600460009054906101000a900473ffffffffffffffffffffffffffffffffffffffff1673ffffffffffffffffffffffffffffffffffffffff1663537f7b90836040518263ffffffff1660e01b81526004018082815260200191505060206040518083038186803b158015611ae257600080fd5b505afa158015611af6573d6000803e3d6000fd5b505050506040513d6020811015611b0c57600080fd5b81019080805190602001909291905050509050919050565b80600360009054906101000a900473ffffffffffffffffffffffffffffffffffffffff1673ffffffffffffffffffffffffffffffffffffffff16636352211e826040518263ffffffff1660e01b81526004018082815260200191505060206040518083038186803b158015611b9857600080fd5b505afa158015611bac573d6000803e3d6000fd5b505050506040513d6020811015611bc257600080fd5b810190808051906020019092919050505073ffffffffffffffffffffffffffffffffffffffff163373ffffffffffffffffffffffffffffffffffffffff1614611c73576040517f08c379a00000000000000000000000000000000000000000000000000000000081526004018080602001828103825260178152602001807f554f50543a6f776e6572736869702f65786368616e676500000000000000000081525060200191505060405180910390fd5b6000611c7e846117aa565b9050600080611c8d86866115e8565b5096505050505050915060016003811115611ca457fe5b826003811115611cb057fe5b1480611cbc5750428110155b15611df8578273ffffffffffffffffffffffffffffffffffffffff1663b7760c8f600460009054906101000a900473ffffffffffffffffffffffffffffffffffffffff1673ffffffffffffffffffffffffffffffffffffffff1663537f7b90886040518263ffffffff1660e01b81526004018082815260200191505060206040518083038186803b158015611d5057600080fd5b505afa158015611d64573d6000803e3d6000fd5b505050506040513d6020811015611d7a57600080fd5b8101908080519060200190929190505050336040518363ffffffff1660e01b8152600401808381526020018273ffffffffffffffffffffffffffffffffffffffff16815260200192505050600060405180830381600087803b158015611ddf57600080fd5b505af1158015611df3573d6000803e3d6000fd5b505050505b600360009054906101000a900473ffffffffffffffffffffffffffffffffffffffff1673ffffffffffffffffffffffffffffffffffffffff166330be2cef866040518263ffffffff1660e01b815260040180828152602001915050600060405180830381600087803b158015611e6d57600080fd5b505af1158015611e81573d6000803e3d6000fd5b505050506000600460009054906101000a900473ffffffffffffffffffffffffffffffffffffffff1673ffffffffffffffffffffffffffffffffffffffff1663537f7b90876040518263ffffffff1660e01b81526004018082815260200191505060206040518083038186803b158015611efa57600080fd5b505afa158015611f0e573d6000803e3d6000fd5b505050506040513d6020811015611f2457600080fd5b81019080805190602001909291905050509050600460009054906101000a900473ffffffffffffffffffffffffffffffffffffffff1673ffffffffffffffffffffffffffffffffffffffff16636f58ebb48260006040518363ffffffff1660e01b81526004018083815260200182815260200192505050600060405180830381600087803b158015611fb557600080fd5b505af1158015611fc9573d6000803e3d6000fd5b50505050600460009054906101000a900473ffffffffffffffffffffffffffffffffffffffff1673ffffffffffffffffffffffffffffffffffffffff16638b28cfbd8760006040518363ffffffff1660e01b81526004018083815260200182815260200192505050600060405180830381600087803b15801561204b57600080fd5b505af115801561205f573d6000803e3d6000fd5b505050507f95ae649bfaaef9def56a52f4fb2d9e8fa5496bb7082930e442c74cc76b03dcb33387604051808373ffffffffffffffffffffffffffffffffffffffff1681526020018281526020019250505060405180910390a150505050505050565b6120c9612583565b73ffffffffffffffffffffffffffffffffffffffff166120e76115bf565b73ffffffffffffffffffffffffffffffffffffffff1614612170576040517f08c379a00000000000000000000000000000000000000000000000000000000081526004018080602001828103825260208152602001807f4f776e61626c653a2063616c6c6572206973206e6f7420746865206f776e657281525060200191505060405180910390fd5b600360009054906101000a900473ffffffffffffffffffffffffffffffffffffffff1673ffffffffffffffffffffffffffffffffffffffff1663f2fde38b826040518263ffffffff1660e01b8152600401808273ffffffffffffffffffffffffffffffffffffffff168152602001915050600060405180830381600087803b1580156121fb57600080fd5b505af115801561220f573d6000803e3d6000fd5b5050505050565b61221e612583565b73ffffffffffffffffffffffffffffffffffffffff1661223c6115bf565b73ffffffffffffffffffffffffffffffffffffffff16146122c5576040517f08c379a00000000000000000000000000000000000000000000000000000000081526004018080602001828103825260208152602001807f4f776e61626c653a2063616c6c6572206973206e6f7420746865206f776e657281525060200191505060405180910390fd5b600460009054906101000a900473ffffffffffffffffffffffffffffffffffffffff1673ffffffffffffffffffffffffffffffffffffffff1663f2fde38b826040518263ffffffff1660e01b8152600401808273ffffffffffffffffffffffffffffffffffffffff168152602001915050600060405180830381600087803b15801561235057600080fd5b505af1158015612364573d6000803e3d6000fd5b5050505050565b612373612583565b73ffffffffffffffffffffffffffffffffffffffff166123916115bf565b73ffffffffffffffffffffffffffffffffffffffff161461241a576040517f08c379a00000000000000000000000000000000000000000000000000000000081526004018080602001828103825260208152602001807f4f776e61626c653a2063616c6c6572206973206e6f7420746865206f776e657281525060200191505060405180910390fd5b600073ffffffffffffffffffffffffffffffffffffffff168173ffffffffffffffffffffffffffffffffffffffff1614156124a0576040517f08c379a000000000000000000000000000000000000000000000000000000000815260040180806020018281038252602681526020018061258c6026913960400191505060405180910390fd5b8073ffffffffffffffffffffffffffffffffffffffff1660008054906101000a900473ffffffffffffffffffffffffffffffffffffffff1673ffffffffffffffffffffffffffffffffffffffff167f8be0079c531659141344cd1fd0a4f28419497f9722a3daafe3b4186f6b6457e060405160405180910390a3806000806101000a81548173ffffffffffffffffffffffffffffffffffffffff021916908373ffffffffffffffffffffffffffffffffffffffff16021790555050565b600260009054906101000a900473ffffffffffffffffffffffffffffffffffffffff1681565b60003390509056fe4f776e61626c653a206e6577206f776e657220697320746865207a65726f2061646472657373a26469706673582212201a61ae825258fb6c9ae71ee48c6e9d03ab84416829cb506b4ad208731e9ad9e664736f6c634300060c0033",
  "immutableReferences": {},
  "source": "//SPDX-License-Identifier: UNLICENSED\n\npragma solidity 0.6.12;\n\n\nimport \"@openzeppelin/contracts/access/Ownable.sol\";\nimport \"./interfaces/IOptions.sol\";\nimport \"./interfaces/IHegexoption.sol\";\nimport \"./interfaces/IChefData.sol\";\n\n/**\n * @author ivan@district0x\n * @title Option factory aka Mighty Option Chef\n * @notice Option Chef has the monopoly to mint and destroy NFT Hegexoptions\n */\ncontract OptionChef is Ownable {\n\n    //storage\n\n    IHegicOptions public hegicOptionETH;\n    IHegicOptions public hegicOptionBTC;\n    IHegexoption public hegexoption;\n    IOptionChefData public chefData;\n\n    //ideally this should've been a mapping/arr of id->Struct {owner, id}\n    //there are a few EVM gotchas for this (afaik one can't peek into\n    //mapped structs from another contracts, happy to restructure if I'm wrong though)\n    // mapping (uint => uint) uIds;\n    // mapping (uint => uint) ids;\n\n    //events\n\n    event Wrapped(address account, uint optionId);\n    event Unwrapped(address account, uint tokenId);\n    event Exercised(uint _tokenId, uint profit);\n    event CreatedHegic(uint optionId, uint hegexId);\n\n\n    //utility functions\n\n    function updateHegicOption(IHegicOptions _hegicOptionETH,\n                               IHegicOptions _hegicOptionBTC)\n        external\n        onlyOwner {\n        hegicOptionETH = _hegicOptionETH;\n        hegicOptionBTC = _hegicOptionBTC;\n    }\n\n    function updateHegexoption(IHegexoption _hegexoption)\n        external\n        onlyOwner {\n        hegexoption = _hegexoption;\n    }\n\n    constructor(IHegicOptions _hegicOptionETH,\n                IHegicOptions _hegicOptionBTC,\n                IOptionChefData  _chefData) public {\n        hegicOptionETH = _hegicOptionETH;\n        hegicOptionBTC = _hegicOptionBTC;\n        chefData = _chefData;\n    }\n\n    // direct user to a right contract\n    // NOTE: optimize to bool if gas savings are substantial\n    function getHegic(uint8 _optionType) public view returns (IHegicOptions) {\n        if (_optionType == 0) {\n            return hegicOptionETH;\n        } else  {\n            return hegicOptionBTC;\n        }\n    }\n\n    //core (un)wrap functionality\n\n\n    /**\n     * @notice Hegexoption wrapper adapter for Hegic\n     */\n    function wrapHegic(uint _uId, uint8 _optionType) public returns (uint newTokenId) {\n        require(chefData.ids(_uId) == 0 , \"UOPT:exists\");\n        IHegicOptions hegicOption = getHegic(_optionType);\n        (, address holder, , , , , , ) = hegicOption.options(_uId);\n        //auth is a bit unintuitive for wrapping, see NFT.sol:isApprovedOrOwner()\n        require(holder == msg.sender || holder == address(this), \"UOPT:ownership\");\n        newTokenId = hegexoption.mintHegexoption(msg.sender);\n        chefData.setuid(newTokenId, _uId);\n        chefData.setid(_uId, newTokenId);\n        chefData.setoptiontype(_uId, _optionType);\n        emit Wrapped(msg.sender, _uId);\n    }\n\n    /**\n     * @notice Hegexoption unwrapper adapter for Hegic\n     * @notice check burning logic, do we really want to burn it (vs meta)\n     * @notice TODO recheck escrow mechanism on 0x relay to prevent unwrapping when locked\n     */\n    function unwrapHegic(uint8 _optionType, uint _tokenId) external onlyTokenOwner(_tokenId) {\n        // checks if hegicOption will allow to transfer option ownership\n        IHegicOptions hegicOption = getHegic(_optionType);\n        (IHegicOptions.State state, , , , , , uint expiration ,) = getUnderlyingOptionParams(_optionType, _tokenId);\n        if (state == IHegicOptions.State.Active || expiration >= block.timestamp) {\n            hegicOption.transfer(chefData.uIds(_tokenId), msg.sender);\n        }\n        //burns anyway if token is expired\n        hegexoption.burnHegexoption(_tokenId);\n        uint utokenid = chefData.uIds(_tokenId);\n        chefData.setid(utokenid, 0);\n        chefData.setuid(_tokenId, 0);\n        emit Unwrapped(msg.sender, _tokenId);\n    }\n\n    function exerciseHegic(uint8 _optionType, uint _tokenId) external onlyTokenOwner(_tokenId) {\n        IHegicOptions hegicOption = getHegic(_optionType);\n        hegicOption.exercise(getUnderlyingOptionId(_tokenId));\n        uint profit = address(this).balance;\n        payable(msg.sender).transfer(profit);\n        emit Exercised(_tokenId, profit);\n    }\n\n    function transferHegexOwnership (address _newOwner) public onlyOwner {\n        hegexoption.transferOwnership(_newOwner);\n    }\n\n    function transferDataOwnership (address _newOwner) public onlyOwner {\n        chefData.transferOwnership(_newOwner);\n    }\n\n    function getUnderlyingOptionId(uint _tokenId) public view returns (uint) {\n        return chefData.uIds(_tokenId);\n    }\n\n    function getUnderlyingOptionParams(uint8 _optionType, uint _tokenId)\n        public\n        view\n        returns (\n        IHegicOptions.State state,\n        address payable holder,\n        uint256 strike,\n        uint256 amount,\n        uint256 lockedAmount,\n        uint256 premium,\n        uint256 expiration,\n        IHegicOptions.OptionType optionType)\n    {\n        (state,\n         holder,\n         strike,\n         amount,\n         lockedAmount,\n         premium,\n         expiration,\n         optionType) = getHegic(_optionType).options(chefData.uIds(_tokenId));\n    }\n\n    /**\n     * @notice check whether Chef has underlying option locked\n     */\n    function isDelegated(uint _tokenId) public view returns (bool) {\n        uint8 optionType = chefData.optionType(chefData.uIds(_tokenId));\n        IHegicOptions hegicOption = getHegic(optionType);\n        ( , address holder, , , , , , ) = hegicOption.options(chefData.uIds(_tokenId));\n        return holder == address(this);\n    }\n\n    function createHegic(\n        uint8 _hegicOptionType,\n        uint _period,\n        uint _amount,\n        uint _strike,\n        IHegicOptions.OptionType _optionType\n    )\n        payable\n        external\n        returns (uint)\n    {\n        IHegicOptions hegicOption = getHegic(_hegicOptionType);\n        uint optionId = hegicOption.create{value: msg.value}(_period, _amount, _strike, _optionType);\n        // return eth excess\n        payable(msg.sender).transfer(address(this).balance);\n        uint hegexId = wrapHegic(optionId, _hegicOptionType);\n        emit CreatedHegic(optionId, hegexId);\n        return hegexId;\n    }\n\n    modifier onlyTokenOwner(uint _itemId) {\n        require(msg.sender == hegexoption.ownerOf(_itemId), \"UOPT:ownership/exchange\");\n        _;\n    }\n\n    receive() external payable {}\n}\n",
  "sourcePath": "/home/stack/work/d0xhegex/contracts/OptionChef.sol",
  "compiler": {
    "name": "solc",
    "version": "0.6.12+commit.27d51765.Emscripten.clang"
  },
  "schemaVersion": "3.3.4",
  "updatedAt": "2021-03-21T16:17:12.867Z",
  "networkType": "ethereum",
  "devdoc": {
    "author": "ivan@district0x",
    "kind": "dev",
    "methods": {
      "owner()": {
        "details": "Returns the address of the current owner."
      },
      "renounceOwnership()": {
        "details": "Leaves the contract without owner. It will not be possible to call `onlyOwner` functions anymore. Can only be called by the current owner. NOTE: Renouncing ownership will leave the contract without an owner, thereby removing any functionality that is only available to the owner."
      },
      "transferOwnership(address)": {
        "details": "Transfers ownership of the contract to a new account (`newOwner`). Can only be called by the current owner."
      }
    },
    "title": "Option factory aka Mighty Option Chef",
    "version": 1
  },
  "userdoc": {
    "kind": "user",
    "methods": {
      "isDelegated(uint256)": {
        "notice": "check whether Chef has underlying option locked"
      },
      "unwrapHegic(uint8,uint256)": {
        "notice": "Hegexoption unwrapper adapter for Hegiccheck burning logic, do we really want to burn it (vs meta)TODO recheck escrow mechanism on 0x relay to prevent unwrapping when locked"
      },
      "wrapHegic(uint256,uint8)": {
        "notice": "Hegexoption wrapper adapter for Hegic"
      }
    },
    "notice": "Option Chef has the monopoly to mint and destroy NFT Hegexoptions",
    "version": 1
  }
}