{
  "contractName": "OptionChef",
  "abi": [
    {
      "inputs": [
        {
          "internalType": "contract IHegicOptions",
          "name": "_hegicOptionETH",
          "type": "address"
        },
        {
          "internalType": "contract IHegicOptions",
          "name": "_hegicOptionBTC",
          "type": "address"
        }
      ],
      "stateMutability": "nonpayable",
      "type": "constructor"
    },
    {
      "anonymous": false,
      "inputs": [
        {
          "indexed": false,
          "internalType": "uint256",
          "name": "optionId",
          "type": "uint256"
        },
        {
          "indexed": false,
          "internalType": "uint256",
          "name": "hegexId",
          "type": "uint256"
        }
      ],
      "name": "CreatedHegic",
      "type": "event"
    },
    {
      "anonymous": false,
      "inputs": [
        {
          "indexed": false,
          "internalType": "uint256",
          "name": "_tokenId",
          "type": "uint256"
        },
        {
          "indexed": false,
          "internalType": "uint256",
          "name": "profit",
          "type": "uint256"
        }
      ],
      "name": "Exercised",
      "type": "event"
    },
    {
      "anonymous": false,
      "inputs": [
        {
          "indexed": true,
          "internalType": "address",
          "name": "previousOwner",
          "type": "address"
        },
        {
          "indexed": true,
          "internalType": "address",
          "name": "newOwner",
          "type": "address"
        }
      ],
      "name": "OwnershipTransferred",
      "type": "event"
    },
    {
      "anonymous": false,
      "inputs": [
        {
          "indexed": false,
          "internalType": "address",
          "name": "account",
          "type": "address"
        },
        {
          "indexed": false,
          "internalType": "uint256",
          "name": "tokenId",
          "type": "uint256"
        }
      ],
      "name": "Unwrapped",
      "type": "event"
    },
    {
      "anonymous": false,
      "inputs": [
        {
          "indexed": false,
          "internalType": "address",
          "name": "account",
          "type": "address"
        },
        {
          "indexed": false,
          "internalType": "uint256",
          "name": "optionId",
          "type": "uint256"
        }
      ],
      "name": "Wrapped",
      "type": "event"
    },
    {
      "inputs": [],
      "name": "hegexoption",
      "outputs": [
        {
          "internalType": "contract IHegexoption",
          "name": "",
          "type": "address"
        }
      ],
      "stateMutability": "view",
      "type": "function",
      "constant": true
    },
    {
      "inputs": [],
      "name": "hegicOptionBTC",
      "outputs": [
        {
          "internalType": "contract IHegicOptions",
          "name": "",
          "type": "address"
        }
      ],
      "stateMutability": "view",
      "type": "function",
      "constant": true
    },
    {
      "inputs": [],
      "name": "hegicOptionETH",
      "outputs": [
        {
          "internalType": "contract IHegicOptions",
          "name": "",
          "type": "address"
        }
      ],
      "stateMutability": "view",
      "type": "function",
      "constant": true
    },
    {
      "inputs": [],
      "name": "owner",
      "outputs": [
        {
          "internalType": "address",
          "name": "",
          "type": "address"
        }
      ],
      "stateMutability": "view",
      "type": "function",
      "constant": true
    },
    {
      "inputs": [],
      "name": "renounceOwnership",
      "outputs": [],
      "stateMutability": "nonpayable",
      "type": "function"
    },
    {
      "inputs": [
        {
          "internalType": "address",
          "name": "newOwner",
          "type": "address"
        }
      ],
      "name": "transferOwnership",
      "outputs": [],
      "stateMutability": "nonpayable",
      "type": "function"
    },
    {
      "stateMutability": "payable",
      "type": "receive",
      "payable": true
    },
    {
      "inputs": [
        {
          "internalType": "contract IHegicOptions",
          "name": "_hegicOptionETH",
          "type": "address"
        },
        {
          "internalType": "contract IHegicOptions",
          "name": "_hegicOptionBTC",
          "type": "address"
        }
      ],
      "name": "updateHegicOption",
      "outputs": [],
      "stateMutability": "nonpayable",
      "type": "function"
    },
    {
      "inputs": [
        {
          "internalType": "contract IHegexoption",
          "name": "_hegexoption",
          "type": "address"
        }
      ],
      "name": "updateHegexoption",
      "outputs": [],
      "stateMutability": "nonpayable",
      "type": "function"
    },
    {
      "inputs": [
        {
          "internalType": "uint8",
          "name": "_optionType",
          "type": "uint8"
        }
      ],
      "name": "getHegic",
      "outputs": [
        {
          "internalType": "contract IHegicOptions",
          "name": "",
          "type": "address"
        }
      ],
      "stateMutability": "view",
      "type": "function",
      "constant": true
    },
    {
      "inputs": [
        {
          "internalType": "uint256",
          "name": "_uId",
          "type": "uint256"
        },
        {
          "internalType": "uint8",
          "name": "_optionType",
          "type": "uint8"
        }
      ],
      "name": "wrapHegic",
      "outputs": [
        {
          "internalType": "uint256",
          "name": "newTokenId",
          "type": "uint256"
        }
      ],
      "stateMutability": "nonpayable",
      "type": "function"
    },
    {
      "inputs": [
        {
          "internalType": "uint8",
          "name": "_optionType",
          "type": "uint8"
        },
        {
          "internalType": "uint256",
          "name": "_tokenId",
          "type": "uint256"
        }
      ],
      "name": "unwrapHegic",
      "outputs": [],
      "stateMutability": "nonpayable",
      "type": "function"
    },
    {
      "inputs": [
        {
          "internalType": "uint8",
          "name": "_optionType",
          "type": "uint8"
        },
        {
          "internalType": "uint256",
          "name": "_tokenId",
          "type": "uint256"
        }
      ],
      "name": "exerciseHegic",
      "outputs": [],
      "stateMutability": "nonpayable",
      "type": "function"
    },
    {
      "inputs": [
        {
          "internalType": "address",
          "name": "_newOwner",
          "type": "address"
        }
      ],
      "name": "transferHegexOwnership",
      "outputs": [],
      "stateMutability": "nonpayable",
      "type": "function"
    },
    {
      "inputs": [
        {
          "internalType": "uint256",
          "name": "_tokenId",
          "type": "uint256"
        }
      ],
      "name": "getUnderlyingOptionId",
      "outputs": [
        {
          "internalType": "uint256",
          "name": "",
          "type": "uint256"
        }
      ],
      "stateMutability": "view",
      "type": "function",
      "constant": true
    },
    {
      "inputs": [
        {
          "internalType": "uint8",
          "name": "_optionType",
          "type": "uint8"
        },
        {
          "internalType": "uint256",
          "name": "_tokenId",
          "type": "uint256"
        }
      ],
      "name": "getUnderlyingOptionParams",
      "outputs": [
        {
          "internalType": "enum IHegicOptions.State",
          "name": "state",
          "type": "uint8"
        },
        {
          "internalType": "address payable",
          "name": "holder",
          "type": "address"
        },
        {
          "internalType": "uint256",
          "name": "strike",
          "type": "uint256"
        },
        {
          "internalType": "uint256",
          "name": "amount",
          "type": "uint256"
        },
        {
          "internalType": "uint256",
          "name": "lockedAmount",
          "type": "uint256"
        },
        {
          "internalType": "uint256",
          "name": "premium",
          "type": "uint256"
        },
        {
          "internalType": "uint256",
          "name": "expiration",
          "type": "uint256"
        },
        {
          "internalType": "enum IHegicOptions.OptionType",
          "name": "optionType",
          "type": "uint8"
        }
      ],
      "stateMutability": "view",
      "type": "function",
      "constant": true
    },
    {
      "inputs": [
        {
          "internalType": "uint8",
          "name": "_optionType",
          "type": "uint8"
        },
        {
          "internalType": "uint256",
          "name": "_tokenId",
          "type": "uint256"
        }
      ],
      "name": "isDelegated",
      "outputs": [
        {
          "internalType": "bool",
          "name": "",
          "type": "bool"
        }
      ],
      "stateMutability": "view",
      "type": "function",
      "constant": true
    },
    {
      "inputs": [
        {
          "internalType": "uint8",
          "name": "_hegicOptionType",
          "type": "uint8"
        },
        {
          "internalType": "uint256",
          "name": "_period",
          "type": "uint256"
        },
        {
          "internalType": "uint256",
          "name": "_amount",
          "type": "uint256"
        },
        {
          "internalType": "uint256",
          "name": "_strike",
          "type": "uint256"
        },
        {
          "internalType": "enum IHegicOptions.OptionType",
          "name": "_optionType",
          "type": "uint8"
        }
      ],
      "name": "createHegic",
      "outputs": [
        {
          "internalType": "uint256",
          "name": "",
          "type": "uint256"
        }
      ],
      "stateMutability": "payable",
      "type": "function",
      "payable": true
    }
  ],
  "bytecode": "0x608060405234801561001057600080fd5b50604051611de1380380611de18339818101604052604081101561003357600080fd5b810190808051906020019092919080519060200190929190505050600061005e61018560201b60201c565b9050806000806101000a81548173ffffffffffffffffffffffffffffffffffffffff021916908373ffffffffffffffffffffffffffffffffffffffff1602179055508073ffffffffffffffffffffffffffffffffffffffff16600073ffffffffffffffffffffffffffffffffffffffff167f8be0079c531659141344cd1fd0a4f28419497f9722a3daafe3b4186f6b6457e060405160405180910390a35081600160006101000a81548173ffffffffffffffffffffffffffffffffffffffff021916908373ffffffffffffffffffffffffffffffffffffffff16021790555080600260006101000a81548173ffffffffffffffffffffffffffffffffffffffff021916908373ffffffffffffffffffffffffffffffffffffffff160217905550505061018d565b600033905090565b611c458061019c6000396000f3fe6080604052600436106101025760003560e01c80638da5cb5b11610095578063cdb9d31811610064578063cdb9d3181461053d578063de77a8b51461058c578063e321e011146105d4578063f2fde38b14610625578063fa61a8121461067657610109565b80638da5cb5b14610393578063a1233d1d146103d4578063bcef604e1461048d578063c9052aa3146104f557610109565b80636d0335c2116100d15780636d0335c21461027a578063715018a6146102bb578063780ebd15146102d257806385d8a3aa1461034257610109565b806314b265471461010e57806318edc88c1461016a5780634839b3d4146101ab57806353a6be091461020957610109565b3661010957005b600080fd5b34801561011a57600080fd5b506101546004803603604081101561013157600080fd5b8101908080359060200190929190803560ff1690602001909291905050506106b7565b6040518082815260200191505060405180910390f35b34801561017657600080fd5b5061017f610a59565b604051808273ffffffffffffffffffffffffffffffffffffffff16815260200191505060405180910390f35b3480156101b757600080fd5b506101f1600480360360408110156101ce57600080fd5b81019080803560ff16906020019092919080359060200190929190505050610a7f565b60405180821515815260200191505060405180910390f35b34801561021557600080fd5b506102786004803603604081101561022c57600080fd5b81019080803573ffffffffffffffffffffffffffffffffffffffff169060200190929190803573ffffffffffffffffffffffffffffffffffffffff169060200190929190505050610bb8565b005b34801561028657600080fd5b5061028f610ced565b604051808273ffffffffffffffffffffffffffffffffffffffff16815260200191505060405180910390f35b3480156102c757600080fd5b506102d0610d13565b005b61032c600480360360a08110156102e857600080fd5b81019080803560ff169060200190929190803590602001909291908035906020019092919080359060200190929190803560ff169060200190929190505050610e80565b6040518082815260200191505060405180910390f35b34801561034e57600080fd5b506103916004803603602081101561036557600080fd5b81019080803573ffffffffffffffffffffffffffffffffffffffff169060200190929190505050610fe7565b005b34801561039f57600080fd5b506103a86110da565b604051808273ffffffffffffffffffffffffffffffffffffffff16815260200191505060405180910390f35b3480156103e057600080fd5b5061041a600480360360408110156103f757600080fd5b81019080803560ff16906020019092919080359060200190929190505050611103565b6040518089600381111561042a57fe5b81526020018873ffffffffffffffffffffffffffffffffffffffff16815260200187815260200186815260200185815260200184815260200183815260200182600281111561047557fe5b81526020019850505050505050505060405180910390f35b34801561049957600080fd5b506104c9600480360360208110156104b057600080fd5b81019080803560ff16906020019092919050505061122b565b604051808273ffffffffffffffffffffffffffffffffffffffff16815260200191505060405180910390f35b34801561050157600080fd5b5061053b6004803603604081101561051857600080fd5b81019080803560ff1690602001909291908035906020019092919050505061128d565b005b34801561054957600080fd5b506105766004803603602081101561056057600080fd5b81019080803590602001909291905050506114ee565b6040518082815260200191505060405180910390f35b34801561059857600080fd5b506105d2600480360360408110156105af57600080fd5b81019080803560ff1690602001909291908035906020019092919050505061150b565b005b3480156105e057600080fd5b50610623600480360360208110156105f757600080fd5b81019080803573ffffffffffffffffffffffffffffffffffffffff169060200190929190505050611874565b005b34801561063157600080fd5b506106746004803603602081101561064857600080fd5b81019080803573ffffffffffffffffffffffffffffffffffffffff1690602001909291905050506119c9565b005b34801561068257600080fd5b5061068b611bbb565b604051808273ffffffffffffffffffffffffffffffffffffffff16815260200191505060405180910390f35b600080600560008581526020019081526020016000205414610741576040517f08c379a000000000000000000000000000000000000000000000000000000000815260040180806020018281038252600b8152602001807f554f50543a65786973747300000000000000000000000000000000000000000081525060200191505060405180910390fd5b600061074c8361122b565b905060008173ffffffffffffffffffffffffffffffffffffffff1663409e2205866040518263ffffffff1660e01b8152600401808281526020019150506101006040518083038186803b1580156107a257600080fd5b505afa1580156107b6573d6000803e3d6000fd5b505050506040513d6101008110156107cd57600080fd5b8101908080519060200190929190805190602001909291908051906020019092919080519060200190929190805190602001909291908051906020019092919080519060200190929190805190602001909291905050505050505050509150503373ffffffffffffffffffffffffffffffffffffffff168173ffffffffffffffffffffffffffffffffffffffff16148061089257503073ffffffffffffffffffffffffffffffffffffffff168173ffffffffffffffffffffffffffffffffffffffff16145b610904576040517f08c379a000000000000000000000000000000000000000000000000000000000815260040180806020018281038252600e8152602001807f554f50543a6f776e65727368697000000000000000000000000000000000000081525060200191505060405180910390fd5b600360009054906101000a900473ffffffffffffffffffffffffffffffffffffffff1673ffffffffffffffffffffffffffffffffffffffff16631ce369a4336040518263ffffffff1660e01b8152600401808273ffffffffffffffffffffffffffffffffffffffff168152602001915050602060405180830381600087803b15801561098f57600080fd5b505af11580156109a3573d6000803e3d6000fd5b505050506040513d60208110156109b957600080fd5b810190808051906020019092919050505092508460046000858152602001908152602001600020819055508260056000878152602001908152602001600020819055507f4700c1726b4198077cd40320a32c45265a1910521eb0ef713dd1d8412413d7fc3386604051808373ffffffffffffffffffffffffffffffffffffffff1681526020018281526020019250505060405180910390a1505092915050565b600360009054906101000a900473ffffffffffffffffffffffffffffffffffffffff1681565b600080610a8b8461122b565b905060008173ffffffffffffffffffffffffffffffffffffffff1663409e220560046000878152602001908152602001600020546040518263ffffffff1660e01b8152600401808281526020019150506101006040518083038186803b158015610af457600080fd5b505afa158015610b08573d6000803e3d6000fd5b505050506040513d610100811015610b1f57600080fd5b8101908080519060200190929190805190602001909291908051906020019092919080519060200190929190805190602001909291908051906020019092919080519060200190929190805190602001909291905050505050505050509150503073ffffffffffffffffffffffffffffffffffffffff168173ffffffffffffffffffffffffffffffffffffffff16149250505092915050565b610bc0611be1565b73ffffffffffffffffffffffffffffffffffffffff16610bde6110da565b73ffffffffffffffffffffffffffffffffffffffff1614610c67576040517f08c379a00000000000000000000000000000000000000000000000000000000081526004018080602001828103825260208152602001807f4f776e61626c653a2063616c6c6572206973206e6f7420746865206f776e657281525060200191505060405180910390fd5b81600160006101000a81548173ffffffffffffffffffffffffffffffffffffffff021916908373ffffffffffffffffffffffffffffffffffffffff16021790555080600260006101000a81548173ffffffffffffffffffffffffffffffffffffffff021916908373ffffffffffffffffffffffffffffffffffffffff1602179055505050565b600160009054906101000a900473ffffffffffffffffffffffffffffffffffffffff1681565b610d1b611be1565b73ffffffffffffffffffffffffffffffffffffffff16610d396110da565b73ffffffffffffffffffffffffffffffffffffffff1614610dc2576040517f08c379a00000000000000000000000000000000000000000000000000000000081526004018080602001828103825260208152602001807f4f776e61626c653a2063616c6c6572206973206e6f7420746865206f776e657281525060200191505060405180910390fd5b600073ffffffffffffffffffffffffffffffffffffffff1660008054906101000a900473ffffffffffffffffffffffffffffffffffffffff1673ffffffffffffffffffffffffffffffffffffffff167f8be0079c531659141344cd1fd0a4f28419497f9722a3daafe3b4186f6b6457e060405160405180910390a360008060006101000a81548173ffffffffffffffffffffffffffffffffffffffff021916908373ffffffffffffffffffffffffffffffffffffffff160217905550565b600080610e8c8761122b565b905060008173ffffffffffffffffffffffffffffffffffffffff166380478ad134898989896040518663ffffffff1660e01b815260040180858152602001848152602001838152602001826002811115610ee257fe5b81526020019450505050506020604051808303818588803b158015610f0657600080fd5b505af1158015610f1a573d6000803e3d6000fd5b50505050506040513d6020811015610f3157600080fd5b810190808051906020019092919050505090503373ffffffffffffffffffffffffffffffffffffffff166108fc479081150290604051600060405180830381858888f19350505050158015610f8a573d6000803e3d6000fd5b506000610f97828a6106b7565b90507f3ff13a1b9a7e62d5aad7161a55c26133e80b4519e8343c5e9a3ad7f3debee0fb8282604051808381526020018281526020019250505060405180910390a180935050505095945050505050565b610fef611be1565b73ffffffffffffffffffffffffffffffffffffffff1661100d6110da565b73ffffffffffffffffffffffffffffffffffffffff1614611096576040517f08c379a00000000000000000000000000000000000000000000000000000000081526004018080602001828103825260208152602001807f4f776e61626c653a2063616c6c6572206973206e6f7420746865206f776e657281525060200191505060405180910390fd5b80600360006101000a81548173ffffffffffffffffffffffffffffffffffffffff021916908373ffffffffffffffffffffffffffffffffffffffff16021790555050565b60008060009054906101000a900473ffffffffffffffffffffffffffffffffffffffff16905090565b6000806000806000806000806111188a61122b565b73ffffffffffffffffffffffffffffffffffffffff1663409e2205600460008c8152602001908152602001600020546040518263ffffffff1660e01b8152600401808281526020019150506101006040518083038186803b15801561117c57600080fd5b505afa158015611190573d6000803e3d6000fd5b505050506040513d6101008110156111a757600080fd5b810190808051906020019092919080519060200190929190805190602001909291908051906020019092919080519060200190929190805190602001909291908051906020019092919080519060200190929190505050809850819950829a50839b50849c50859d50869e50879f5050505050505050509295985092959890939650565b6000808260ff16141561126257600160009054906101000a900473ffffffffffffffffffffffffffffffffffffffff169050611288565b600260009054906101000a900473ffffffffffffffffffffffffffffffffffffffff1690505b919050565b80600360009054906101000a900473ffffffffffffffffffffffffffffffffffffffff1673ffffffffffffffffffffffffffffffffffffffff16636352211e826040518263ffffffff1660e01b81526004018082815260200191505060206040518083038186803b15801561130157600080fd5b505afa158015611315573d6000803e3d6000fd5b505050506040513d602081101561132b57600080fd5b810190808051906020019092919050505073ffffffffffffffffffffffffffffffffffffffff163373ffffffffffffffffffffffffffffffffffffffff16146113dc576040517f08c379a00000000000000000000000000000000000000000000000000000000081526004018080602001828103825260178152602001807f554f50543a6f776e6572736869702f65786368616e676500000000000000000081525060200191505060405180910390fd5b60006113e78461122b565b90508073ffffffffffffffffffffffffffffffffffffffff1663b07f0a4161140e856114ee565b6040518263ffffffff1660e01b815260040180828152602001915050600060405180830381600087803b15801561144457600080fd5b505af1158015611458573d6000803e3d6000fd5b5050505060004790503373ffffffffffffffffffffffffffffffffffffffff166108fc829081150290604051600060405180830381858888f193505050501580156114a7573d6000803e3d6000fd5b507f0328c770810250ca303b85a612c9103929d1701abdf1dd1114607d139edfbed68482604051808381526020018281526020019250505060405180910390a15050505050565b600060046000838152602001908152602001600020549050919050565b80600360009054906101000a900473ffffffffffffffffffffffffffffffffffffffff1673ffffffffffffffffffffffffffffffffffffffff16636352211e826040518263ffffffff1660e01b81526004018082815260200191505060206040518083038186803b15801561157f57600080fd5b505afa158015611593573d6000803e3d6000fd5b505050506040513d60208110156115a957600080fd5b810190808051906020019092919050505073ffffffffffffffffffffffffffffffffffffffff163373ffffffffffffffffffffffffffffffffffffffff161461165a576040517f08c379a00000000000000000000000000000000000000000000000000000000081526004018080602001828103825260178152602001807f554f50543a6f776e6572736869702f65786368616e676500000000000000000081525060200191505060405180910390fd5b60006116658461122b565b90506000806116748686611103565b509650505050505091506001600381111561168b57fe5b82600381111561169757fe5b14806116a35750428110155b15611745578273ffffffffffffffffffffffffffffffffffffffff1663b7760c8f6004600088815260200190815260200160002054336040518363ffffffff1660e01b8152600401808381526020018273ffffffffffffffffffffffffffffffffffffffff16815260200192505050600060405180830381600087803b15801561172c57600080fd5b505af1158015611740573d6000803e3d6000fd5b505050505b600360009054906101000a900473ffffffffffffffffffffffffffffffffffffffff1673ffffffffffffffffffffffffffffffffffffffff166330be2cef866040518263ffffffff1660e01b815260040180828152602001915050600060405180830381600087803b1580156117ba57600080fd5b505af11580156117ce573d6000803e3d6000fd5b505050506000600560006004600089815260200190815260200160002054815260200190815260200160002081905550600060046000878152602001908152602001600020819055507f95ae649bfaaef9def56a52f4fb2d9e8fa5496bb7082930e442c74cc76b03dcb33386604051808373ffffffffffffffffffffffffffffffffffffffff1681526020018281526020019250505060405180910390a1505050505050565b61187c611be1565b73ffffffffffffffffffffffffffffffffffffffff1661189a6110da565b73ffffffffffffffffffffffffffffffffffffffff1614611923576040517f08c379a00000000000000000000000000000000000000000000000000000000081526004018080602001828103825260208152602001807f4f776e61626c653a2063616c6c6572206973206e6f7420746865206f776e657281525060200191505060405180910390fd5b600360009054906101000a900473ffffffffffffffffffffffffffffffffffffffff1673ffffffffffffffffffffffffffffffffffffffff1663f2fde38b826040518263ffffffff1660e01b8152600401808273ffffffffffffffffffffffffffffffffffffffff168152602001915050600060405180830381600087803b1580156119ae57600080fd5b505af11580156119c2573d6000803e3d6000fd5b5050505050565b6119d1611be1565b73ffffffffffffffffffffffffffffffffffffffff166119ef6110da565b73ffffffffffffffffffffffffffffffffffffffff1614611a78576040517f08c379a00000000000000000000000000000000000000000000000000000000081526004018080602001828103825260208152602001807f4f776e61626c653a2063616c6c6572206973206e6f7420746865206f776e657281525060200191505060405180910390fd5b600073ffffffffffffffffffffffffffffffffffffffff168173ffffffffffffffffffffffffffffffffffffffff161415611afe576040517f08c379a0000000000000000000000000000000000000000000000000000000008152600401808060200182810382526026815260200180611bea6026913960400191505060405180910390fd5b8073ffffffffffffffffffffffffffffffffffffffff1660008054906101000a900473ffffffffffffffffffffffffffffffffffffffff1673ffffffffffffffffffffffffffffffffffffffff167f8be0079c531659141344cd1fd0a4f28419497f9722a3daafe3b4186f6b6457e060405160405180910390a3806000806101000a81548173ffffffffffffffffffffffffffffffffffffffff021916908373ffffffffffffffffffffffffffffffffffffffff16021790555050565b600260009054906101000a900473ffffffffffffffffffffffffffffffffffffffff1681565b60003390509056fe4f776e61626c653a206e6577206f776e657220697320746865207a65726f2061646472657373a26469706673582212200555411d5f1596aa83a2e1ff47cca7671adf7de010ae06b53b9d1093b9c2a73c64736f6c634300060c0033",
  "immutableReferences": {},
  "source": "//SPDX-License-Identifier: UNLICENSED\n\npragma solidity 0.6.12;\n\n\nimport \"@openzeppelin/contracts/access/Ownable.sol\";\nimport \"./interfaces/IOptions.sol\";\nimport \"./interfaces/IHegexoption.sol\";\n\n/**\n * @author ivan@district0x\n * @title Option factory aka Mighty Option Chef\n * @notice Option Chef has the monopoly to mint and destroy NFT Hegexoptions\n */\ncontract OptionChef is Ownable {\n\n    //storage\n\n    IHegicOptions public hegicOptionETH;\n    IHegicOptions public hegicOptionBTC;\n    IHegexoption public hegexoption;\n\n    //ideally this should've been a mapping/arr of id->Struct {owner, id}\n    //there are a few EVM gotchas for this (afaik one can't peek into\n    //mapped structs from another contracts, happy to restructure if I'm wrong though)\n    mapping (uint => uint) uIds;\n    mapping (uint => uint) ids;\n\n    //events\n\n    event Wrapped(address account, uint optionId);\n    event Unwrapped(address account, uint tokenId);\n    event Exercised(uint _tokenId, uint profit);\n    event CreatedHegic(uint optionId, uint hegexId);\n\n\n    //utility functions\n\n    function updateHegicOption(IHegicOptions _hegicOptionETH,\n                               IHegicOptions _hegicOptionBTC)\n        external\n        onlyOwner {\n        hegicOptionETH = _hegicOptionETH;\n        hegicOptionBTC = _hegicOptionBTC;\n    }\n\n    function updateHegexoption(IHegexoption _hegexoption)\n        external\n        onlyOwner {\n        hegexoption = _hegexoption;\n    }\n\n    constructor(IHegicOptions _hegicOptionETH,\n                IHegicOptions _hegicOptionBTC) public {\n        hegicOptionETH = _hegicOptionETH;\n        hegicOptionBTC = _hegicOptionBTC;\n    }\n\n    // direct user to a right contract\n    // NOTE: optimize to bool if gas savings are substantial\n    function getHegic(uint8 _optionType) public view returns (IHegicOptions) {\n        if (_optionType == 0) {\n            return hegicOptionETH;\n        } else  {\n            return hegicOptionBTC;\n        }\n    }\n\n    //core (un)wrap functionality\n\n\n    /**\n     * @notice Hegexoption wrapper adapter for Hegic\n     */\n    function wrapHegic(uint _uId, uint8 _optionType) public returns (uint newTokenId) {\n        require(ids[_uId] == 0 , \"UOPT:exists\");\n        IHegicOptions hegicOption = getHegic(_optionType);\n        (, address holder, , , , , , ) = hegicOption.options(_uId);\n        //auth is a bit unintuitive for wrapping, see NFT.sol:isApprovedOrOwner()\n        require(holder == msg.sender || holder == address(this), \"UOPT:ownership\");\n        newTokenId = hegexoption.mintHegexoption(msg.sender);\n        uIds[newTokenId] = _uId;\n        ids[_uId] = newTokenId;\n        emit Wrapped(msg.sender, _uId);\n    }\n\n    /**\n     * @notice Hegexoption unwrapper adapter for Hegic\n     * @notice check burning logic, do we really want to burn it (vs meta)\n     * @notice TODO recheck escrow mechanism on 0x relay to prevent unwrapping when locked\n     */\n    function unwrapHegic(uint8 _optionType, uint _tokenId) external onlyTokenOwner(_tokenId) {\n        // checks if hegicOption will allow to transfer option ownership\n        IHegicOptions hegicOption = getHegic(_optionType);\n        (IHegicOptions.State state, , , , , , uint expiration ,) = getUnderlyingOptionParams(_optionType, _tokenId);\n        if (state == IHegicOptions.State.Active || expiration >= block.timestamp) {\n            hegicOption.transfer(uIds[_tokenId], msg.sender);\n        }\n        //burns anyway if token is expired\n        hegexoption.burnHegexoption(_tokenId);\n        ids[uIds[_tokenId]] = 0;\n        uIds[_tokenId] = 0;\n        emit Unwrapped(msg.sender, _tokenId);\n    }\n\n    function exerciseHegic(uint8 _optionType, uint _tokenId) external onlyTokenOwner(_tokenId) {\n        IHegicOptions hegicOption = getHegic(_optionType);\n        hegicOption.exercise(getUnderlyingOptionId(_tokenId));\n        uint profit = address(this).balance;\n        payable(msg.sender).transfer(profit);\n        emit Exercised(_tokenId, profit);\n    }\n\n    function transferHegexOwnership (address _newOwner) public onlyOwner {\n        hegexoption.transferOwnership(_newOwner);\n    }\n\n    function getUnderlyingOptionId(uint _tokenId) public view returns (uint) {\n        return uIds[_tokenId];\n    }\n\n    function getUnderlyingOptionParams(uint8 _optionType, uint _tokenId)\n        public\n        view\n        returns (\n        IHegicOptions.State state,\n        address payable holder,\n        uint256 strike,\n        uint256 amount,\n        uint256 lockedAmount,\n        uint256 premium,\n        uint256 expiration,\n        IHegicOptions.OptionType optionType)\n    {\n        (state,\n         holder,\n         strike,\n         amount,\n         lockedAmount,\n         premium,\n         expiration,\n         optionType) = getHegic(_optionType).options(uIds[_tokenId]);\n    }\n\n    /**\n     * @notice check whether Chef has underlying option locked\n     */\n    function isDelegated(uint8 _optionType, uint _tokenId) public view returns (bool) {\n        IHegicOptions hegicOption = getHegic(_optionType);\n        ( , address holder, , , , , , ) = hegicOption.options(uIds[_tokenId]);\n        return holder == address(this);\n    }\n\n    function createHegic(\n        uint8 _hegicOptionType,\n        uint _period,\n        uint _amount,\n        uint _strike,\n        IHegicOptions.OptionType _optionType\n    )\n        payable\n        external\n        returns (uint)\n    {\n        IHegicOptions hegicOption = getHegic(_hegicOptionType);\n        uint optionId = hegicOption.create{value: msg.value}(_period, _amount, _strike, _optionType);\n        // return eth excess\n        payable(msg.sender).transfer(address(this).balance);\n        uint hegexId = wrapHegic(optionId, _hegicOptionType);\n        emit CreatedHegic(optionId, hegexId);\n        return hegexId;\n    }\n\n    modifier onlyTokenOwner(uint _itemId) {\n        require(msg.sender == hegexoption.ownerOf(_itemId), \"UOPT:ownership/exchange\");\n        _;\n    }\n\n    receive() external payable {}\n}\n",
  "sourcePath": "/home/stack/work/d0xhegex/contracts/OptionChef.sol",
  "compiler": {
    "name": "solc",
    "version": "0.6.12+commit.27d51765.Emscripten.clang"
  },
  "schemaVersion": "3.3.4",
  "updatedAt": "2021-03-20T11:28:55.487Z",
  "networkType": "ethereum",
  "devdoc": {
    "author": "ivan@district0x",
    "kind": "dev",
    "methods": {
      "owner()": {
        "details": "Returns the address of the current owner."
      },
      "renounceOwnership()": {
        "details": "Leaves the contract without owner. It will not be possible to call `onlyOwner` functions anymore. Can only be called by the current owner. NOTE: Renouncing ownership will leave the contract without an owner, thereby removing any functionality that is only available to the owner."
      },
      "transferOwnership(address)": {
        "details": "Transfers ownership of the contract to a new account (`newOwner`). Can only be called by the current owner."
      }
    },
    "title": "Option factory aka Mighty Option Chef",
    "version": 1
  },
  "userdoc": {
    "kind": "user",
    "methods": {
      "isDelegated(uint8,uint256)": {
        "notice": "check whether Chef has underlying option locked"
      },
      "unwrapHegic(uint8,uint256)": {
        "notice": "Hegexoption unwrapper adapter for Hegiccheck burning logic, do we really want to burn it (vs meta)TODO recheck escrow mechanism on 0x relay to prevent unwrapping when locked"
      },
      "wrapHegic(uint256,uint8)": {
        "notice": "Hegexoption wrapper adapter for Hegic"
      }
    },
    "notice": "Option Chef has the monopoly to mint and destroy NFT Hegexoptions",
    "version": 1
  }
}