{
  "contractName": "StakingRewards",
  "abi": [
    {
      "inputs": [
        {
          "internalType": "address",
          "name": "_owner",
          "type": "address"
        },
        {
          "internalType": "address",
          "name": "_rewardsDistribution",
          "type": "address"
        },
        {
          "internalType": "address",
          "name": "_rewardsToken",
          "type": "address"
        },
        {
          "internalType": "address",
          "name": "_stakingToken",
          "type": "address"
        }
      ],
      "stateMutability": "nonpayable",
      "type": "constructor"
    },
    {
      "anonymous": false,
      "inputs": [
        {
          "indexed": false,
          "internalType": "address",
          "name": "oldOwner",
          "type": "address"
        },
        {
          "indexed": false,
          "internalType": "address",
          "name": "newOwner",
          "type": "address"
        }
      ],
      "name": "OwnerChanged",
      "type": "event"
    },
    {
      "anonymous": false,
      "inputs": [
        {
          "indexed": false,
          "internalType": "address",
          "name": "newOwner",
          "type": "address"
        }
      ],
      "name": "OwnerNominated",
      "type": "event"
    },
    {
      "anonymous": false,
      "inputs": [
        {
          "indexed": false,
          "internalType": "bool",
          "name": "isPaused",
          "type": "bool"
        }
      ],
      "name": "PauseChanged",
      "type": "event"
    },
    {
      "anonymous": false,
      "inputs": [
        {
          "indexed": false,
          "internalType": "address",
          "name": "token",
          "type": "address"
        },
        {
          "indexed": false,
          "internalType": "uint256",
          "name": "amount",
          "type": "uint256"
        }
      ],
      "name": "Recovered",
      "type": "event"
    },
    {
      "anonymous": false,
      "inputs": [
        {
          "indexed": false,
          "internalType": "uint256",
          "name": "reward",
          "type": "uint256"
        }
      ],
      "name": "RewardAdded",
      "type": "event"
    },
    {
      "anonymous": false,
      "inputs": [
        {
          "indexed": true,
          "internalType": "address",
          "name": "user",
          "type": "address"
        },
        {
          "indexed": false,
          "internalType": "uint256",
          "name": "reward",
          "type": "uint256"
        }
      ],
      "name": "RewardPaid",
      "type": "event"
    },
    {
      "anonymous": false,
      "inputs": [
        {
          "indexed": false,
          "internalType": "uint256",
          "name": "newDuration",
          "type": "uint256"
        }
      ],
      "name": "RewardsDurationUpdated",
      "type": "event"
    },
    {
      "anonymous": false,
      "inputs": [
        {
          "indexed": true,
          "internalType": "address",
          "name": "user",
          "type": "address"
        },
        {
          "indexed": false,
          "internalType": "uint256",
          "name": "amount",
          "type": "uint256"
        }
      ],
      "name": "Staked",
      "type": "event"
    },
    {
      "anonymous": false,
      "inputs": [
        {
          "indexed": true,
          "internalType": "address",
          "name": "user",
          "type": "address"
        },
        {
          "indexed": false,
          "internalType": "uint256",
          "name": "amount",
          "type": "uint256"
        }
      ],
      "name": "Withdrawn",
      "type": "event"
    },
    {
      "inputs": [],
      "name": "acceptOwnership",
      "outputs": [],
      "stateMutability": "nonpayable",
      "type": "function"
    },
    {
      "inputs": [],
      "name": "lastPauseTime",
      "outputs": [
        {
          "internalType": "uint256",
          "name": "",
          "type": "uint256"
        }
      ],
      "stateMutability": "view",
      "type": "function"
    },
    {
      "inputs": [],
      "name": "lastUpdateTime",
      "outputs": [
        {
          "internalType": "uint256",
          "name": "",
          "type": "uint256"
        }
      ],
      "stateMutability": "view",
      "type": "function"
    },
    {
      "inputs": [
        {
          "internalType": "address",
          "name": "_owner",
          "type": "address"
        }
      ],
      "name": "nominateNewOwner",
      "outputs": [],
      "stateMutability": "nonpayable",
      "type": "function"
    },
    {
      "inputs": [],
      "name": "nominatedOwner",
      "outputs": [
        {
          "internalType": "address",
          "name": "",
          "type": "address"
        }
      ],
      "stateMutability": "view",
      "type": "function"
    },
    {
      "inputs": [],
      "name": "owner",
      "outputs": [
        {
          "internalType": "address",
          "name": "",
          "type": "address"
        }
      ],
      "stateMutability": "view",
      "type": "function"
    },
    {
      "inputs": [],
      "name": "paused",
      "outputs": [
        {
          "internalType": "bool",
          "name": "",
          "type": "bool"
        }
      ],
      "stateMutability": "view",
      "type": "function"
    },
    {
      "inputs": [],
      "name": "periodFinish",
      "outputs": [
        {
          "internalType": "uint256",
          "name": "",
          "type": "uint256"
        }
      ],
      "stateMutability": "view",
      "type": "function"
    },
    {
      "inputs": [],
      "name": "rewardPerTokenStored",
      "outputs": [
        {
          "internalType": "uint256",
          "name": "",
          "type": "uint256"
        }
      ],
      "stateMutability": "view",
      "type": "function"
    },
    {
      "inputs": [],
      "name": "rewardRate",
      "outputs": [
        {
          "internalType": "uint256",
          "name": "",
          "type": "uint256"
        }
      ],
      "stateMutability": "view",
      "type": "function"
    },
    {
      "inputs": [
        {
          "internalType": "address",
          "name": "",
          "type": "address"
        }
      ],
      "name": "rewards",
      "outputs": [
        {
          "internalType": "uint256",
          "name": "",
          "type": "uint256"
        }
      ],
      "stateMutability": "view",
      "type": "function"
    },
    {
      "inputs": [],
      "name": "rewardsDistribution",
      "outputs": [
        {
          "internalType": "address",
          "name": "",
          "type": "address"
        }
      ],
      "stateMutability": "view",
      "type": "function"
    },
    {
      "inputs": [],
      "name": "rewardsDuration",
      "outputs": [
        {
          "internalType": "uint256",
          "name": "",
          "type": "uint256"
        }
      ],
      "stateMutability": "view",
      "type": "function"
    },
    {
      "inputs": [],
      "name": "rewardsToken",
      "outputs": [
        {
          "internalType": "contract IERC20",
          "name": "",
          "type": "address"
        }
      ],
      "stateMutability": "view",
      "type": "function"
    },
    {
      "inputs": [
        {
          "internalType": "bool",
          "name": "_paused",
          "type": "bool"
        }
      ],
      "name": "setPaused",
      "outputs": [],
      "stateMutability": "nonpayable",
      "type": "function"
    },
    {
      "inputs": [
        {
          "internalType": "address",
          "name": "_rewardsDistribution",
          "type": "address"
        }
      ],
      "name": "setRewardsDistribution",
      "outputs": [],
      "stateMutability": "nonpayable",
      "type": "function"
    },
    {
      "inputs": [],
      "name": "stakingToken",
      "outputs": [
        {
          "internalType": "contract IERC20",
          "name": "",
          "type": "address"
        }
      ],
      "stateMutability": "view",
      "type": "function"
    },
    {
      "inputs": [
        {
          "internalType": "address",
          "name": "",
          "type": "address"
        }
      ],
      "name": "userRewardPerTokenPaid",
      "outputs": [
        {
          "internalType": "uint256",
          "name": "",
          "type": "uint256"
        }
      ],
      "stateMutability": "view",
      "type": "function"
    },
    {
      "inputs": [],
      "name": "totalSupply",
      "outputs": [
        {
          "internalType": "uint256",
          "name": "",
          "type": "uint256"
        }
      ],
      "stateMutability": "view",
      "type": "function"
    },
    {
      "inputs": [
        {
          "internalType": "address",
          "name": "account",
          "type": "address"
        }
      ],
      "name": "balanceOf",
      "outputs": [
        {
          "internalType": "uint256",
          "name": "",
          "type": "uint256"
        }
      ],
      "stateMutability": "view",
      "type": "function"
    },
    {
      "inputs": [],
      "name": "lastTimeRewardApplicable",
      "outputs": [
        {
          "internalType": "uint256",
          "name": "",
          "type": "uint256"
        }
      ],
      "stateMutability": "view",
      "type": "function"
    },
    {
      "inputs": [],
      "name": "rewardPerToken",
      "outputs": [
        {
          "internalType": "uint256",
          "name": "",
          "type": "uint256"
        }
      ],
      "stateMutability": "view",
      "type": "function"
    },
    {
      "inputs": [
        {
          "internalType": "address",
          "name": "account",
          "type": "address"
        }
      ],
      "name": "earned",
      "outputs": [
        {
          "internalType": "uint256",
          "name": "",
          "type": "uint256"
        }
      ],
      "stateMutability": "view",
      "type": "function"
    },
    {
      "inputs": [],
      "name": "getRewardForDuration",
      "outputs": [
        {
          "internalType": "uint256",
          "name": "",
          "type": "uint256"
        }
      ],
      "stateMutability": "view",
      "type": "function"
    },
    {
      "inputs": [
        {
          "internalType": "uint256",
          "name": "amount",
          "type": "uint256"
        }
      ],
      "name": "stake",
      "outputs": [],
      "stateMutability": "nonpayable",
      "type": "function"
    },
    {
      "inputs": [
        {
          "internalType": "uint256",
          "name": "amount",
          "type": "uint256"
        }
      ],
      "name": "withdraw",
      "outputs": [],
      "stateMutability": "nonpayable",
      "type": "function"
    },
    {
      "inputs": [],
      "name": "getReward",
      "outputs": [],
      "stateMutability": "nonpayable",
      "type": "function"
    },
    {
      "inputs": [],
      "name": "exit",
      "outputs": [],
      "stateMutability": "nonpayable",
      "type": "function"
    },
    {
      "inputs": [
        {
          "internalType": "uint256",
          "name": "reward",
          "type": "uint256"
        }
      ],
      "name": "notifyRewardAmount",
      "outputs": [],
      "stateMutability": "nonpayable",
      "type": "function"
    },
    {
      "inputs": [
        {
          "internalType": "address",
          "name": "tokenAddress",
          "type": "address"
        },
        {
          "internalType": "uint256",
          "name": "tokenAmount",
          "type": "uint256"
        }
      ],
      "name": "recoverERC20",
      "outputs": [],
      "stateMutability": "nonpayable",
      "type": "function"
    },
    {
      "inputs": [
        {
          "internalType": "uint256",
          "name": "_rewardsDuration",
          "type": "uint256"
        }
      ],
      "name": "setRewardsDuration",
      "outputs": [],
      "stateMutability": "nonpayable",
      "type": "function"
    }
  ],
  "bytecode": "0x60806040526000600755600060085562093a8060095534801561002157600080fd5b50604051611b0e380380611b0e8339818101604052608081101561004457600080fd5b5080516020820151604083015160609093015191929091836001600160a01b0381166100b7576040805162461bcd60e51b815260206004820152601960248201527f4f776e657220616464726573732063616e6e6f74206265203000000000000000604482015290519081900360640190fd5b600080546001600160a01b0319166001600160a01b038316908117825560408051928352602083019190915280517fb532073b38c83145e3e5135377a08bf9aab55bc0fd7c1179cd4fb995d2a5159c9281900390910190a15060016003556000546001600160a01b0316610166576040805162461bcd60e51b815260206004820152601160248201527013dddb995c881b5d5cdd081899481cd95d607a1b604482015290519081900360640190fd5b600580546001600160a01b0393841661010002610100600160a81b0319909116179055600680549183166001600160a01b0319928316179055600280549390921692169190911790555061194f806101bf6000396000f3fe608060405234801561001057600080fd5b50600436106101e45760003560e01c806372f702f31161010f578063a694fc3a116100a2578063d1af0c7d11610071578063d1af0c7d14610448578063df136d6514610450578063e9fad8ee14610458578063ebe2b12b14610460576101e4565b8063a694fc3a146103fe578063c8f33c911461041b578063cc1a378f14610423578063cd3daf9d14610440576101e4565b80638980f11f116100de5780638980f11f1461039c5780638b876347146103c85780638da5cb5b146103ee57806391b4ded9146103f6576101e4565b806372f702f31461037c57806379ba5097146103845780637b0a47ee1461038c57806380faa57d14610394576101e4565b80632e1a7d4d116101875780633fc6df6e116101565780633fc6df6e1461030e57806353a47bb7146103325780635c975abb1461033a57806370a0823114610356576101e4565b80632e1a7d4d146102c4578063386a9525146102e15780633c6b16ab146102e95780633d18b91214610306576101e4565b806316c38b3c116101c357806316c38b3c1461026f57806318160ddd1461028e57806319762143146102965780631c1f78eb146102bc576101e4565b80628cc262146101e95780630700037d146102215780631627540c14610247575b600080fd5b61020f600480360360208110156101ff57600080fd5b50356001600160a01b0316610468565b60408051918252519081900360200190f35b61020f6004803603602081101561023757600080fd5b50356001600160a01b03166104e6565b61026d6004803603602081101561025d57600080fd5b50356001600160a01b03166104f8565b005b61026d6004803603602081101561028557600080fd5b50351515610554565b61020f6105ce565b61026d600480360360208110156102ac57600080fd5b50356001600160a01b03166105d5565b61020f6105ff565b61026d600480360360208110156102da57600080fd5b503561061d565b61020f6107b3565b61026d600480360360208110156102ff57600080fd5b50356107b9565b61026d6109f1565b610316610b2c565b604080516001600160a01b039092168252519081900360200190f35b610316610b3b565b610342610b4a565b604080519115158252519081900360200190f35b61020f6004803603602081101561036c57600080fd5b50356001600160a01b0316610b53565b610316610b6e565b61026d610b7d565b61020f610c39565b61020f610c3f565b61026d600480360360408110156103b257600080fd5b506001600160a01b038135169060200135610c4d565b61020f600480360360208110156103de57600080fd5b50356001600160a01b0316610e9f565b610316610eb1565b61020f610ec0565b61026d6004803603602081101561041457600080fd5b5035610ec6565b61020f61109c565b61026d6004803603602081101561043957600080fd5b50356110a2565b61020f611130565b61031661117e565b61020f611192565b61026d611198565b61020f6111bb565b6001600160a01b0381166000908152600d6020908152604080832054600c9092528220546104e091906104da90670de0b6b3a7640000906104d4906104b5906104af611130565b906111c1565b6001600160a01b0388166000908152600f60205260409020549061120a565b90611263565b906112a5565b92915050565b600d6020526000908152604090205481565b6105006112ff565b600180546001600160a01b0383166001600160a01b0319909116811790915560408051918252517f906a1c6bd7e3091ea86693dd029a831c19049ce77f1dce2ce0bab1cacbabce229181900360200190a150565b61055c6112ff565b60055460ff1615158115151415610572576105cb565b6005805460ff1916821515179081905560ff161561058f57426004555b6005546040805160ff90921615158252517f8fb6c181ee25a520cf3dd6565006ef91229fcfe5a989566c2a3b8c115570cec59181900360200190a15b50565b600e545b90565b6105dd6112ff565b600280546001600160a01b0319166001600160a01b0392909216919091179055565b600061061860095460085461120a90919063ffffffff16565b905090565b60026003541415610675576040805162461bcd60e51b815260206004820152601f60248201527f5265656e7472616e637947756172643a207265656e7472616e742063616c6c00604482015290519081900360640190fd5b600260035533610683611130565b600b5561068e610c3f565b600a556001600160a01b038116156106d5576106a981610468565b6001600160a01b0382166000908152600d6020908152604080832093909355600b54600c909152919020555b6000821161071e576040805162461bcd60e51b8152602060048201526011602482015270043616e6e6f74207769746864726177203607c1b604482015290519081900360640190fd5b600e5461072b90836111c1565b600e55336000908152600f602052604090205461074890836111c1565b336000818152600f6020526040902091909155600654610774916001600160a01b039091169084611348565b60408051838152905133917f7084f5476618d8e60b11ef0d7d3f06914655adb8793e28ff7f018d4c76d505d5919081900360200190a250506001600355565b60095481565b6002546001600160a01b031633146108025760405162461bcd60e51b815260040180806020018281038252602a8152602001806118c6602a913960400191505060405180910390fd5b600061080c611130565b600b55610817610c3f565b600a556001600160a01b0381161561085e5761083281610468565b6001600160a01b0382166000908152600d6020908152604080832093909355600b54600c909152919020555b600754421061087d57600954610875908390611263565b6008556108c0565b60075460009061088d90426111c1565b905060006108a66008548361120a90919063ffffffff16565b6009549091506108ba906104d486846112a5565b60085550505b600554604080516370a0823160e01b8152306004820152905160009261010090046001600160a01b0316916370a08231916024808301926020929190829003018186803b15801561091057600080fd5b505afa158015610924573d6000803e3d6000fd5b505050506040513d602081101561093a57600080fd5b505160095490915061094d908290611263565b60085411156109a3576040805162461bcd60e51b815260206004820152601860248201527f50726f76696465642072657761726420746f6f20686967680000000000000000604482015290519081900360640190fd5b42600a8190556009546109b691906112a5565b6007556040805184815290517fde88a922e0d3b88b24e9623efeb464919c6bf9f66857a65e2bfcf2ce87a9433d9181900360200190a1505050565b60026003541415610a49576040805162461bcd60e51b815260206004820152601f60248201527f5265656e7472616e637947756172643a207265656e7472616e742063616c6c00604482015290519081900360640190fd5b600260035533610a57611130565b600b55610a62610c3f565b600a556001600160a01b03811615610aa957610a7d81610468565b6001600160a01b0382166000908152600d6020908152604080832093909355600b54600c909152919020555b336000908152600d60205260409020548015610b2357336000818152600d6020526040812055600554610aec916101009091046001600160a01b03169083611348565b60408051828152905133917fe2403640ba68fed3a2f88b7557551d1993f84b99bb10ff833f0cf8db0c5e0486919081900360200190a25b50506001600355565b6002546001600160a01b031681565b6001546001600160a01b031681565b60055460ff1681565b6001600160a01b03166000908152600f602052604090205490565b6006546001600160a01b031681565b6001546001600160a01b03163314610bc65760405162461bcd60e51b81526004018080602001828103825260358152602001806117d86035913960400191505060405180910390fd5b600054600154604080516001600160a01b03938416815292909116602083015280517fb532073b38c83145e3e5135377a08bf9aab55bc0fd7c1179cd4fb995d2a5159c9281900390910190a160018054600080546001600160a01b03199081166001600160a01b03841617909155169055565b60085481565b60006106184260075461139f565b610c556112ff565b6000826001600160a01b03166395d89b416040518163ffffffff1660e01b815260040160006040518083038186803b158015610c9057600080fd5b505afa158015610ca4573d6000803e3d6000fd5b505050506040513d6000823e601f3d908101601f191682016040526020811015610ccd57600080fd5b8101908080516040519392919084640100000000821115610ced57600080fd5b908301906020820185811115610d0257600080fd5b8251640100000000811182820188101715610d1c57600080fd5b82525081516020918201929091019080838360005b83811015610d49578181015183820152602001610d31565b50505050905090810190601f168015610d765780820380516001836020036101000a031916815260200191505b506040818152855160209687012082820190915260038252620a69cb60eb1b959091019490945250506006547fc33e514e79311fe606801af4b4f343c83a3b72dca711239a516f2103673922d19092149250506001600160a01b03848116911614801590610df757506005546001600160a01b038481166101009092041614155b8015610e01575080155b610e3c5760405162461bcd60e51b815260040180806020018281038252602d815260200180611899602d913960400191505060405180910390fd5b600054610e56906001600160a01b03858116911684611348565b604080516001600160a01b03851681526020810184905281517f8c1256b8896378cd5044f80c202f9772b9d77dc85c8a6eb51967210b09bfaa28929181900390910190a1505050565b600c6020526000908152604090205481565b6000546001600160a01b031681565b60045481565b60026003541415610f1e576040805162461bcd60e51b815260206004820152601f60248201527f5265656e7472616e637947756172643a207265656e7472616e742063616c6c00604482015290519081900360640190fd5b600260035560055460ff1615610f655760405162461bcd60e51b815260040180806020018281038252603c81526020018061185d603c913960400191505060405180910390fd5b33610f6e611130565b600b55610f79610c3f565b600a556001600160a01b03811615610fc057610f9481610468565b6001600160a01b0382166000908152600d6020908152604080832093909355600b54600c909152919020555b60008211611006576040805162461bcd60e51b815260206004820152600e60248201526d043616e6e6f74207374616b6520360941b604482015290519081900360640190fd5b600e5461101390836112a5565b600e55336000908152600f602052604090205461103090836112a5565b336000818152600f602052604090209190915560065461105d916001600160a01b039091169030856113b5565b60408051838152905133917f9e71bc8eea02a63969f509818f2dafb9254532904319f9dbda79b67bd34a5f3d919081900360200190a250506001600355565b600a5481565b6110aa6112ff565b60075415806110ba575060075442115b6110f55760405162461bcd60e51b81526004018080602001828103825260588152602001806117806058913960600191505060405180910390fd5b60098190556040805182815290517ffb46ca5a5e06d4540d6387b930a7c978bce0db5f449ec6b3f5d07c6e1d44f2d39181900360200190a150565b6000600e54600014156111465750600b546105d2565b610618611175600e546104d4670de0b6b3a764000061116f60085461116f600a546104af610c3f565b9061120a565b600b54906112a5565b60055461010090046001600160a01b031681565b600b5481565b336000908152600f60205260409020546111b19061061d565b6111b96109f1565b565b60075481565b600061120383836040518060400160405280601e81526020017f536166654d6174683a207375627472616374696f6e206f766572666c6f770000815250611415565b9392505050565b600082611219575060006104e0565b8282028284828161122657fe5b04146112035760405162461bcd60e51b815260040180806020018281038252602181526020018061183c6021913960400191505060405180910390fd5b600061120383836040518060400160405280601a81526020017f536166654d6174683a206469766973696f6e206279207a65726f0000000000008152506114ac565b600082820183811015611203576040805162461bcd60e51b815260206004820152601b60248201527f536166654d6174683a206164646974696f6e206f766572666c6f770000000000604482015290519081900360640190fd5b6000546001600160a01b031633146111b95760405162461bcd60e51b815260040180806020018281038252602f81526020018061180d602f913960400191505060405180910390fd5b604080516001600160a01b038416602482015260448082018490528251808303909101815260649091019091526020810180516001600160e01b031663a9059cbb60e01b17905261139a908490611511565b505050565b60008183106113ae5781611203565b5090919050565b604080516001600160a01b0380861660248301528416604482015260648082018490528251808303909101815260849091019091526020810180516001600160e01b03166323b872dd60e01b17905261140f908590611511565b50505050565b600081848411156114a45760405162461bcd60e51b81526004018080602001828103825283818151815260200191508051906020019080838360005b83811015611469578181015183820152602001611451565b50505050905090810190601f1680156114965780820380516001836020036101000a031916815260200191505b509250505060405180910390fd5b505050900390565b600081836114fb5760405162461bcd60e51b8152602060048201818152835160248401528351909283926044909101919085019080838360008315611469578181015183820152602001611451565b50600083858161150757fe5b0495945050505050565b6060611566826040518060400160405280602081526020017f5361666545524332303a206c6f772d6c6576656c2063616c6c206661696c6564815250856001600160a01b03166115c29092919063ffffffff16565b80519091501561139a5780806020019051602081101561158557600080fd5b505161139a5760405162461bcd60e51b815260040180806020018281038252602a8152602001806118f0602a913960400191505060405180910390fd5b60606115d184846000856115d9565b949350505050565b60606115e485611746565b611635576040805162461bcd60e51b815260206004820152601d60248201527f416464726573733a2063616c6c20746f206e6f6e2d636f6e7472616374000000604482015290519081900360640190fd5b60006060866001600160a01b031685876040518082805190602001908083835b602083106116745780518252601f199092019160209182019101611655565b6001836020036101000a03801982511681845116808217855250505050505090500191505060006040518083038185875af1925050503d80600081146116d6576040519150601f19603f3d011682016040523d82523d6000602084013e6116db565b606091505b509150915081156116ef5791506115d19050565b8051156116ff5780518082602001fd5b60405162461bcd60e51b8152602060048201818152865160248401528651879391928392604401919085019080838360008315611469578181015183820152602001611451565b6000813f7fc5d2460186f7233c927e7db2dcc703c0e500b653ca82273b7bfad8045d85a4708181148015906115d157505015159291505056fe50726576696f7573207265776172647320706572696f64206d75737420626520636f6d706c657465206265666f7265206368616e67696e6720746865206475726174696f6e20666f7220746865206e657720706572696f64596f75206d757374206265206e6f6d696e61746564206265666f726520796f752063616e20616363657074206f776e6572736869704f6e6c792074686520636f6e7472616374206f776e6572206d617920706572666f726d207468697320616374696f6e536166654d6174683a206d756c7469706c69636174696f6e206f766572666c6f775468697320616374696f6e2063616e6e6f7420626520706572666f726d6564207768696c652074686520636f6e74726163742069732070617573656443616e6e6f7420776974686472617720746865207374616b696e67206f72207265776172647320746f6b656e7343616c6c6572206973206e6f742052657761726473446973747269627574696f6e20636f6e74726163745361666545524332303a204552433230206f7065726174696f6e20646964206e6f742073756363656564a26469706673582212203a4c944bde0b6846e2e475de01a2b4232a6e18fb6751881732e73c71e20b24ae64736f6c634300060c0033",
  "immutableReferences": {},
  "source": "pragma solidity ^0.6.12;\n\nimport \"@openzeppelin/contracts/math/Math.sol\";\nimport \"@openzeppelin/contracts/math/SafeMath.sol\";\nimport \"@openzeppelin/contracts/token/ERC20/ERC20.sol\";\nimport \"@openzeppelin/contracts/token/ERC20/SafeERC20.sol\";\nimport \"@openzeppelin/contracts/utils/ReentrancyGuard.sol\";\n\n// Inheritance\n// import \"./interfaces/IStakingRewards.sol\";\n// import \"./RewardsDistributionRecipient.sol\";\n// import \"./Pausable.sol\";\n// import \"./Owned.sol\";\n\n\n\n// https://docs.synthetix.io/contracts/Owned\ncontract Owned {\n    address public owner;\n    address public nominatedOwner;\n\n    constructor(address _owner) public {\n        require(_owner != address(0), \"Owner address cannot be 0\");\n        owner = _owner;\n        emit OwnerChanged(address(0), _owner);\n    }\n\n    function nominateNewOwner(address _owner) external onlyOwner {\n        nominatedOwner = _owner;\n        emit OwnerNominated(_owner);\n    }\n\n    function acceptOwnership() external {\n        require(msg.sender == nominatedOwner, \"You must be nominated before you can accept ownership\");\n        emit OwnerChanged(owner, nominatedOwner);\n        owner = nominatedOwner;\n        nominatedOwner = address(0);\n    }\n\n    modifier onlyOwner {\n        _onlyOwner();\n        _;\n    }\n\n    function _onlyOwner() private view {\n        require(msg.sender == owner, \"Only the contract owner may perform this action\");\n    }\n\n    event OwnerNominated(address newOwner);\n    event OwnerChanged(address oldOwner, address newOwner);\n}\n\n\n\n// https://docs.synthetix.io/contracts/Pausable\nabstract\ncontract Pausable is Owned {\n    uint public lastPauseTime;\n    bool public paused;\n\n    constructor() internal {\n        // This contract is abstract, and thus cannot be instantiated directly\n        require(owner != address(0), \"Owner must be set\");\n        // Paused will be false, and lastPauseTime will be 0 upon initialisation\n    }\n\n    /**\n     * @notice Change the paused state of the contract\n     * @dev Only the contract owner may call this.\n     */\n    function setPaused(bool _paused) external onlyOwner {\n        // Ensure we're actually changing the state before we do anything\n        if (_paused == paused) {\n            return;\n        }\n\n        // Set our paused state.\n        paused = _paused;\n\n        // If applicable, set the last pause time.\n        if (paused) {\n            lastPauseTime = now;\n        }\n\n        // Let everyone know that our pause state has changed.\n        emit PauseChanged(paused);\n    }\n\n    event PauseChanged(bool isPaused);\n\n    modifier notPaused {\n        require(!paused, \"This action cannot be performed while the contract is paused\");\n        _;\n    }\n}\n\n\n// https://docs.synthetix.io/contracts/RewardsDistributionRecipient\nabstract\ncontract RewardsDistributionRecipient is Owned {\n    address public rewardsDistribution;\n\n    function notifyRewardAmount(uint256 reward) external virtual;\n\n    modifier onlyRewardsDistribution() {\n        require(msg.sender == rewardsDistribution, \"Caller is not RewardsDistribution contract\");\n        _;\n    }\n\n    function setRewardsDistribution(address _rewardsDistribution) external onlyOwner {\n        rewardsDistribution = _rewardsDistribution;\n    }\n}\n\n\ninterface IStakingRewards {\n    // Views\n    function lastTimeRewardApplicable() external view returns (uint256);\n\n    function rewardPerToken() external view returns (uint256);\n\n    function earned(address account) external view returns (uint256);\n\n    function getRewardForDuration() external view returns (uint256);\n\n    function totalSupply() external view returns (uint256);\n\n    function balanceOf(address account) external view returns (uint256);\n\n    // Mutative\n\n    function stake(uint256 amount) external;\n\n    function withdraw(uint256 amount) external;\n\n    function getReward() external;\n\n    function exit() external;\n}\n\n\ncontract StakingRewards is IStakingRewards, RewardsDistributionRecipient, ReentrancyGuard, Pausable {\n    using SafeMath for uint256;\n    using SafeERC20 for IERC20;\n\n    /* ========== STATE VARIABLES ========== */\n\n    IERC20 public rewardsToken;\n    IERC20 public stakingToken;\n    uint256 public periodFinish = 0;\n    uint256 public rewardRate = 0;\n    uint256 public rewardsDuration = 7 days;\n    uint256 public lastUpdateTime;\n    uint256 public rewardPerTokenStored;\n\n    mapping(address => uint256) public userRewardPerTokenPaid;\n    mapping(address => uint256) public rewards;\n\n    uint256 private _totalSupply;\n    mapping(address => uint256) private _balances;\n\n    /* ========== CONSTRUCTOR ========== */\n\n    constructor(\n        address _owner,\n        address _rewardsDistribution,\n        address _rewardsToken,\n        address _stakingToken\n    ) public Owned(_owner) {\n        rewardsToken = IERC20(_rewardsToken);\n        stakingToken = IERC20(_stakingToken);\n        rewardsDistribution = _rewardsDistribution;\n    }\n\n    /* ========== VIEWS ========== */\n\n    function totalSupply() external view override returns (uint256) {\n        return _totalSupply;\n    }\n\n    function balanceOf(address account) external view override returns (uint256) {\n        return _balances[account];\n    }\n\n    function lastTimeRewardApplicable() public view override returns (uint256) {\n        return Math.min(block.timestamp, periodFinish);\n    }\n\n    function rewardPerToken() public view override returns (uint256) {\n        if (_totalSupply == 0) {\n            return rewardPerTokenStored;\n        }\n        return\n            rewardPerTokenStored.add(\n                lastTimeRewardApplicable().sub(lastUpdateTime).mul(rewardRate).mul(1e18).div(_totalSupply)\n            );\n    }\n\n    function earned(address account) public view override returns (uint256) {\n        return _balances[account].mul(rewardPerToken().sub(userRewardPerTokenPaid[account])).div(1e18).add(rewards[account]);\n    }\n\n    function getRewardForDuration() external view override returns (uint256) {\n        return rewardRate.mul(rewardsDuration);\n    }\n\n    /* ========== MUTATIVE FUNCTIONS ========== */\n\n    function stake(uint256 amount) external override nonReentrant notPaused updateReward(msg.sender) {\n        require(amount > 0, \"Cannot stake 0\");\n        _totalSupply = _totalSupply.add(amount);\n        _balances[msg.sender] = _balances[msg.sender].add(amount);\n        stakingToken.safeTransferFrom(msg.sender, address(this), amount);\n        emit Staked(msg.sender, amount);\n    }\n\n    function withdraw(uint256 amount) public override nonReentrant updateReward(msg.sender) {\n        require(amount > 0, \"Cannot withdraw 0\");\n        _totalSupply = _totalSupply.sub(amount);\n        _balances[msg.sender] = _balances[msg.sender].sub(amount);\n        stakingToken.safeTransfer(msg.sender, amount);\n        emit Withdrawn(msg.sender, amount);\n    }\n\n    function getReward() public override nonReentrant updateReward(msg.sender) {\n        uint256 reward = rewards[msg.sender];\n        if (reward > 0) {\n            rewards[msg.sender] = 0;\n            rewardsToken.safeTransfer(msg.sender, reward);\n            emit RewardPaid(msg.sender, reward);\n        }\n    }\n\n    function exit() external override {\n        withdraw(_balances[msg.sender]);\n        getReward();\n    }\n\n    /* ========== RESTRICTED FUNCTIONS ========== */\n\n    function notifyRewardAmount(uint256 reward) external override onlyRewardsDistribution updateReward(address(0)) {\n        if (block.timestamp >= periodFinish) {\n            rewardRate = reward.div(rewardsDuration);\n        } else {\n            uint256 remaining = periodFinish.sub(block.timestamp);\n            uint256 leftover = remaining.mul(rewardRate);\n            rewardRate = reward.add(leftover).div(rewardsDuration);\n        }\n\n        // Ensure the provided reward amount is not more than the balance in the contract.\n        // This keeps the reward rate in the right range, preventing overflows due to\n        // very high values of rewardRate in the earned and rewardsPerToken functions;\n        // Reward + leftover must be less than 2^256 / 10^18 to avoid overflow.\n        uint balance = rewardsToken.balanceOf(address(this));\n        require(rewardRate <= balance.div(rewardsDuration), \"Provided reward too high\");\n\n        lastUpdateTime = block.timestamp;\n        periodFinish = block.timestamp.add(rewardsDuration);\n        emit RewardAdded(reward);\n    }\n\n    // Added to support recovering LP Rewards from other systems to be distributed to holders\n    function recoverERC20(address tokenAddress, uint256 tokenAmount) external onlyOwner {\n        // If it's SNX we have to query the token symbol to ensure its not a proxy or underlying\n        bool isSNX = (keccak256(bytes(\"SNX\")) == keccak256(bytes(ERC20(tokenAddress).symbol())));\n        // Cannot recover the staking token or the rewards token\n        require(\n            tokenAddress != address(stakingToken) && tokenAddress != address(rewardsToken) && !isSNX,\n            \"Cannot withdraw the staking or rewards tokens\"\n        );\n        IERC20(tokenAddress).safeTransfer(owner, tokenAmount);\n        emit Recovered(tokenAddress, tokenAmount);\n    }\n\n    function setRewardsDuration(uint256 _rewardsDuration) external onlyOwner {\n        require(\n            periodFinish == 0 || block.timestamp > periodFinish,\n            \"Previous rewards period must be complete before changing the duration for the new period\"\n        );\n        rewardsDuration = _rewardsDuration;\n        emit RewardsDurationUpdated(rewardsDuration);\n    }\n\n    /* ========== MODIFIERS ========== */\n\n    modifier updateReward(address account) {\n        rewardPerTokenStored = rewardPerToken();\n        lastUpdateTime = lastTimeRewardApplicable();\n        if (account != address(0)) {\n            rewards[account] = earned(account);\n            userRewardPerTokenPaid[account] = rewardPerTokenStored;\n        }\n        _;\n    }\n\n    /* ========== EVENTS ========== */\n\n    event RewardAdded(uint256 reward);\n    event Staked(address indexed user, uint256 amount);\n    event Withdrawn(address indexed user, uint256 amount);\n    event RewardPaid(address indexed user, uint256 reward);\n    event RewardsDurationUpdated(uint256 newDuration);\n    event Recovered(address token, uint256 amount);\n}\n",
  "sourcePath": "/root/contracts-v888/contracts/Rewards/Synthetix/StakingRewards.sol",
  "compiler": {
    "name": "solc",
    "version": "0.6.12+commit.27d51765.Emscripten.clang"
  },
  "schemaVersion": "3.3.2",
  "updatedAt": "2020-12-01T20:45:50.523Z",
  "devdoc": {
    "kind": "dev",
    "methods": {
      "setPaused(bool)": {
        "details": "Only the contract owner may call this."
      }
    },
    "version": 1
  },
  "userdoc": {
    "kind": "user",
    "methods": {
      "setPaused(bool)": {
        "notice": "Change the paused state of the contract"
      }
    },
    "version": 1
  }
}